{
  "_format": "hh-sol-artifact-1",
  "contractName": "NFTCollection",
  "sourceName": "contracts/NFTCollection.sol",
  "abi": [
    {
      "inputs": [
        {
          "internalType": "string",
          "name": "name",
          "type": "string"
        },
        {
          "internalType": "string",
          "name": "symbol",
          "type": "string"
        },
        {
          "internalType": "string",
          "name": "_baseURI",
          "type": "string"
        },
        {
          "internalType": "address",
          "name": "_marketplaceAddress",
          "type": "address"
        },
        {
          "internalType": "string",
          "name": "_category",
          "type": "string"
        },
        {
          "internalType": "address",
          "name": "initialOwner",
          "type": "address"
        }
      ],
      "stateMutability": "nonpayable",
      "type": "constructor"
    },
    {
      "inputs": [
        {
          "internalType": "address",
          "name": "sender",
          "type": "address"
        },
        {
          "internalType": "uint256",
          "name": "tokenId",
          "type": "uint256"
        },
        {
          "internalType": "address",
          "name": "owner",
          "type": "address"
        }
      ],
      "name": "ERC721IncorrectOwner",
      "type": "error"
    },
    {
      "inputs": [
        {
          "internalType": "address",
          "name": "operator",
          "type": "address"
        },
        {
          "internalType": "uint256",
          "name": "tokenId",
          "type": "uint256"
        }
      ],
      "name": "ERC721InsufficientApproval",
      "type": "error"
    },
    {
      "inputs": [
        {
          "internalType": "address",
          "name": "approver",
          "type": "address"
        }
      ],
      "name": "ERC721InvalidApprover",
      "type": "error"
    },
    {
      "inputs": [
        {
          "internalType": "address",
          "name": "operator",
          "type": "address"
        }
      ],
      "name": "ERC721InvalidOperator",
      "type": "error"
    },
    {
      "inputs": [
        {
          "internalType": "address",
          "name": "owner",
          "type": "address"
        }
      ],
      "name": "ERC721InvalidOwner",
      "type": "error"
    },
    {
      "inputs": [
        {
          "internalType": "address",
          "name": "receiver",
          "type": "address"
        }
      ],
      "name": "ERC721InvalidReceiver",
      "type": "error"
    },
    {
      "inputs": [
        {
          "internalType": "address",
          "name": "sender",
          "type": "address"
        }
      ],
      "name": "ERC721InvalidSender",
      "type": "error"
    },
    {
      "inputs": [
        {
          "internalType": "uint256",
          "name": "tokenId",
          "type": "uint256"
        }
      ],
      "name": "ERC721NonexistentToken",
      "type": "error"
    },
    {
      "inputs": [
        {
          "internalType": "address",
          "name": "owner",
          "type": "address"
        }
      ],
      "name": "OwnableInvalidOwner",
      "type": "error"
    },
    {
      "inputs": [
        {
          "internalType": "address",
          "name": "account",
          "type": "address"
        }
      ],
      "name": "OwnableUnauthorizedAccount",
      "type": "error"
    },
    {
      "anonymous": false,
      "inputs": [
        {
          "indexed": true,
          "internalType": "address",
          "name": "owner",
          "type": "address"
        },
        {
          "indexed": true,
          "internalType": "address",
          "name": "approved",
          "type": "address"
        },
        {
          "indexed": true,
          "internalType": "uint256",
          "name": "tokenId",
          "type": "uint256"
        }
      ],
      "name": "Approval",
      "type": "event"
    },
    {
      "anonymous": false,
      "inputs": [
        {
          "indexed": true,
          "internalType": "address",
          "name": "owner",
          "type": "address"
        },
        {
          "indexed": true,
          "internalType": "address",
          "name": "operator",
          "type": "address"
        },
        {
          "indexed": false,
          "internalType": "bool",
          "name": "approved",
          "type": "bool"
        }
      ],
      "name": "ApprovalForAll",
      "type": "event"
    },
    {
      "anonymous": false,
      "inputs": [
        {
          "indexed": false,
          "internalType": "uint256",
          "name": "_fromTokenId",
          "type": "uint256"
        },
        {
          "indexed": false,
          "internalType": "uint256",
          "name": "_toTokenId",
          "type": "uint256"
        }
      ],
      "name": "BatchMetadataUpdate",
      "type": "event"
    },
    {
      "anonymous": false,
      "inputs": [
        {
          "indexed": false,
          "internalType": "uint256",
          "name": "_tokenId",
          "type": "uint256"
        }
      ],
      "name": "MetadataUpdate",
      "type": "event"
    },
    {
      "anonymous": false,
      "inputs": [
        {
          "indexed": true,
          "internalType": "address",
          "name": "previousOwner",
          "type": "address"
        },
        {
          "indexed": true,
          "internalType": "address",
          "name": "newOwner",
          "type": "address"
        }
      ],
      "name": "OwnershipTransferred",
      "type": "event"
    },
    {
      "anonymous": false,
      "inputs": [
        {
          "indexed": true,
          "internalType": "address",
          "name": "from",
          "type": "address"
        },
        {
          "indexed": true,
          "internalType": "address",
          "name": "to",
          "type": "address"
        },
        {
          "indexed": true,
          "internalType": "uint256",
          "name": "tokenId",
          "type": "uint256"
        }
      ],
      "name": "Transfer",
      "type": "event"
    },
    {
      "inputs": [
        {
          "internalType": "address",
          "name": "to",
          "type": "address"
        },
        {
          "internalType": "uint256",
          "name": "tokenId",
          "type": "uint256"
        }
      ],
      "name": "approve",
      "outputs": [],
      "stateMutability": "nonpayable",
      "type": "function"
    },
    {
      "inputs": [
        {
          "internalType": "address",
          "name": "owner",
          "type": "address"
        }
      ],
      "name": "balanceOf",
      "outputs": [
        {
          "internalType": "uint256",
          "name": "",
          "type": "uint256"
        }
      ],
      "stateMutability": "view",
      "type": "function"
    },
    {
      "inputs": [],
      "name": "baseURI",
      "outputs": [
        {
          "internalType": "string",
          "name": "",
          "type": "string"
        }
      ],
      "stateMutability": "view",
      "type": "function"
    },
    {
      "inputs": [],
      "name": "category",
      "outputs": [
        {
          "internalType": "string",
          "name": "",
          "type": "string"
        }
      ],
      "stateMutability": "view",
      "type": "function"
    },
    {
      "inputs": [
        {
          "internalType": "uint256",
          "name": "tokenId",
          "type": "uint256"
        }
      ],
      "name": "getApproved",
      "outputs": [
        {
          "internalType": "address",
          "name": "",
          "type": "address"
        }
      ],
      "stateMutability": "view",
      "type": "function"
    },
    {
      "inputs": [
        {
          "internalType": "address",
          "name": "owner",
          "type": "address"
        },
        {
          "internalType": "address",
          "name": "operator",
          "type": "address"
        }
      ],
      "name": "isApprovedForAll",
      "outputs": [
        {
          "internalType": "bool",
          "name": "",
          "type": "bool"
        }
      ],
      "stateMutability": "view",
      "type": "function"
    },
    {
      "inputs": [],
      "name": "marketplaceAddress",
      "outputs": [
        {
          "internalType": "address",
          "name": "",
          "type": "address"
        }
      ],
      "stateMutability": "view",
      "type": "function"
    },
    {
      "inputs": [
        {
          "internalType": "address",
          "name": "to",
          "type": "address"
        },
        {
          "internalType": "string",
          "name": "tokenURI",
          "type": "string"
        }
      ],
      "name": "mint",
      "outputs": [
        {
          "internalType": "uint256",
          "name": "",
          "type": "uint256"
        }
      ],
      "stateMutability": "nonpayable",
      "type": "function"
    },
    {
      "inputs": [],
      "name": "name",
      "outputs": [
        {
          "internalType": "string",
          "name": "",
          "type": "string"
        }
      ],
      "stateMutability": "view",
      "type": "function"
    },
    {
      "inputs": [],
      "name": "owner",
      "outputs": [
        {
          "internalType": "address",
          "name": "",
          "type": "address"
        }
      ],
      "stateMutability": "view",
      "type": "function"
    },
    {
      "inputs": [
        {
          "internalType": "uint256",
          "name": "tokenId",
          "type": "uint256"
        }
      ],
      "name": "ownerOf",
      "outputs": [
        {
          "internalType": "address",
          "name": "",
          "type": "address"
        }
      ],
      "stateMutability": "view",
      "type": "function"
    },
    {
      "inputs": [],
      "name": "renounceOwnership",
      "outputs": [],
      "stateMutability": "nonpayable",
      "type": "function"
    },
    {
      "inputs": [
        {
          "internalType": "address",
          "name": "from",
          "type": "address"
        },
        {
          "internalType": "address",
          "name": "to",
          "type": "address"
        },
        {
          "internalType": "uint256",
          "name": "tokenId",
          "type": "uint256"
        }
      ],
      "name": "safeTransferFrom",
      "outputs": [],
      "stateMutability": "nonpayable",
      "type": "function"
    },
    {
      "inputs": [
        {
          "internalType": "address",
          "name": "from",
          "type": "address"
        },
        {
          "internalType": "address",
          "name": "to",
          "type": "address"
        },
        {
          "internalType": "uint256",
          "name": "tokenId",
          "type": "uint256"
        },
        {
          "internalType": "bytes",
          "name": "data",
          "type": "bytes"
        }
      ],
      "name": "safeTransferFrom",
      "outputs": [],
      "stateMutability": "nonpayable",
      "type": "function"
    },
    {
      "inputs": [
        {
          "internalType": "address",
          "name": "operator",
          "type": "address"
        },
        {
          "internalType": "bool",
          "name": "approved",
          "type": "bool"
        }
      ],
      "name": "setApprovalForAll",
      "outputs": [],
      "stateMutability": "nonpayable",
      "type": "function"
    },
    {
      "inputs": [
        {
          "internalType": "bytes4",
          "name": "interfaceId",
          "type": "bytes4"
        }
      ],
      "name": "supportsInterface",
      "outputs": [
        {
          "internalType": "bool",
          "name": "",
          "type": "bool"
        }
      ],
      "stateMutability": "view",
      "type": "function"
    },
    {
      "inputs": [],
      "name": "symbol",
      "outputs": [
        {
          "internalType": "string",
          "name": "",
          "type": "string"
        }
      ],
      "stateMutability": "view",
      "type": "function"
    },
    {
      "inputs": [
        {
          "internalType": "uint256",
          "name": "tokenId",
          "type": "uint256"
        }
      ],
      "name": "tokenURI",
      "outputs": [
        {
          "internalType": "string",
          "name": "",
          "type": "string"
        }
      ],
      "stateMutability": "view",
      "type": "function"
    },
    {
      "inputs": [],
      "name": "totalSupply",
      "outputs": [
        {
          "internalType": "uint256",
          "name": "",
          "type": "uint256"
        }
      ],
      "stateMutability": "view",
      "type": "function"
    },
    {
      "inputs": [
        {
          "internalType": "address",
          "name": "from",
          "type": "address"
        },
        {
          "internalType": "address",
          "name": "to",
          "type": "address"
        },
        {
          "internalType": "uint256",
          "name": "tokenId",
          "type": "uint256"
        }
      ],
      "name": "transferFrom",
      "outputs": [],
      "stateMutability": "nonpayable",
      "type": "function"
    },
    {
      "inputs": [
        {
          "internalType": "address",
          "name": "newOwner",
          "type": "address"
        }
      ],
      "name": "transferOwnership",
      "outputs": [],
      "stateMutability": "nonpayable",
      "type": "function"
    }
  ],
  "bytecode": "0x608060405234801561001057600080fd5b5060405161199e38038061199e83398101604081905261002f916101ed565b808686600061003e8382610357565b50600161004b8282610357565b5050506001600160a01b03811661007c57604051631e4fbdf760e01b81526000600482015260240160405180910390fd5b610085816100c6565b5060096100928582610357565b50600a80546001600160a01b0319166001600160a01b038516179055600b6100ba8382610357565b50505050505050610415565b600780546001600160a01b038381166001600160a01b0319831681179093556040519116919082907f8be0079c531659141344cd1fd0a4f28419497f9722a3daafe3b4186f6b6457e090600090a35050565b634e487b7160e01b600052604160045260246000fd5b600082601f83011261013f57600080fd5b81516001600160401b0381111561015857610158610118565b604051601f8201601f19908116603f011681016001600160401b038111828210171561018657610186610118565b60405281815283820160200185101561019e57600080fd5b60005b828110156101bd576020818601810151838301820152016101a1565b506000918101602001919091529392505050565b80516001600160a01b03811681146101e857600080fd5b919050565b60008060008060008060c0878903121561020657600080fd5b86516001600160401b0381111561021c57600080fd5b61022889828a0161012e565b602089015190975090506001600160401b0381111561024657600080fd5b61025289828a0161012e565b604089015190965090506001600160401b0381111561027057600080fd5b61027c89828a0161012e565b94505061028b606088016101d1565b60808801519093506001600160401b038111156102a757600080fd5b6102b389828a0161012e565b9250506102c260a088016101d1565b90509295509295509295565b600181811c908216806102e257607f821691505b60208210810361030257634e487b7160e01b600052602260045260246000fd5b50919050565b601f82111561035257806000526020600020601f840160051c8101602085101561032f5750805b601f840160051c820191505b8181101561034f576000815560010161033b565b50505b505050565b81516001600160401b0381111561037057610370610118565b6103848161037e84546102ce565b84610308565b6020601f8211600181146103b857600083156103a05750848201515b600019600385901b1c1916600184901b17845561034f565b600084815260208120601f198516915b828110156103e857878501518255602094850194600190920191016103c8565b50848210156104065786840151600019600387901b60f8161c191681555b50505050600190811b01905550565b61157a806104246000396000f3fe608060405234801561001057600080fd5b50600436106101375760003560e01c8063715018a6116100b8578063c87b56dd1161007c578063c87b56dd14610266578063d0def52114610279578063daa17f491461028c578063e985e9c51461029f578063ef430aa6146102b2578063f2fde38b146102ba57600080fd5b8063715018a61461021f5780638da5cb5b1461022757806395d89b4114610238578063a22cb46514610240578063b88d4fde1461025357600080fd5b806323b872dd116100ff57806323b872dd146101cb57806342842e0e146101de5780636352211e146101f15780636c0360eb1461020457806370a082311461020c57600080fd5b806301ffc9a71461013c57806306fdde0314610164578063081812fc14610179578063095ea7b3146101a457806318160ddd146101b9575b600080fd5b61014f61014a366004611040565b6102cd565b60405190151581526020015b60405180910390f35b61016c6102f8565b60405161015b91906110ad565b61018c6101873660046110c0565b61038a565b6040516001600160a01b03909116815260200161015b565b6101b76101b23660046110f5565b6103b3565b005b6008545b60405190815260200161015b565b6101b76101d936600461111f565b6103c2565b6101b76101ec36600461111f565b610452565b61018c6101ff3660046110c0565b610472565b61016c61047d565b6101bd61021a36600461115c565b61050b565b6101b7610553565b6007546001600160a01b031661018c565b61016c610567565b6101b761024e366004611177565b610576565b6101b7610261366004611243565b610581565b61016c6102743660046110c0565b610599565b6101bd6102873660046112bf565b6106aa565b600a5461018c906001600160a01b031681565b61014f6102ad366004611321565b610745565b61016c610773565b6101b76102c836600461115c565b610780565b60006001600160e01b03198216632483248360e11b14806102f257506102f2826107be565b92915050565b60606000805461030790611354565b80601f016020809104026020016040519081016040528092919081815260200182805461033390611354565b80156103805780601f1061035557610100808354040283529160200191610380565b820191906000526020600020905b81548152906001019060200180831161036357829003601f168201915b5050505050905090565b60006103958261080e565b506000828152600460205260409020546001600160a01b03166102f2565b6103be828233610847565b5050565b6001600160a01b0382166103f157604051633250574960e11b8152600060048201526024015b60405180910390fd5b60006103fe838333610854565b9050836001600160a01b0316816001600160a01b03161461044c576040516364283d7b60e01b81526001600160a01b03808616600483015260248201849052821660448201526064016103e8565b50505050565b61046d83838360405180602001604052806000815250610581565b505050565b60006102f28261080e565b6009805461048a90611354565b80601f01602080910402602001604051908101604052809291908181526020018280546104b690611354565b80156105035780601f106104d857610100808354040283529160200191610503565b820191906000526020600020905b8154815290600101906020018083116104e657829003601f168201915b505050505081565b60006001600160a01b038216610537576040516322718ad960e21b8152600060048201526024016103e8565b506001600160a01b031660009081526003602052604090205490565b61055b61094d565b610565600061097a565b565b60606001805461030790611354565b6103be3383836109cc565b61058c8484846103c2565b61044c3385858585610a6b565b60606105a48261080e565b50600082815260066020526040812080546105be90611354565b80601f01602080910402602001604051908101604052809291908181526020018280546105ea90611354565b80156106375780601f1061060c57610100808354040283529160200191610637565b820191906000526020600020905b81548152906001019060200180831161061a57829003601f168201915b50505050509050600061065560408051602081019091526000815290565b90508051600003610667575092915050565b81511561069957808260405160200161068192919061138e565b60405160208183030381529060405292505050919050565b6106a284610b96565b949350505050565b60006106b461094d565b600880549060006106c4836113bd565b90915550506008546106d68482610c0b565b6106e08184610c25565b600a54604051630b62a86f60e11b81523060048201526001600160a01b03909116906316c550de90602401600060405180830381600087803b15801561072557600080fd5b505af1158015610739573d6000803e3d6000fd5b50929695505050505050565b6001600160a01b03918216600090815260056020908152604080832093909416825291909152205460ff1690565b600b805461048a90611354565b61078861094d565b6001600160a01b0381166107b257604051631e4fbdf760e01b8152600060048201526024016103e8565b6107bb8161097a565b50565b60006001600160e01b031982166380ac58cd60e01b14806107ef57506001600160e01b03198216635b5e139f60e01b145b806102f257506301ffc9a760e01b6001600160e01b03198316146102f2565b6000818152600260205260408120546001600160a01b0316806102f257604051637e27328960e01b8152600481018490526024016103e8565b61046d8383836001610c75565b6000828152600260205260408120546001600160a01b039081169083161561088157610881818486610d7b565b6001600160a01b038116156108bf5761089e600085600080610c75565b6001600160a01b038116600090815260036020526040902080546000190190555b6001600160a01b038516156108ee576001600160a01b0385166000908152600360205260409020805460010190555b60008481526002602052604080822080546001600160a01b0319166001600160a01b0389811691821790925591518793918516917fddf252ad1be2c89b69c2b068fc378daa952ba7f163c4a11628f55a4df523b3ef91a4949350505050565b6007546001600160a01b031633146105655760405163118cdaa760e01b81523360048201526024016103e8565b600780546001600160a01b038381166001600160a01b0319831681179093556040519116919082907f8be0079c531659141344cd1fd0a4f28419497f9722a3daafe3b4186f6b6457e090600090a35050565b6001600160a01b0382166109fe57604051630b61174360e31b81526001600160a01b03831660048201526024016103e8565b6001600160a01b03838116600081815260056020908152604080832094871680845294825291829020805460ff191686151590811790915591519182527f17307eab39ab6107e8899845ad3d59bd9653f200f220920489ca2b5937696c31910160405180910390a3505050565b6001600160a01b0383163b15610b8f57604051630a85bd0160e11b81526001600160a01b0384169063150b7a0290610aad9088908890879087906004016113e4565b6020604051808303816000875af1925050508015610ae8575060408051601f3d908101601f19168201909252610ae591810190611421565b60015b610b51573d808015610b16576040519150601f19603f3d011682016040523d82523d6000602084013e610b1b565b606091505b508051600003610b4957604051633250574960e11b81526001600160a01b03851660048201526024016103e8565b805181602001fd5b6001600160e01b03198116630a85bd0160e11b14610b8d57604051633250574960e11b81526001600160a01b03851660048201526024016103e8565b505b5050505050565b6060610ba18261080e565b506000610bb960408051602081019091526000815290565b90506000815111610bd95760405180602001604052806000815250610c04565b80610be384610ddf565b604051602001610bf492919061138e565b6040516020818303038152906040525b9392505050565b6103be828260405180602001604052806000815250610e72565b6000828152600660205260409020610c3d8282611485565b506040518281527ff8e1a15aba9398e019f0b49df1a4fde98ee17ae345cb5f6b5e2c27f5033e8ce79060200160405180910390a15050565b8080610c8957506001600160a01b03821615155b15610d4b576000610c998461080e565b90506001600160a01b03831615801590610cc55750826001600160a01b0316816001600160a01b031614155b8015610cd85750610cd68184610745565b155b15610d015760405163a9fbf51f60e01b81526001600160a01b03841660048201526024016103e8565b8115610d495783856001600160a01b0316826001600160a01b03167f8c5be1e5ebec7d5bd14f71427d1e84f3dd0314c0f7b2291e5b200ac8c7c3b92560405160405180910390a45b505b5050600090815260046020526040902080546001600160a01b0319166001600160a01b0392909216919091179055565b610d86838383610e8a565b61046d576001600160a01b038316610db457604051637e27328960e01b8152600481018290526024016103e8565b60405163177e802f60e01b81526001600160a01b0383166004820152602481018290526044016103e8565b60606000610dec83610eed565b600101905060008167ffffffffffffffff811115610e0c57610e0c6111b3565b6040519080825280601f01601f191660200182016040528015610e36576020820181803683370190505b5090508181016020015b600019016f181899199a1a9b1b9c1cb0b131b232b360811b600a86061a8153600a8504945084610e4057509392505050565b610e7c8383610fc5565b61046d336000858585610a6b565b60006001600160a01b038316158015906106a25750826001600160a01b0316846001600160a01b03161480610ec45750610ec48484610745565b806106a25750506000908152600460205260409020546001600160a01b03908116911614919050565b60008072184f03e93ff9f4daa797ed6e38ed64bf6a1f0160401b8310610f2c5772184f03e93ff9f4daa797ed6e38ed64bf6a1f0160401b830492506040015b6d04ee2d6d415b85acef81000000008310610f58576d04ee2d6d415b85acef8100000000830492506020015b662386f26fc100008310610f7657662386f26fc10000830492506010015b6305f5e1008310610f8e576305f5e100830492506008015b6127108310610fa257612710830492506004015b60648310610fb4576064830492506002015b600a83106102f25760010192915050565b6001600160a01b038216610fef57604051633250574960e11b8152600060048201526024016103e8565b6000610ffd83836000610854565b90506001600160a01b0381161561046d576040516339e3563760e11b8152600060048201526024016103e8565b6001600160e01b0319811681146107bb57600080fd5b60006020828403121561105257600080fd5b8135610c048161102a565b60005b83811015611078578181015183820152602001611060565b50506000910152565b6000815180845261109981602086016020860161105d565b601f01601f19169290920160200192915050565b602081526000610c046020830184611081565b6000602082840312156110d257600080fd5b5035919050565b80356001600160a01b03811681146110f057600080fd5b919050565b6000806040838503121561110857600080fd5b611111836110d9565b946020939093013593505050565b60008060006060848603121561113457600080fd5b61113d846110d9565b925061114b602085016110d9565b929592945050506040919091013590565b60006020828403121561116e57600080fd5b610c04826110d9565b6000806040838503121561118a57600080fd5b611193836110d9565b9150602083013580151581146111a857600080fd5b809150509250929050565b634e487b7160e01b600052604160045260246000fd5b60008067ffffffffffffffff8411156111e4576111e46111b3565b50604051601f19601f85018116603f0116810181811067ffffffffffffffff82111715611213576112136111b3565b60405283815290508082840185101561122b57600080fd5b83836020830137600060208583010152509392505050565b6000806000806080858703121561125957600080fd5b611262856110d9565b9350611270602086016110d9565b925060408501359150606085013567ffffffffffffffff81111561129357600080fd5b8501601f810187136112a457600080fd5b6112b3878235602084016111c9565b91505092959194509250565b600080604083850312156112d257600080fd5b6112db836110d9565b9150602083013567ffffffffffffffff8111156112f757600080fd5b8301601f8101851361130857600080fd5b611317858235602084016111c9565b9150509250929050565b6000806040838503121561133457600080fd5b61133d836110d9565b915061134b602084016110d9565b90509250929050565b600181811c9082168061136857607f821691505b60208210810361138857634e487b7160e01b600052602260045260246000fd5b50919050565b600083516113a081846020880161105d565b8351908301906113b481836020880161105d565b01949350505050565b6000600182016113dd57634e487b7160e01b600052601160045260246000fd5b5060010190565b6001600160a01b038581168252841660208201526040810183905260806060820181905260009061141790830184611081565b9695505050505050565b60006020828403121561143357600080fd5b8151610c048161102a565b601f82111561046d57806000526020600020601f840160051c810160208510156114655750805b601f840160051c820191505b81811015610b8f5760008155600101611471565b815167ffffffffffffffff81111561149f5761149f6111b3565b6114b3816114ad8454611354565b8461143e565b6020601f8211600181146114e757600083156114cf5750848201515b600019600385901b1c1916600184901b178455610b8f565b600084815260208120601f198516915b8281101561151757878501518255602094850194600190920191016114f7565b50848210156115355786840151600019600387901b60f8161c191681555b50505050600190811b0190555056fea26469706673582212204498a81d29b5666fef35c08ea88c56c9954d56450aa6d301eecd8f4425f7a62264736f6c634300081c0033",
  "linkReferences": {},
  "deployedLinkReferences": {}
}