{
  "_format": "hh-sol-artifact-1",
  "contractName": "NFTMarketplace",
  "sourceName": "contracts/NFTMarketplace.sol",
  "abi": [
    {
      "inputs": [],
      "stateMutability": "nonpayable",
      "type": "constructor"
    },
    {
      "inputs": [],
      "name": "EnforcedPause",
      "type": "error"
    },
    {
      "inputs": [],
      "name": "ExpectedPause",
      "type": "error"
    },
    {
      "inputs": [
        {
          "internalType": "address",
          "name": "owner",
          "type": "address"
        }
      ],
      "name": "OwnableInvalidOwner",
      "type": "error"
    },
    {
      "inputs": [
        {
          "internalType": "address",
          "name": "account",
          "type": "address"
        }
      ],
      "name": "OwnableUnauthorizedAccount",
      "type": "error"
    },
    {
      "inputs": [],
      "name": "ReentrancyGuardReentrantCall",
      "type": "error"
    },
    {
      "anonymous": false,
      "inputs": [
        {
          "indexed": false,
          "internalType": "string",
          "name": "category",
          "type": "string"
        }
      ],
      "name": "CategoryAdded",
      "type": "event"
    },
    {
      "anonymous": false,
      "inputs": [
        {
          "indexed": true,
          "internalType": "address",
          "name": "collectionAddress",
          "type": "address"
        },
        {
          "indexed": false,
          "internalType": "string",
          "name": "name",
          "type": "string"
        },
        {
          "indexed": false,
          "internalType": "string",
          "name": "symbol",
          "type": "string"
        },
        {
          "indexed": false,
          "internalType": "string",
          "name": "category",
          "type": "string"
        },
        {
          "indexed": true,
          "internalType": "address",
          "name": "owner",
          "type": "address"
        }
      ],
      "name": "CollectionCreated",
      "type": "event"
    },
    {
      "anonymous": false,
      "inputs": [
        {
          "indexed": true,
          "internalType": "address",
          "name": "collectionAddress",
          "type": "address"
        },
        {
          "indexed": true,
          "internalType": "uint256",
          "name": "tokenId",
          "type": "uint256"
        },
        {
          "indexed": false,
          "internalType": "address",
          "name": "seller",
          "type": "address"
        },
        {
          "indexed": false,
          "internalType": "address",
          "name": "owner",
          "type": "address"
        },
        {
          "indexed": false,
          "internalType": "uint256",
          "name": "price",
          "type": "uint256"
        }
      ],
      "name": "MarketItemCreated",
      "type": "event"
    },
    {
      "anonymous": false,
      "inputs": [
        {
          "indexed": true,
          "internalType": "address",
          "name": "collectionAddress",
          "type": "address"
        },
        {
          "indexed": true,
          "internalType": "uint256",
          "name": "tokenId",
          "type": "uint256"
        },
        {
          "indexed": false,
          "internalType": "address",
          "name": "seller",
          "type": "address"
        },
        {
          "indexed": false,
          "internalType": "address",
          "name": "owner",
          "type": "address"
        },
        {
          "indexed": false,
          "internalType": "uint256",
          "name": "price",
          "type": "uint256"
        }
      ],
      "name": "MarketItemSold",
      "type": "event"
    },
    {
      "anonymous": false,
      "inputs": [
        {
          "indexed": true,
          "internalType": "address",
          "name": "collectionAddress",
          "type": "address"
        },
        {
          "indexed": true,
          "internalType": "address",
          "name": "buyer",
          "type": "address"
        },
        {
          "indexed": false,
          "internalType": "uint256",
          "name": "price",
          "type": "uint256"
        }
      ],
      "name": "OfferCreated",
      "type": "event"
    },
    {
      "anonymous": false,
      "inputs": [
        {
          "indexed": true,
          "internalType": "address",
          "name": "previousOwner",
          "type": "address"
        },
        {
          "indexed": true,
          "internalType": "address",
          "name": "newOwner",
          "type": "address"
        }
      ],
      "name": "OwnershipTransferred",
      "type": "event"
    },
    {
      "anonymous": false,
      "inputs": [
        {
          "indexed": false,
          "internalType": "address",
          "name": "account",
          "type": "address"
        }
      ],
      "name": "Paused",
      "type": "event"
    },
    {
      "anonymous": false,
      "inputs": [
        {
          "indexed": false,
          "internalType": "address",
          "name": "account",
          "type": "address"
        }
      ],
      "name": "Unpaused",
      "type": "event"
    },
    {
      "inputs": [
        {
          "internalType": "string",
          "name": "category",
          "type": "string"
        }
      ],
      "name": "addCategory",
      "outputs": [],
      "stateMutability": "nonpayable",
      "type": "function"
    },
    {
      "inputs": [
        {
          "internalType": "address",
          "name": "collectionAddress",
          "type": "address"
        },
        {
          "internalType": "uint256",
          "name": "tokenId",
          "type": "uint256"
        },
        {
          "internalType": "uint256",
          "name": "startingPrice",
          "type": "uint256"
        },
        {
          "internalType": "uint256",
          "name": "duration",
          "type": "uint256"
        }
      ],
      "name": "createAuction",
      "outputs": [],
      "stateMutability": "nonpayable",
      "type": "function"
    },
    {
      "inputs": [
        {
          "internalType": "string",
          "name": "name",
          "type": "string"
        },
        {
          "internalType": "string",
          "name": "symbol",
          "type": "string"
        },
        {
          "internalType": "string",
          "name": "baseURI",
          "type": "string"
        },
        {
          "internalType": "string",
          "name": "category",
          "type": "string"
        }
      ],
      "name": "createCollection",
      "outputs": [
        {
          "internalType": "address",
          "name": "",
          "type": "address"
        }
      ],
      "stateMutability": "nonpayable",
      "type": "function"
    },
    {
      "inputs": [
        {
          "internalType": "address",
          "name": "collectionAddress",
          "type": "address"
        },
        {
          "internalType": "uint256",
          "name": "tokenId",
          "type": "uint256"
        },
        {
          "internalType": "uint256",
          "name": "price",
          "type": "uint256"
        }
      ],
      "name": "createMarketItem",
      "outputs": [],
      "stateMutability": "payable",
      "type": "function"
    },
    {
      "inputs": [
        {
          "internalType": "address",
          "name": "collectionAddress",
          "type": "address"
        },
        {
          "internalType": "uint256",
          "name": "tokenId",
          "type": "uint256"
        }
      ],
      "name": "createMarketSale",
      "outputs": [],
      "stateMutability": "payable",
      "type": "function"
    },
    {
      "inputs": [
        {
          "internalType": "address",
          "name": "collectionAddress",
          "type": "address"
        }
      ],
      "name": "fetchCollectionDetails",
      "outputs": [
        {
          "components": [
            {
              "components": [
                {
                  "internalType": "address",
                  "name": "collectionAddress",
                  "type": "address"
                },
                {
                  "internalType": "string",
                  "name": "name",
                  "type": "string"
                },
                {
                  "internalType": "string",
                  "name": "symbol",
                  "type": "string"
                },
                {
                  "internalType": "string",
                  "name": "category",
                  "type": "string"
                },
                {
                  "internalType": "address",
                  "name": "owner",
                  "type": "address"
                },
                {
                  "internalType": "bool",
                  "name": "isActive",
                  "type": "bool"
                },
                {
                  "internalType": "uint256",
                  "name": "createdAt",
                  "type": "uint256"
                },
                {
                  "internalType": "string",
                  "name": "baseURI",
                  "type": "string"
                },
                {
                  "internalType": "uint256",
                  "name": "totalSupply",
                  "type": "uint256"
                }
              ],
              "internalType": "struct NFTMarketplace.Collection",
              "name": "basic",
              "type": "tuple"
            },
            {
              "internalType": "uint256",
              "name": "floorPrice",
              "type": "uint256"
            },
            {
              "internalType": "uint256",
              "name": "totalVolume",
              "type": "uint256"
            },
            {
              "internalType": "uint256",
              "name": "ownerCount",
              "type": "uint256"
            }
          ],
          "internalType": "struct NFTMarketplace.CollectionDetails",
          "name": "",
          "type": "tuple"
        }
      ],
      "stateMutability": "view",
      "type": "function"
    },
    {
      "inputs": [
        {
          "internalType": "address",
          "name": "collectionAddress",
          "type": "address"
        }
      ],
      "name": "fetchCollectionItems",
      "outputs": [
        {
          "components": [
            {
              "internalType": "uint256",
              "name": "tokenId",
              "type": "uint256"
            },
            {
              "internalType": "address",
              "name": "nftContract",
              "type": "address"
            },
            {
              "internalType": "address",
              "name": "seller",
              "type": "address"
            },
            {
              "internalType": "address",
              "name": "owner",
              "type": "address"
            },
            {
              "internalType": "uint256",
              "name": "price",
              "type": "uint256"
            },
            {
              "internalType": "bool",
              "name": "isOnSale",
              "type": "bool"
            },
            {
              "internalType": "uint256",
              "name": "auctionEndTime",
              "type": "uint256"
            },
            {
              "internalType": "address",
              "name": "highestBidder",
              "type": "address"
            },
            {
              "internalType": "uint256",
              "name": "highestBid",
              "type": "uint256"
            },
            {
              "internalType": "bool",
              "name": "isAuction",
              "type": "bool"
            },
            {
              "internalType": "string",
              "name": "tokenURI",
              "type": "string"
            }
          ],
          "internalType": "struct NFTMarketplace.MarketItem[]",
          "name": "",
          "type": "tuple[]"
        }
      ],
      "stateMutability": "view",
      "type": "function"
    },
    {
      "inputs": [],
      "name": "fetchCollections",
      "outputs": [
        {
          "components": [
            {
              "components": [
                {
                  "internalType": "address",
                  "name": "collectionAddress",
                  "type": "address"
                },
                {
                  "internalType": "string",
                  "name": "name",
                  "type": "string"
                },
                {
                  "internalType": "string",
                  "name": "symbol",
                  "type": "string"
                },
                {
                  "internalType": "string",
                  "name": "category",
                  "type": "string"
                },
                {
                  "internalType": "address",
                  "name": "owner",
                  "type": "address"
                },
                {
                  "internalType": "bool",
                  "name": "isActive",
                  "type": "bool"
                },
                {
                  "internalType": "uint256",
                  "name": "createdAt",
                  "type": "uint256"
                },
                {
                  "internalType": "string",
                  "name": "baseURI",
                  "type": "string"
                },
                {
                  "internalType": "uint256",
                  "name": "totalSupply",
                  "type": "uint256"
                }
              ],
              "internalType": "struct NFTMarketplace.Collection",
              "name": "basic",
              "type": "tuple"
            },
            {
              "internalType": "uint256",
              "name": "floorPrice",
              "type": "uint256"
            },
            {
              "internalType": "uint256",
              "name": "totalVolume",
              "type": "uint256"
            },
            {
              "internalType": "uint256",
              "name": "ownerCount",
              "type": "uint256"
            }
          ],
          "internalType": "struct NFTMarketplace.CollectionDetails[]",
          "name": "",
          "type": "tuple[]"
        }
      ],
      "stateMutability": "view",
      "type": "function"
    },
    {
      "inputs": [
        {
          "internalType": "string",
          "name": "category",
          "type": "string"
        }
      ],
      "name": "fetchCollectionsByCategory",
      "outputs": [
        {
          "components": [
            {
              "internalType": "address",
              "name": "collectionAddress",
              "type": "address"
            },
            {
              "internalType": "string",
              "name": "name",
              "type": "string"
            },
            {
              "internalType": "string",
              "name": "symbol",
              "type": "string"
            },
            {
              "internalType": "string",
              "name": "category",
              "type": "string"
            },
            {
              "internalType": "address",
              "name": "owner",
              "type": "address"
            },
            {
              "internalType": "bool",
              "name": "isActive",
              "type": "bool"
            },
            {
              "internalType": "uint256",
              "name": "createdAt",
              "type": "uint256"
            },
            {
              "internalType": "string",
              "name": "baseURI",
              "type": "string"
            },
            {
              "internalType": "uint256",
              "name": "totalSupply",
              "type": "uint256"
            }
          ],
          "internalType": "struct NFTMarketplace.Collection[]",
          "name": "",
          "type": "tuple[]"
        }
      ],
      "stateMutability": "view",
      "type": "function"
    },
    {
      "inputs": [],
      "name": "getCategories",
      "outputs": [
        {
          "internalType": "string[]",
          "name": "",
          "type": "string[]"
        }
      ],
      "stateMutability": "view",
      "type": "function"
    },
    {
      "inputs": [
        {
          "internalType": "address",
          "name": "collectionAddress",
          "type": "address"
        }
      ],
      "name": "getCollectionDetails",
      "outputs": [
        {
          "components": [
            {
              "internalType": "address",
              "name": "collectionAddress",
              "type": "address"
            },
            {
              "internalType": "string",
              "name": "name",
              "type": "string"
            },
            {
              "internalType": "string",
              "name": "symbol",
              "type": "string"
            },
            {
              "internalType": "string",
              "name": "category",
              "type": "string"
            },
            {
              "internalType": "address",
              "name": "owner",
              "type": "address"
            },
            {
              "internalType": "bool",
              "name": "isActive",
              "type": "bool"
            },
            {
              "internalType": "uint256",
              "name": "createdAt",
              "type": "uint256"
            },
            {
              "internalType": "string",
              "name": "baseURI",
              "type": "string"
            },
            {
              "internalType": "uint256",
              "name": "totalSupply",
              "type": "uint256"
            }
          ],
          "internalType": "struct NFTMarketplace.Collection",
          "name": "",
          "type": "tuple"
        }
      ],
      "stateMutability": "view",
      "type": "function"
    },
    {
      "inputs": [],
      "name": "listingFee",
      "outputs": [
        {
          "internalType": "uint256",
          "name": "",
          "type": "uint256"
        }
      ],
      "stateMutability": "view",
      "type": "function"
    },
    {
      "inputs": [
        {
          "internalType": "address",
          "name": "collectionAddress",
          "type": "address"
        },
        {
          "internalType": "uint256",
          "name": "tokenId",
          "type": "uint256"
        }
      ],
      "name": "makeOffer",
      "outputs": [],
      "stateMutability": "payable",
      "type": "function"
    },
    {
      "inputs": [],
      "name": "owner",
      "outputs": [
        {
          "internalType": "address",
          "name": "",
          "type": "address"
        }
      ],
      "stateMutability": "view",
      "type": "function"
    },
    {
      "inputs": [],
      "name": "paused",
      "outputs": [
        {
          "internalType": "bool",
          "name": "",
          "type": "bool"
        }
      ],
      "stateMutability": "view",
      "type": "function"
    },
    {
      "inputs": [
        {
          "internalType": "address",
          "name": "collectionAddress",
          "type": "address"
        },
        {
          "internalType": "uint256",
          "name": "tokenId",
          "type": "uint256"
        }
      ],
      "name": "placeBid",
      "outputs": [],
      "stateMutability": "payable",
      "type": "function"
    },
    {
      "inputs": [],
      "name": "renounceOwnership",
      "outputs": [],
      "stateMutability": "nonpayable",
      "type": "function"
    },
    {
      "inputs": [
        {
          "internalType": "address",
          "name": "newOwner",
          "type": "address"
        }
      ],
      "name": "transferOwnership",
      "outputs": [],
      "stateMutability": "nonpayable",
      "type": "function"
    }
  ],
  "bytecode": "0x60806040526601c6bf52634000600b5534801561001b57600080fd5b5060016000819055805460ff19169055338061005257604051631e4fbdf760e01b8152600060048201526024015b60405180910390fd5b61005b81610149565b50604080518082019091526003815262105c9d60ea1b602082015261007f906101a3565b60408051808201909152600681526547616d696e6760d01b60208201526100a5906101a3565b60408051808201909152600b81526a4d656d626572736869707360a81b60208201526100d0906101a3565b6040805180820190915260058152644d7573696360d81b60208201526100f5906101a3565b6040805180820190915260048152635046507360e01b6020820152610119906101a3565b60408051808201909152600b81526a50686f746f67726170687960a81b6020820152610144906101a3565b6104c8565b600180546001600160a01b03838116610100818102610100600160a81b031985161790945560405193909204169182907f8be0079c531659141344cd1fd0a4f28419497f9722a3daafe3b4186f6b6457e090600090a35050565b6101ab6102c3565b6003816040516101bb919061031c565b9081526040519081900360200190205460ff161561021b5760405162461bcd60e51b815260206004820152601760248201527f43617465676f727920616c7265616479206578697374730000000000000000006044820152606401610049565b600280546001810182556000919091527f405787fa12a823e0f2b7631cc41b3ba8828b3321ca811111fa75cd3aa3bb5ace0161025782826103d7565b50600160038260405161026a919061031c565b908152604051908190036020018120805492151560ff19909316929092179091557fdb74f4d32b97da9b3b9b907aa3fd5df938c018e13fe235d9883d0a0836c6bddb906102b8908390610495565b60405180910390a150565b6001546001600160a01b036101009091041633146102f65760405163118cdaa760e01b8152336004820152602401610049565b565b60005b838110156103135781810151838201526020016102fb565b50506000910152565b6000825161032e8184602087016102f8565b9190910192915050565b634e487b7160e01b600052604160045260246000fd5b600181811c9082168061036257607f821691505b60208210810361038257634e487b7160e01b600052602260045260246000fd5b50919050565b601f8211156103d257806000526020600020601f840160051c810160208510156103af5750805b601f840160051c820191505b818110156103cf57600081556001016103bb565b50505b505050565b81516001600160401b038111156103f0576103f0610338565b610404816103fe845461034e565b84610388565b6020601f82116001811461043857600083156104205750848201515b600019600385901b1c1916600184901b1784556103cf565b600084815260208120601f198516915b828110156104685787850151825560209485019460019092019101610448565b50848210156104865786840151600019600387901b60f8161c191681555b50505050600190811b01905550565b60208152600082518060208401526104b48160408501602087016102f8565b601f01601f19169190910160400192915050565b614810806104d76000396000f3fe6080604052600436106101095760003560e01c80638da5cb5b11610095578063d2ead4cb11610064578063d2ead4cb146102ce578063d98b9bb5146102f0578063ed12099714610303578063f2fde38b14610330578063fa1592781461035057600080fd5b80638da5cb5b14610244578063b2a4706e1461027b578063bc0019ca1461028e578063c23b139e146102bb57600080fd5b806358eb2df5116100dc57806358eb2df5146101b55780635c975abb146101c857806361beb1d7146101eb5780636a1b7ecc1461020b578063715018a61461022f57600080fd5b80632e0dcbf71461010e57806334deb86d1461013057806337c883b8146101665780634db0412c14610193575b600080fd5b34801561011a57600080fd5b5061012e6101293660046125d3565b610370565b005b34801561013c57600080fd5b5061015061014b366004612624565b610495565b60405161015d919061275f565b60405180910390f35b34801561017257600080fd5b50610186610181366004612624565b6107a0565b60405161015d9190612772565b34801561019f57600080fd5b506101a8610ac2565b60405161015d91906128a8565b61012e6101c3366004612901565b610b9b565b3480156101d457600080fd5b5060015460ff16604051901515815260200161015d565b3480156101f757600080fd5b5061012e610206366004612934565b610fb1565b34801561021757600080fd5b50610221600b5481565b60405190815260200161015d565b34801561023b57600080fd5b5061012e6110b3565b34801561025057600080fd5b5060015461010090046001600160a01b03165b6040516001600160a01b03909116815260200161015d565b61012e61028936600461296d565b6110c7565b34801561029a57600080fd5b506102ae6102a9366004612624565b611293565b60405161015d91906129d6565b61012e6102c936600461296d565b6115ce565b3480156102da57600080fd5b506102e36117e6565b60405161015d91906129e9565b61012e6102fe36600461296d565b6118b0565b34801561030f57600080fd5b5061032361031e3660046125d3565b611a2b565b60405161015d9190612a42565b34801561033c57600080fd5b5061012e61034b366004612624565b611ea0565b34801561035c57600080fd5b5061026361036b366004612a9b565b611ede565b61037861218d565b6003816040516103889190612b5b565b9081526040519081900360200190205460ff16156103ed5760405162461bcd60e51b815260206004820152601760248201527f43617465676f727920616c72656164792065786973747300000000000000000060448201526064015b60405180910390fd5b600280546001810182556000919091527f405787fa12a823e0f2b7631cc41b3ba8828b3321ca811111fa75cd3aa3bb5ace016104298282612bff565b50600160038260405161043c9190612b5b565b908152604051908190036020018120805492151560ff19909316929092179091557fdb74f4d32b97da9b3b9b907aa3fd5df938c018e13fe235d9883d0a0836c6bddb9061048a908390612cbe565b60405180910390a150565b61049d612473565b6001600160a01b03821660009081526004602081905260409091200154600160a01b900460ff166104e05760405162461bcd60e51b81526004016103e490612cd1565b6001600160a01b0380831660009081526004602090815260409182902082516101208101909352805490931682526001830180549293929184019161052490612b77565b80601f016020809104026020016040519081016040528092919081815260200182805461055090612b77565b801561059d5780601f106105725761010080835404028352916020019161059d565b820191906000526020600020905b81548152906001019060200180831161058057829003601f168201915b505050505081526020016002820180546105b690612b77565b80601f01602080910402602001604051908101604052809291908181526020018280546105e290612b77565b801561062f5780601f106106045761010080835404028352916020019161062f565b820191906000526020600020905b81548152906001019060200180831161061257829003601f168201915b5050505050815260200160038201805461064890612b77565b80601f016020809104026020016040519081016040528092919081815260200182805461067490612b77565b80156106c15780601f10610696576101008083540402835291602001916106c1565b820191906000526020600020905b8154815290600101906020018083116106a457829003601f168201915b505050918352505060048201546001600160a01b0381166020830152600160a01b900460ff16151560408201526005820154606082015260068201805460809092019161070d90612b77565b80601f016020809104026020016040519081016040528092919081815260200182805461073990612b77565b80156107865780601f1061075b57610100808354040283529160200191610786565b820191906000526020600020905b81548152906001019060200180831161076957829003601f168201915b505050505081526020016007820154815250509050919050565b6001600160a01b03811660009081526004602081905260409091200154606090600160a01b900460ff166107e65760405162461bcd60e51b81526004016103e490612cd1565b6001600160a01b03821660009081526008602090815260408083208054825181850281018501909352808352919290919083018282801561084657602002820191906000526020600020905b815481526020019060010190808311610832575b5050505050905060008151905060008167ffffffffffffffff81111561086e5761086e61250e565b60405190808252806020026020018201604052801561092457816020015b6109116040518061016001604052806000815260200160006001600160a01b0316815260200160006001600160a01b0316815260200160006001600160a01b03168152602001600081526020016000151581526020016000815260200160006001600160a01b0316815260200160008152602001600015158152602001606081525090565b81526020019060019003908161088c5790505b50905060005b82811015610ab957600084828151811061094657610946612d08565b6020908102919091018101516001600160a01b03808a16600090815260078085526040808320858452865291829020825161016081018452815481526001820154851696810196909652600281015484169286019290925260038201548316606086015260048201546080860152600582015460ff908116151560a0870152600683015460c08701529082015490921660e0850152600881015461010085015260098101549091161515610120840152600a81018054929450909161014084019190610a1190612b77565b80601f0160208091040260200160405190810160405280929190818152602001828054610a3d90612b77565b8015610a8a5780601f10610a5f57610100808354040283529160200191610a8a565b820191906000526020600020905b815481529060010190602001808311610a6d57829003601f168201915b505050505081525050838381518110610aa557610aa5612d08565b60209081029190910101525060010161092a565b50949350505050565b60606002805480602002602001604051908101604052809291908181526020016000905b82821015610b92578382906000526020600020018054610b0590612b77565b80601f0160208091040260200160405190810160405280929190818152602001828054610b3190612b77565b8015610b7e5780601f10610b5357610100808354040283529160200191610b7e565b820191906000526020600020905b815481529060010190602001808311610b6157829003601f168201915b505050505081526020019060010190610ae6565b50505050905090565b610ba36121c0565b6001600160a01b03831660009081526004602081905260409091200154600160a01b900460ff16610be65760405162461bcd60e51b81526004016103e490612cd1565b60008111610c365760405162461bcd60e51b815260206004820152601f60248201527f5072696365206d7573742062652067726561746572207468616e207a65726f0060448201526064016103e4565b600b543414610c7e5760405162461bcd60e51b81526020600482015260146024820152734d75737420706179206c697374696e672066656560601b60448201526064016103e4565b60405163c87b56dd60e01b8152600481018390526000906001600160a01b0385169063c87b56dd90602401600060405180830381865afa158015610cc6573d6000803e3d6000fd5b505050506040513d6000823e601f3d908101601f19168201604052610cee9190810190612d1e565b9050604051806101600160405280848152602001856001600160a01b03168152602001336001600160a01b0316815260200160006001600160a01b031681526020018381526020016001151581526020016000815260200160006001600160a01b03168152602001600081526020016000151581526020018281525060076000866001600160a01b03166001600160a01b0316815260200190815260200160002060008581526020019081526020016000206000820151816000015560208201518160010160006101000a8154816001600160a01b0302191690836001600160a01b0316021790555060408201518160020160006101000a8154816001600160a01b0302191690836001600160a01b0316021790555060608201518160030160006101000a8154816001600160a01b0302191690836001600160a01b031602179055506080820151816004015560a08201518160050160006101000a81548160ff02191690831515021790555060c0820151816006015560e08201518160070160006101000a8154816001600160a01b0302191690836001600160a01b0316021790555061010082015181600801556101208201518160090160006101000a81548160ff02191690831515021790555061014082015181600a019081610ed49190612bff565b5050506001600160a01b038416600081815260086020908152604080832080546001810182559084529190922001859055516323b872dd60e01b81526323b872dd90610f2890339030908890600401612d95565b600060405180830381600087803b158015610f4257600080fd5b505af1158015610f56573d6000803e3d6000fd5b5050505082846001600160a01b03167f4e87d65c4baed28b185aa1f2f583850f4140e7ee01ee27c4e06f622d085b1bfc33600086604051610f9993929190612d95565b60405180910390a350610fac6001600055565b505050565b610fb96121c0565b6001600160a01b0380851660009081526007602090815260408083208784529091529020600281015490911633146110335760405162461bcd60e51b815260206004820152601d60248201527f4f6e6c792073656c6c65722063616e2073746172742061756374696f6e00000060448201526064016103e4565b600981015460ff161561107d5760405162461bcd60e51b815260206004820152601260248201527120b63932b0b23c9037b71030bab1ba34b7b760711b60448201526064016103e4565b60098101805460ff191660011790556004810183905561109d8242612db9565b6006909101556110ad6001600055565b50505050565b6110bb61218d565b6110c560006121ea565b565b6110cf6121c0565b6001600160a01b03821660009081526007602090815260408083208484529091529020600581015460ff166111395760405162461bcd60e51b815260206004820152601060248201526f4974656d206e6f74206f6e2073616c6560801b60448201526064016103e4565b600981015460ff16156111835760405162461bcd60e51b815260206004820152601260248201527124ba32b69034b99037b71030bab1ba34b7b760711b60448201526064016103e4565b600034116111d35760405162461bcd60e51b815260206004820152601f60248201527f4f66666572206d7573742062652067726561746572207468616e207a65726f0060448201526064016103e4565b6001600160a01b038381166000818152600a6020908152604080832087845282528083208151606081018352338082523482860181815242848701908152855460018082018855968a52988890209451600390990290940180546001600160a01b03191698909a1697909717895595519288019290925551600290960195909555519182527f1819ba14baa7481a7b236a7888df8e0a32271ee6d12514a8c92da9f9bba73a6791015b60405180910390a35061128f6001600055565b5050565b61129b6124d3565b6001600160a01b03821660009081526004602081905260409091200154600160a01b900460ff166112de5760405162461bcd60e51b81526004016103e490612cd1565b6001600160a01b038083166000908152600460209081526040808320815161012081019092528054909416815260018401805493949193919284019161132390612b77565b80601f016020809104026020016040519081016040528092919081815260200182805461134f90612b77565b801561139c5780601f106113715761010080835404028352916020019161139c565b820191906000526020600020905b81548152906001019060200180831161137f57829003601f168201915b505050505081526020016002820180546113b590612b77565b80601f01602080910402602001604051908101604052809291908181526020018280546113e190612b77565b801561142e5780601f106114035761010080835404028352916020019161142e565b820191906000526020600020905b81548152906001019060200180831161141157829003601f168201915b5050505050815260200160038201805461144790612b77565b80601f016020809104026020016040519081016040528092919081815260200182805461147390612b77565b80156114c05780601f10611495576101008083540402835291602001916114c0565b820191906000526020600020905b8154815290600101906020018083116114a357829003601f168201915b505050918352505060048201546001600160a01b0381166020830152600160a01b900460ff16151560408201526005820154606082015260068201805460809092019161150c90612b77565b80601f016020809104026020016040519081016040528092919081815260200182805461153890612b77565b80156115855780601f1061155a57610100808354040283529160200191611585565b820191906000526020600020905b81548152906001019060200180831161156857829003601f168201915b50505050508152602001600782015481525050905060006115a584612244565b604080516080810182529384526020840191909152600090830181905260608301525092915050565b6115d66121c0565b6001600160a01b03821660009081526007602090815260408083208484529091529020600581015460ff166116435760405162461bcd60e51b81526020600482015260136024820152724974656d206973206e6f74206f6e2073616c6560681b60448201526064016103e4565b600981015460ff161561168d5760405162461bcd60e51b815260206004820152601260248201527124ba32b69034b99037b71030bab1ba34b7b760711b60448201526064016103e4565b806004015434146116e05760405162461bcd60e51b815260206004820152601e60248201527f506c65617365207375626d6974207468652061736b696e67207072696365000060448201526064016103e4565b60058101805460ff191690556003810180546001600160a01b0319163317905560028101546040516001600160a01b0391909116903480156108fc02916000818181858888f1935050505015801561173c573d6000803e3d6000fd5b506040516323b872dd60e01b81526001600160a01b038416906323b872dd9061176d90309033908790600401612d95565b600060405180830381600087803b15801561178757600080fd5b505af115801561179b573d6000803e3d6000fd5b50505050600281015460405183916001600160a01b03868116927f51ae5913afbfcae9abfe6b7888d00fe117a1b0e81f6c88017bccd98b6b4877d59261127c92169033903490612d95565b60055460609060008167ffffffffffffffff8111156118075761180761250e565b60405190808252806020026020018201604052801561184057816020015b61182d6124d3565b8152602001906001900390816118255790505b50905060005b828110156118a95760006005828154811061186357611863612d08565b6000918252602090912001546001600160a01b0316905061188381611293565b83838151811061189557611895612d08565b602090810291909101015250600101611846565b5092915050565b6118b86121c0565b6001600160a01b03821660009081526007602090815260408083208484529091529020600981015460ff166119205760405162461bcd60e51b815260206004820152600e60248201526d2737ba1030b71030bab1ba34b7b760911b60448201526064016103e4565b806006015442106119635760405162461bcd60e51b815260206004820152600d60248201526c105d58dd1a5bdb88195b991959609a1b60448201526064016103e4565b806008015434116119a45760405162461bcd60e51b815260206004820152600b60248201526a42696420746f6f206c6f7760a81b60448201526064016103e4565b60078101546001600160a01b031615611a065760088101546001600160a01b0380851660009081526009602090815260408083208784528252808320600787015490941683529290529081208054909190611a00908490612db9565b90915550505b6007810180546001600160a01b031916331790553460089091015561128f6001600055565b6060600382604051611a3d9190612b5b565b9081526040519081900360200190205460ff16611a9c5760405162461bcd60e51b815260206004820152601760248201527f43617465676f727920646f6573206e6f7420657869737400000000000000000060448201526064016103e4565b6000600683604051611aae9190612b5b565b9081526040805191829003602090810183208054808302850183019093528284529190830182828015611b0a57602002820191906000526020600020905b81546001600160a01b03168152600190910190602001808311611aec575b505050505090506000815167ffffffffffffffff811115611b2d57611b2d61250e565b604051908082528060200260200182016040528015611b6657816020015b611b53612473565b815260200190600190039081611b4b5790505b50905060005b8251811015611e985760046000848381518110611b8b57611b8b612d08565b60200260200101516001600160a01b03166001600160a01b03168152602001908152602001600020604051806101200160405290816000820160009054906101000a90046001600160a01b03166001600160a01b03166001600160a01b03168152602001600182018054611bfe90612b77565b80601f0160208091040260200160405190810160405280929190818152602001828054611c2a90612b77565b8015611c775780601f10611c4c57610100808354040283529160200191611c77565b820191906000526020600020905b815481529060010190602001808311611c5a57829003601f168201915b50505050508152602001600282018054611c9090612b77565b80601f0160208091040260200160405190810160405280929190818152602001828054611cbc90612b77565b8015611d095780601f10611cde57610100808354040283529160200191611d09565b820191906000526020600020905b815481529060010190602001808311611cec57829003601f168201915b50505050508152602001600382018054611d2290612b77565b80601f0160208091040260200160405190810160405280929190818152602001828054611d4e90612b77565b8015611d9b5780601f10611d7057610100808354040283529160200191611d9b565b820191906000526020600020905b815481529060010190602001808311611d7e57829003601f168201915b505050918352505060048201546001600160a01b0381166020830152600160a01b900460ff161515604082015260058201546060820152600682018054608090920191611de790612b77565b80601f0160208091040260200160405190810160405280929190818152602001828054611e1390612b77565b8015611e605780601f10611e3557610100808354040283529160200191611e60565b820191906000526020600020905b815481529060010190602001808311611e4357829003601f168201915b50505050508152602001600782015481525050828281518110611e8557611e85612d08565b6020908102919091010152600101611b6c565b509392505050565b611ea861218d565b6001600160a01b038116611ed257604051631e4fbdf760e01b8152600060048201526024016103e4565b611edb816121ea565b50565b6000600382604051611ef09190612b5b565b9081526040519081900360200190205460ff16611f425760405162461bcd60e51b815260206004820152601060248201526f496e76616c69642063617465676f727960801b60448201526064016103e4565b60003390506000868686308786604051611f5b90612501565b611f6a96959493929190612de0565b604051809103906000f080158015611f86573d6000803e3d6000fd5b5060408051610120810182526001600160a01b0383811680835260208084018d81528486018d9052606085018b90528884166080860152600160a086018190524260c087015260e086018d905260006101008701819052938452600490925294909120835181546001600160a01b03191693169290921782559251939450849391929091908201906120189082612bff565b506040820151600282019061202d9082612bff565b50606082015160038201906120429082612bff565b50608082015160048201805460a08501511515600160a01b026001600160a81b03199091166001600160a01b039093169290921791909117905560c0820151600582015560e0820151600682019061209a9082612bff565b506101009190910151600790910155600580546001810182556000919091527f036b6384b5eca791c62761152d0c79bb0604c104a5fb6f4eb0703f3154bb3db00180546001600160a01b0319166001600160a01b038316179055604051600690612105908790612b5b565b9081526040519081900360209081018220805460018101825560009182529190200180546001600160a01b038085166001600160a01b03199092168217909255908516917f71e52b82baaa01cac022ab5ea5841b43558ed92065bcd5b35d2904226c03f1a59061217a908c908c908b90612e58565b60405180910390a3979650505050505050565b6001546001600160a01b036101009091041633146110c55760405163118cdaa760e01b81523360048201526024016103e4565b6002600054036121e357604051633ee5aeb560e01b815260040160405180910390fd5b6002600055565b600180546001600160a01b03838116610100818102610100600160a81b031985161790945560405193909204169182907f8be0079c531659141344cd1fd0a4f28419497f9722a3daafe3b4186f6b6457e090600090a35050565b6001600160a01b0381166000908152600860209081526040808320805482518185028101850190935280835284938301828280156122a157602002820191906000526020600020905b81548152602001906001019080831161228d575b505050505090506000600019905060005b8251811015612458576001600160a01b0385166000908152600760205260408120845182908690859081106122e9576122e9612d08565b60209081029190910181015182528181019290925260409081016000208151610160810183528154815260018201546001600160a01b0390811694820194909452600282015484169281019290925260038101548316606083015260048101546080830152600581015460ff908116151560a0840152600682015460c0840152600782015490931660e0830152600881015461010083015260098101549092161515610120820152600a82018054919291610140840191906123aa90612b77565b80601f01602080910402602001604051908101604052809291908181526020018280546123d690612b77565b80156124235780601f106123f857610100808354040283529160200191612423565b820191906000526020600020905b81548152906001019060200180831161240657829003601f168201915b50505050508152505090508060a0015180156124425750828160800151105b1561244f57806080015192505b506001016122b2565b506000198114612468578061246b565b60005b949350505050565b60405180610120016040528060006001600160a01b0316815260200160608152602001606081526020016060815260200160006001600160a01b031681526020016000151581526020016000815260200160608152602001600081525090565b60405180608001604052806124e6612473565b81526020016000815260200160008152602001600081525090565b61193f80612e9c83390190565b634e487b7160e01b600052604160045260246000fd5b604051601f8201601f1916810167ffffffffffffffff8111828210171561254d5761254d61250e565b604052919050565b600067ffffffffffffffff82111561256f5761256f61250e565b50601f01601f191660200190565b600082601f83011261258e57600080fd5b81356125a161259c82612555565b612524565b8181528460208386010111156125b657600080fd5b816020850160208301376000918101602001919091529392505050565b6000602082840312156125e557600080fd5b813567ffffffffffffffff8111156125fc57600080fd5b61246b8482850161257d565b80356001600160a01b038116811461261f57600080fd5b919050565b60006020828403121561263657600080fd5b61263f82612608565b9392505050565b60005b83811015612661578181015183820152602001612649565b50506000910152565b60008151808452612682816020860160208601612646565b601f01601f19169290920160200192915050565b80516001600160a01b031682526000602082015161012060208501526126c061012085018261266a565b9050604083015184820360408601526126d9828261266a565b915050606083015184820360608601526126f3828261266a565b915050608083015161271060808601826001600160a01b03169052565b5060a083015161272460a086018215159052565b5060c083015160c085015260e083015184820360e0860152612746828261266a565b9150506101008301516101008501528091505092915050565b60208152600061263f6020830184612696565b6000602082016020835280845180835260408501915060408160051b86010192506020860160005b8281101561289c57603f1987860301845281518051865260208101516127cb60208801826001600160a01b03169052565b5060408101516127e660408801826001600160a01b03169052565b50606081015161280160608801826001600160a01b03169052565b506080810151608087015260a081015161281f60a088018215159052565b5060c081015160c087015260e081015161284460e08801826001600160a01b03169052565b5061010081015161010087015261012081015161286661012088018215159052565b50610140810151905061016061014087015261288661016087018261266a565b955050602093840193919091019060010161279a565b50929695505050505050565b6000602082016020835280845180835260408501915060408160051b86010192506020860160005b8281101561289c57603f198786030184526128ec85835161266a565b945060209384019391909101906001016128d0565b60008060006060848603121561291657600080fd5b61291f84612608565b95602085013595506040909401359392505050565b6000806000806080858703121561294a57600080fd5b61295385612608565b966020860135965060408601359560600135945092505050565b6000806040838503121561298057600080fd5b61298983612608565b946020939093013593505050565b60008151608084526129ac6080850182612696565b90506020830151602085015260408301516040850152606083015160608501528091505092915050565b60208152600061263f6020830184612997565b6000602082016020835280845180835260408501915060408160051b86010192506020860160005b8281101561289c57603f19878603018452612a2d858351612997565b94506020938401939190910190600101612a11565b6000602082016020835280845180835260408501915060408160051b86010192506020860160005b8281101561289c57603f19878603018452612a86858351612696565b94506020938401939190910190600101612a6a565b60008060008060808587031215612ab157600080fd5b843567ffffffffffffffff811115612ac857600080fd5b612ad48782880161257d565b945050602085013567ffffffffffffffff811115612af157600080fd5b612afd8782880161257d565b935050604085013567ffffffffffffffff811115612b1a57600080fd5b612b268782880161257d565b925050606085013567ffffffffffffffff811115612b4357600080fd5b612b4f8782880161257d565b91505092959194509250565b60008251612b6d818460208701612646565b9190910192915050565b600181811c90821680612b8b57607f821691505b602082108103612bab57634e487b7160e01b600052602260045260246000fd5b50919050565b601f821115610fac57806000526020600020601f840160051c81016020851015612bd85750805b601f840160051c820191505b81811015612bf85760008155600101612be4565b5050505050565b815167ffffffffffffffff811115612c1957612c1961250e565b612c2d81612c278454612b77565b84612bb1565b6020601f821160018114612c615760008315612c495750848201515b600019600385901b1c1916600184901b178455612bf8565b600084815260208120601f198516915b82811015612c915787850151825560209485019460019092019101612c71565b5084821015612caf5786840151600019600387901b60f8161c191681555b50505050600190811b01905550565b60208152600061263f602083018461266a565b60208082526019908201527f436f6c6c656374696f6e20646f6573206e6f7420657869737400000000000000604082015260600190565b634e487b7160e01b600052603260045260246000fd5b600060208284031215612d3057600080fd5b815167ffffffffffffffff811115612d4757600080fd5b8201601f81018413612d5857600080fd5b8051612d6661259c82612555565b818152856020838501011115612d7b57600080fd5b612d8c826020830160208601612646565b95945050505050565b6001600160a01b039384168152919092166020820152604081019190915260600190565b80820180821115612dda57634e487b7160e01b600052601160045260246000fd5b92915050565b60c081526000612df360c083018961266a565b8281036020840152612e05818961266a565b90508281036040840152612e19818861266a565b6001600160a01b038716606085015283810360808501529050612e3c818661266a565b91505060018060a01b03831660a0830152979650505050505050565b606081526000612e6b606083018661266a565b8281036020840152612e7d818661266a565b90508281036040840152612e91818561266a565b969550505050505056fe608060405234801561001057600080fd5b5060405161193f38038061193f83398101604081905261002f916101ed565b808686600061003e8382610357565b50600161004b8282610357565b5050506001600160a01b03811661007c57604051631e4fbdf760e01b81526000600482015260240160405180910390fd5b610085816100c6565b5060096100928582610357565b50600a80546001600160a01b0319166001600160a01b038516179055600b6100ba8382610357565b50505050505050610415565b600780546001600160a01b038381166001600160a01b0319831681179093556040519116919082907f8be0079c531659141344cd1fd0a4f28419497f9722a3daafe3b4186f6b6457e090600090a35050565b634e487b7160e01b600052604160045260246000fd5b600082601f83011261013f57600080fd5b81516001600160401b0381111561015857610158610118565b604051601f8201601f19908116603f011681016001600160401b038111828210171561018657610186610118565b60405281815283820160200185101561019e57600080fd5b60005b828110156101bd576020818601810151838301820152016101a1565b506000918101602001919091529392505050565b80516001600160a01b03811681146101e857600080fd5b919050565b60008060008060008060c0878903121561020657600080fd5b86516001600160401b0381111561021c57600080fd5b61022889828a0161012e565b602089015190975090506001600160401b0381111561024657600080fd5b61025289828a0161012e565b604089015190965090506001600160401b0381111561027057600080fd5b61027c89828a0161012e565b94505061028b606088016101d1565b60808801519093506001600160401b038111156102a757600080fd5b6102b389828a0161012e565b9250506102c260a088016101d1565b90509295509295509295565b600181811c908216806102e257607f821691505b60208210810361030257634e487b7160e01b600052602260045260246000fd5b50919050565b601f82111561035257806000526020600020601f840160051c8101602085101561032f5750805b601f840160051c820191505b8181101561034f576000815560010161033b565b50505b505050565b81516001600160401b0381111561037057610370610118565b6103848161037e84546102ce565b84610308565b6020601f8211600181146103b857600083156103a05750848201515b600019600385901b1c1916600184901b17845561034f565b600084815260208120601f198516915b828110156103e857878501518255602094850194600190920191016103c8565b50848210156104065786840151600019600387901b60f8161c191681555b50505050600190811b01905550565b61151b806104246000396000f3fe608060405234801561001057600080fd5b50600436106101375760003560e01c8063715018a6116100b8578063c87b56dd1161007c578063c87b56dd14610266578063d0def52114610279578063daa17f491461028c578063e985e9c51461029f578063ef430aa6146102b2578063f2fde38b146102ba57600080fd5b8063715018a61461021f5780638da5cb5b1461022757806395d89b4114610238578063a22cb46514610240578063b88d4fde1461025357600080fd5b806323b872dd116100ff57806323b872dd146101cb57806342842e0e146101de5780636352211e146101f15780636c0360eb1461020457806370a082311461020c57600080fd5b806301ffc9a71461013c57806306fdde0314610164578063081812fc14610179578063095ea7b3146101a457806318160ddd146101b9575b600080fd5b61014f61014a366004610fe1565b6102cd565b60405190151581526020015b60405180910390f35b61016c6102f8565b60405161015b919061104e565b61018c610187366004611061565b61038a565b6040516001600160a01b03909116815260200161015b565b6101b76101b2366004611096565b6103b3565b005b6008545b60405190815260200161015b565b6101b76101d93660046110c0565b6103c2565b6101b76101ec3660046110c0565b610452565b61018c6101ff366004611061565b610472565b61016c61047d565b6101bd61021a3660046110fd565b61050b565b6101b7610553565b6007546001600160a01b031661018c565b61016c610567565b6101b761024e366004611118565b610576565b6101b76102613660046111e4565b610581565b61016c610274366004611061565b610599565b6101bd610287366004611260565b6106aa565b600a5461018c906001600160a01b031681565b61014f6102ad3660046112c2565b6106e7565b61016c610715565b6101b76102c83660046110fd565b610722565b60006001600160e01b03198216632483248360e11b14806102f257506102f282610760565b92915050565b606060008054610307906112f5565b80601f0160208091040260200160405190810160405280929190818152602001828054610333906112f5565b80156103805780601f1061035557610100808354040283529160200191610380565b820191906000526020600020905b81548152906001019060200180831161036357829003601f168201915b5050505050905090565b6000610395826107b0565b506000828152600460205260409020546001600160a01b03166102f2565b6103be8282336107e9565b5050565b6001600160a01b0382166103f157604051633250574960e11b8152600060048201526024015b60405180910390fd5b60006103fe8383336107f6565b9050836001600160a01b0316816001600160a01b03161461044c576040516364283d7b60e01b81526001600160a01b03808616600483015260248201849052821660448201526064016103e8565b50505050565b61046d83838360405180602001604052806000815250610581565b505050565b60006102f2826107b0565b6009805461048a906112f5565b80601f01602080910402602001604051908101604052809291908181526020018280546104b6906112f5565b80156105035780601f106104d857610100808354040283529160200191610503565b820191906000526020600020905b8154815290600101906020018083116104e657829003601f168201915b505050505081565b60006001600160a01b038216610537576040516322718ad960e21b8152600060048201526024016103e8565b506001600160a01b031660009081526003602052604090205490565b61055b6108ef565b610565600061091c565b565b606060018054610307906112f5565b6103be33838361096e565b61058c8484846103c2565b61044c3385858585610a0d565b60606105a4826107b0565b50600082815260066020526040812080546105be906112f5565b80601f01602080910402602001604051908101604052809291908181526020018280546105ea906112f5565b80156106375780601f1061060c57610100808354040283529160200191610637565b820191906000526020600020905b81548152906001019060200180831161061a57829003601f168201915b50505050509050600061065560408051602081019091526000815290565b90508051600003610667575092915050565b81511561069957808260405160200161068192919061132f565b60405160208183030381529060405292505050919050565b6106a284610b38565b949350505050565b60006106b46108ef565b600880549060006106c48361135e565b90915550506008546106d68482610bac565b6106e08184610bc6565b9392505050565b6001600160a01b03918216600090815260056020908152604080832093909416825291909152205460ff1690565b600b805461048a906112f5565b61072a6108ef565b6001600160a01b03811661075457604051631e4fbdf760e01b8152600060048201526024016103e8565b61075d8161091c565b50565b60006001600160e01b031982166380ac58cd60e01b148061079157506001600160e01b03198216635b5e139f60e01b145b806102f257506301ffc9a760e01b6001600160e01b03198316146102f2565b6000818152600260205260408120546001600160a01b0316806102f257604051637e27328960e01b8152600481018490526024016103e8565b61046d8383836001610c16565b6000828152600260205260408120546001600160a01b039081169083161561082357610823818486610d1c565b6001600160a01b0381161561086157610840600085600080610c16565b6001600160a01b038116600090815260036020526040902080546000190190555b6001600160a01b03851615610890576001600160a01b0385166000908152600360205260409020805460010190555b60008481526002602052604080822080546001600160a01b0319166001600160a01b0389811691821790925591518793918516917fddf252ad1be2c89b69c2b068fc378daa952ba7f163c4a11628f55a4df523b3ef91a4949350505050565b6007546001600160a01b031633146105655760405163118cdaa760e01b81523360048201526024016103e8565b600780546001600160a01b038381166001600160a01b0319831681179093556040519116919082907f8be0079c531659141344cd1fd0a4f28419497f9722a3daafe3b4186f6b6457e090600090a35050565b6001600160a01b0382166109a057604051630b61174360e31b81526001600160a01b03831660048201526024016103e8565b6001600160a01b03838116600081815260056020908152604080832094871680845294825291829020805460ff191686151590811790915591519182527f17307eab39ab6107e8899845ad3d59bd9653f200f220920489ca2b5937696c31910160405180910390a3505050565b6001600160a01b0383163b15610b3157604051630a85bd0160e11b81526001600160a01b0384169063150b7a0290610a4f908890889087908790600401611385565b6020604051808303816000875af1925050508015610a8a575060408051601f3d908101601f19168201909252610a87918101906113c2565b60015b610af3573d808015610ab8576040519150601f19603f3d011682016040523d82523d6000602084013e610abd565b606091505b508051600003610aeb57604051633250574960e11b81526001600160a01b03851660048201526024016103e8565b805181602001fd5b6001600160e01b03198116630a85bd0160e11b14610b2f57604051633250574960e11b81526001600160a01b03851660048201526024016103e8565b505b5050505050565b6060610b43826107b0565b506000610b5b60408051602081019091526000815290565b90506000815111610b7b57604051806020016040528060008152506106e0565b80610b8584610d80565b604051602001610b9692919061132f565b6040516020818303038152906040529392505050565b6103be828260405180602001604052806000815250610e13565b6000828152600660205260409020610bde8282611426565b506040518281527ff8e1a15aba9398e019f0b49df1a4fde98ee17ae345cb5f6b5e2c27f5033e8ce79060200160405180910390a15050565b8080610c2a57506001600160a01b03821615155b15610cec576000610c3a846107b0565b90506001600160a01b03831615801590610c665750826001600160a01b0316816001600160a01b031614155b8015610c795750610c7781846106e7565b155b15610ca25760405163a9fbf51f60e01b81526001600160a01b03841660048201526024016103e8565b8115610cea5783856001600160a01b0316826001600160a01b03167f8c5be1e5ebec7d5bd14f71427d1e84f3dd0314c0f7b2291e5b200ac8c7c3b92560405160405180910390a45b505b5050600090815260046020526040902080546001600160a01b0319166001600160a01b0392909216919091179055565b610d27838383610e2b565b61046d576001600160a01b038316610d5557604051637e27328960e01b8152600481018290526024016103e8565b60405163177e802f60e01b81526001600160a01b0383166004820152602481018290526044016103e8565b60606000610d8d83610e8e565b600101905060008167ffffffffffffffff811115610dad57610dad611154565b6040519080825280601f01601f191660200182016040528015610dd7576020820181803683370190505b5090508181016020015b600019016f181899199a1a9b1b9c1cb0b131b232b360811b600a86061a8153600a8504945084610de157509392505050565b610e1d8383610f66565b61046d336000858585610a0d565b60006001600160a01b038316158015906106a25750826001600160a01b0316846001600160a01b03161480610e655750610e6584846106e7565b806106a25750506000908152600460205260409020546001600160a01b03908116911614919050565b60008072184f03e93ff9f4daa797ed6e38ed64bf6a1f0160401b8310610ecd5772184f03e93ff9f4daa797ed6e38ed64bf6a1f0160401b830492506040015b6d04ee2d6d415b85acef81000000008310610ef9576d04ee2d6d415b85acef8100000000830492506020015b662386f26fc100008310610f1757662386f26fc10000830492506010015b6305f5e1008310610f2f576305f5e100830492506008015b6127108310610f4357612710830492506004015b60648310610f55576064830492506002015b600a83106102f25760010192915050565b6001600160a01b038216610f9057604051633250574960e11b8152600060048201526024016103e8565b6000610f9e838360006107f6565b90506001600160a01b0381161561046d576040516339e3563760e11b8152600060048201526024016103e8565b6001600160e01b03198116811461075d57600080fd5b600060208284031215610ff357600080fd5b81356106e081610fcb565b60005b83811015611019578181015183820152602001611001565b50506000910152565b6000815180845261103a816020860160208601610ffe565b601f01601f19169290920160200192915050565b6020815260006106e06020830184611022565b60006020828403121561107357600080fd5b5035919050565b80356001600160a01b038116811461109157600080fd5b919050565b600080604083850312156110a957600080fd5b6110b28361107a565b946020939093013593505050565b6000806000606084860312156110d557600080fd5b6110de8461107a565b92506110ec6020850161107a565b929592945050506040919091013590565b60006020828403121561110f57600080fd5b6106e08261107a565b6000806040838503121561112b57600080fd5b6111348361107a565b91506020830135801515811461114957600080fd5b809150509250929050565b634e487b7160e01b600052604160045260246000fd5b60008067ffffffffffffffff84111561118557611185611154565b50604051601f19601f85018116603f0116810181811067ffffffffffffffff821117156111b4576111b4611154565b6040528381529050808284018510156111cc57600080fd5b83836020830137600060208583010152509392505050565b600080600080608085870312156111fa57600080fd5b6112038561107a565b93506112116020860161107a565b925060408501359150606085013567ffffffffffffffff81111561123457600080fd5b8501601f8101871361124557600080fd5b6112548782356020840161116a565b91505092959194509250565b6000806040838503121561127357600080fd5b61127c8361107a565b9150602083013567ffffffffffffffff81111561129857600080fd5b8301601f810185136112a957600080fd5b6112b88582356020840161116a565b9150509250929050565b600080604083850312156112d557600080fd5b6112de8361107a565b91506112ec6020840161107a565b90509250929050565b600181811c9082168061130957607f821691505b60208210810361132957634e487b7160e01b600052602260045260246000fd5b50919050565b60008351611341818460208801610ffe565b835190830190611355818360208801610ffe565b01949350505050565b60006001820161137e57634e487b7160e01b600052601160045260246000fd5b5060010190565b6001600160a01b03858116825284166020820152604081018390526080606082018190526000906113b890830184611022565b9695505050505050565b6000602082840312156113d457600080fd5b81516106e081610fcb565b601f82111561046d57806000526020600020601f840160051c810160208510156114065750805b601f840160051c820191505b81811015610b315760008155600101611412565b815167ffffffffffffffff81111561144057611440611154565b6114548161144e84546112f5565b846113df565b6020601f82116001811461148857600083156114705750848201515b600019600385901b1c1916600184901b178455610b31565b600084815260208120601f198516915b828110156114b85787850151825560209485019460019092019101611498565b50848210156114d65786840151600019600387901b60f8161c191681555b50505050600190811b0190555056fea264697066735822122048600693bdb7acf27078e25573f563486d3fd8b2e657caf5f09a9c31f4e4e88b64736f6c634300081c0033a2646970667358221220c8fc46eb866330eede66747a0bbb2d2d292f56eaaf8bb66db5173aef91290cc264736f6c634300081c0033",
  "linkReferences": {},
  "deployedLinkReferences": {}
}