{
  "_format": "hh-sol-artifact-1",
  "contractName": "NFTMarketplace",
  "sourceName": "contracts/NFTMarketplace.sol",
  "abi": [
    {
      "inputs": [],
      "stateMutability": "nonpayable",
      "type": "constructor"
    },
    {
      "inputs": [],
      "name": "EnforcedPause",
      "type": "error"
    },
    {
      "inputs": [],
      "name": "ExpectedPause",
      "type": "error"
    },
    {
      "inputs": [
        {
          "internalType": "address",
          "name": "owner",
          "type": "address"
        }
      ],
      "name": "OwnableInvalidOwner",
      "type": "error"
    },
    {
      "inputs": [
        {
          "internalType": "address",
          "name": "account",
          "type": "address"
        }
      ],
      "name": "OwnableUnauthorizedAccount",
      "type": "error"
    },
    {
      "inputs": [],
      "name": "ReentrancyGuardReentrantCall",
      "type": "error"
    },
    {
      "anonymous": false,
      "inputs": [
        {
          "indexed": false,
          "internalType": "string",
          "name": "category",
          "type": "string"
        }
      ],
      "name": "CategoryAdded",
      "type": "event"
    },
    {
      "anonymous": false,
      "inputs": [
        {
          "indexed": true,
          "internalType": "address",
          "name": "collectionAddress",
          "type": "address"
        },
        {
          "indexed": false,
          "internalType": "string",
          "name": "name",
          "type": "string"
        },
        {
          "indexed": false,
          "internalType": "string",
          "name": "symbol",
          "type": "string"
        },
        {
          "indexed": false,
          "internalType": "string",
          "name": "category",
          "type": "string"
        },
        {
          "indexed": true,
          "internalType": "address",
          "name": "owner",
          "type": "address"
        }
      ],
      "name": "CollectionCreated",
      "type": "event"
    },
    {
      "anonymous": false,
      "inputs": [
        {
          "indexed": true,
          "internalType": "address",
          "name": "collectionAddress",
          "type": "address"
        },
        {
          "indexed": true,
          "internalType": "uint256",
          "name": "tokenId",
          "type": "uint256"
        },
        {
          "indexed": false,
          "internalType": "address",
          "name": "seller",
          "type": "address"
        },
        {
          "indexed": false,
          "internalType": "address",
          "name": "owner",
          "type": "address"
        },
        {
          "indexed": false,
          "internalType": "uint256",
          "name": "price",
          "type": "uint256"
        }
      ],
      "name": "MarketItemCreated",
      "type": "event"
    },
    {
      "anonymous": false,
      "inputs": [
        {
          "indexed": true,
          "internalType": "address",
          "name": "collectionAddress",
          "type": "address"
        },
        {
          "indexed": true,
          "internalType": "uint256",
          "name": "tokenId",
          "type": "uint256"
        },
        {
          "indexed": false,
          "internalType": "address",
          "name": "seller",
          "type": "address"
        },
        {
          "indexed": false,
          "internalType": "address",
          "name": "owner",
          "type": "address"
        },
        {
          "indexed": false,
          "internalType": "uint256",
          "name": "price",
          "type": "uint256"
        }
      ],
      "name": "MarketItemSold",
      "type": "event"
    },
    {
      "anonymous": false,
      "inputs": [
        {
          "indexed": true,
          "internalType": "address",
          "name": "collectionAddress",
          "type": "address"
        },
        {
          "indexed": true,
          "internalType": "address",
          "name": "buyer",
          "type": "address"
        },
        {
          "indexed": false,
          "internalType": "uint256",
          "name": "price",
          "type": "uint256"
        }
      ],
      "name": "OfferCreated",
      "type": "event"
    },
    {
      "anonymous": false,
      "inputs": [
        {
          "indexed": true,
          "internalType": "address",
          "name": "previousOwner",
          "type": "address"
        },
        {
          "indexed": true,
          "internalType": "address",
          "name": "newOwner",
          "type": "address"
        }
      ],
      "name": "OwnershipTransferred",
      "type": "event"
    },
    {
      "anonymous": false,
      "inputs": [
        {
          "indexed": false,
          "internalType": "address",
          "name": "account",
          "type": "address"
        }
      ],
      "name": "Paused",
      "type": "event"
    },
    {
      "anonymous": false,
      "inputs": [
        {
          "indexed": false,
          "internalType": "address",
          "name": "account",
          "type": "address"
        }
      ],
      "name": "Unpaused",
      "type": "event"
    },
    {
      "inputs": [
        {
          "internalType": "string",
          "name": "category",
          "type": "string"
        }
      ],
      "name": "addCategory",
      "outputs": [],
      "stateMutability": "nonpayable",
      "type": "function"
    },
    {
      "inputs": [
        {
          "internalType": "address",
          "name": "collectionAddress",
          "type": "address"
        },
        {
          "internalType": "uint256",
          "name": "tokenId",
          "type": "uint256"
        },
        {
          "internalType": "uint256",
          "name": "startingPrice",
          "type": "uint256"
        },
        {
          "internalType": "uint256",
          "name": "duration",
          "type": "uint256"
        }
      ],
      "name": "createAuction",
      "outputs": [],
      "stateMutability": "nonpayable",
      "type": "function"
    },
    {
      "inputs": [
        {
          "internalType": "string",
          "name": "name",
          "type": "string"
        },
        {
          "internalType": "string",
          "name": "symbol",
          "type": "string"
        },
        {
          "internalType": "string",
          "name": "baseURI",
          "type": "string"
        },
        {
          "internalType": "string",
          "name": "category",
          "type": "string"
        }
      ],
      "name": "createCollection",
      "outputs": [
        {
          "internalType": "address",
          "name": "",
          "type": "address"
        }
      ],
      "stateMutability": "nonpayable",
      "type": "function"
    },
    {
      "inputs": [
        {
          "internalType": "address",
          "name": "collectionAddress",
          "type": "address"
        },
        {
          "internalType": "uint256",
          "name": "tokenId",
          "type": "uint256"
        },
        {
          "internalType": "uint256",
          "name": "price",
          "type": "uint256"
        }
      ],
      "name": "createMarketItem",
      "outputs": [],
      "stateMutability": "payable",
      "type": "function"
    },
    {
      "inputs": [
        {
          "internalType": "address",
          "name": "collectionAddress",
          "type": "address"
        },
        {
          "internalType": "uint256",
          "name": "tokenId",
          "type": "uint256"
        }
      ],
      "name": "createMarketSale",
      "outputs": [],
      "stateMutability": "payable",
      "type": "function"
    },
    {
      "inputs": [
        {
          "internalType": "address",
          "name": "collectionAddress",
          "type": "address"
        }
      ],
      "name": "fetchCollectionDetails",
      "outputs": [
        {
          "components": [
            {
              "components": [
                {
                  "internalType": "address",
                  "name": "collectionAddress",
                  "type": "address"
                },
                {
                  "internalType": "string",
                  "name": "name",
                  "type": "string"
                },
                {
                  "internalType": "string",
                  "name": "symbol",
                  "type": "string"
                },
                {
                  "internalType": "string",
                  "name": "category",
                  "type": "string"
                },
                {
                  "internalType": "address",
                  "name": "owner",
                  "type": "address"
                },
                {
                  "internalType": "bool",
                  "name": "isActive",
                  "type": "bool"
                },
                {
                  "internalType": "uint256",
                  "name": "createdAt",
                  "type": "uint256"
                },
                {
                  "internalType": "string",
                  "name": "baseURI",
                  "type": "string"
                },
                {
                  "internalType": "uint256",
                  "name": "totalSupply",
                  "type": "uint256"
                }
              ],
              "internalType": "struct NFTMarketplace.Collection",
              "name": "basic",
              "type": "tuple"
            },
            {
              "internalType": "uint256",
              "name": "floorPrice",
              "type": "uint256"
            },
            {
              "internalType": "uint256",
              "name": "totalVolume",
              "type": "uint256"
            },
            {
              "internalType": "uint256",
              "name": "ownerCount",
              "type": "uint256"
            }
          ],
          "internalType": "struct NFTMarketplace.CollectionDetails",
          "name": "",
          "type": "tuple"
        }
      ],
      "stateMutability": "view",
      "type": "function"
    },
    {
      "inputs": [
        {
          "internalType": "address",
          "name": "collectionAddress",
          "type": "address"
        }
      ],
      "name": "fetchCollectionItems",
      "outputs": [
        {
          "components": [
            {
              "internalType": "uint256",
              "name": "tokenId",
              "type": "uint256"
            },
            {
              "internalType": "address",
              "name": "nftContract",
              "type": "address"
            },
            {
              "internalType": "address",
              "name": "seller",
              "type": "address"
            },
            {
              "internalType": "address",
              "name": "owner",
              "type": "address"
            },
            {
              "internalType": "uint256",
              "name": "price",
              "type": "uint256"
            },
            {
              "internalType": "bool",
              "name": "isOnSale",
              "type": "bool"
            },
            {
              "internalType": "uint256",
              "name": "auctionEndTime",
              "type": "uint256"
            },
            {
              "internalType": "address",
              "name": "highestBidder",
              "type": "address"
            },
            {
              "internalType": "uint256",
              "name": "highestBid",
              "type": "uint256"
            },
            {
              "internalType": "bool",
              "name": "isAuction",
              "type": "bool"
            },
            {
              "internalType": "string",
              "name": "tokenURI",
              "type": "string"
            }
          ],
          "internalType": "struct NFTMarketplace.MarketItem[]",
          "name": "",
          "type": "tuple[]"
        }
      ],
      "stateMutability": "view",
      "type": "function"
    },
    {
      "inputs": [],
      "name": "fetchCollections",
      "outputs": [
        {
          "components": [
            {
              "components": [
                {
                  "internalType": "address",
                  "name": "collectionAddress",
                  "type": "address"
                },
                {
                  "internalType": "string",
                  "name": "name",
                  "type": "string"
                },
                {
                  "internalType": "string",
                  "name": "symbol",
                  "type": "string"
                },
                {
                  "internalType": "string",
                  "name": "category",
                  "type": "string"
                },
                {
                  "internalType": "address",
                  "name": "owner",
                  "type": "address"
                },
                {
                  "internalType": "bool",
                  "name": "isActive",
                  "type": "bool"
                },
                {
                  "internalType": "uint256",
                  "name": "createdAt",
                  "type": "uint256"
                },
                {
                  "internalType": "string",
                  "name": "baseURI",
                  "type": "string"
                },
                {
                  "internalType": "uint256",
                  "name": "totalSupply",
                  "type": "uint256"
                }
              ],
              "internalType": "struct NFTMarketplace.Collection",
              "name": "basic",
              "type": "tuple"
            },
            {
              "internalType": "uint256",
              "name": "floorPrice",
              "type": "uint256"
            },
            {
              "internalType": "uint256",
              "name": "totalVolume",
              "type": "uint256"
            },
            {
              "internalType": "uint256",
              "name": "ownerCount",
              "type": "uint256"
            }
          ],
          "internalType": "struct NFTMarketplace.CollectionDetails[]",
          "name": "",
          "type": "tuple[]"
        }
      ],
      "stateMutability": "view",
      "type": "function"
    },
    {
      "inputs": [
        {
          "internalType": "string",
          "name": "category",
          "type": "string"
        }
      ],
      "name": "fetchCollectionsByCategory",
      "outputs": [
        {
          "components": [
            {
              "internalType": "address",
              "name": "collectionAddress",
              "type": "address"
            },
            {
              "internalType": "string",
              "name": "name",
              "type": "string"
            },
            {
              "internalType": "string",
              "name": "symbol",
              "type": "string"
            },
            {
              "internalType": "string",
              "name": "category",
              "type": "string"
            },
            {
              "internalType": "address",
              "name": "owner",
              "type": "address"
            },
            {
              "internalType": "bool",
              "name": "isActive",
              "type": "bool"
            },
            {
              "internalType": "uint256",
              "name": "createdAt",
              "type": "uint256"
            },
            {
              "internalType": "string",
              "name": "baseURI",
              "type": "string"
            },
            {
              "internalType": "uint256",
              "name": "totalSupply",
              "type": "uint256"
            }
          ],
          "internalType": "struct NFTMarketplace.Collection[]",
          "name": "",
          "type": "tuple[]"
        }
      ],
      "stateMutability": "view",
      "type": "function"
    },
    {
      "inputs": [
        {
          "internalType": "address",
          "name": "user",
          "type": "address"
        }
      ],
      "name": "fetchUserCreatedCollections",
      "outputs": [
        {
          "components": [
            {
              "components": [
                {
                  "internalType": "address",
                  "name": "collectionAddress",
                  "type": "address"
                },
                {
                  "internalType": "string",
                  "name": "name",
                  "type": "string"
                },
                {
                  "internalType": "string",
                  "name": "symbol",
                  "type": "string"
                },
                {
                  "internalType": "string",
                  "name": "category",
                  "type": "string"
                },
                {
                  "internalType": "address",
                  "name": "owner",
                  "type": "address"
                },
                {
                  "internalType": "bool",
                  "name": "isActive",
                  "type": "bool"
                },
                {
                  "internalType": "uint256",
                  "name": "createdAt",
                  "type": "uint256"
                },
                {
                  "internalType": "string",
                  "name": "baseURI",
                  "type": "string"
                },
                {
                  "internalType": "uint256",
                  "name": "totalSupply",
                  "type": "uint256"
                }
              ],
              "internalType": "struct NFTMarketplace.Collection",
              "name": "basic",
              "type": "tuple"
            },
            {
              "internalType": "uint256",
              "name": "floorPrice",
              "type": "uint256"
            },
            {
              "internalType": "uint256",
              "name": "totalVolume",
              "type": "uint256"
            },
            {
              "internalType": "uint256",
              "name": "ownerCount",
              "type": "uint256"
            }
          ],
          "internalType": "struct NFTMarketplace.CollectionDetails[]",
          "name": "",
          "type": "tuple[]"
        }
      ],
      "stateMutability": "view",
      "type": "function"
    },
    {
      "inputs": [
        {
          "internalType": "address",
          "name": "user",
          "type": "address"
        }
      ],
      "name": "fetchUserPurchasedItems",
      "outputs": [
        {
          "components": [
            {
              "internalType": "uint256",
              "name": "tokenId",
              "type": "uint256"
            },
            {
              "internalType": "address",
              "name": "nftContract",
              "type": "address"
            },
            {
              "internalType": "address",
              "name": "seller",
              "type": "address"
            },
            {
              "internalType": "address",
              "name": "owner",
              "type": "address"
            },
            {
              "internalType": "uint256",
              "name": "price",
              "type": "uint256"
            },
            {
              "internalType": "bool",
              "name": "isOnSale",
              "type": "bool"
            },
            {
              "internalType": "uint256",
              "name": "auctionEndTime",
              "type": "uint256"
            },
            {
              "internalType": "address",
              "name": "highestBidder",
              "type": "address"
            },
            {
              "internalType": "uint256",
              "name": "highestBid",
              "type": "uint256"
            },
            {
              "internalType": "bool",
              "name": "isAuction",
              "type": "bool"
            },
            {
              "internalType": "string",
              "name": "tokenURI",
              "type": "string"
            }
          ],
          "internalType": "struct NFTMarketplace.MarketItem[]",
          "name": "purchasedItems",
          "type": "tuple[]"
        }
      ],
      "stateMutability": "view",
      "type": "function"
    },
    {
      "inputs": [],
      "name": "getCategories",
      "outputs": [
        {
          "internalType": "string[]",
          "name": "",
          "type": "string[]"
        }
      ],
      "stateMutability": "view",
      "type": "function"
    },
    {
      "inputs": [
        {
          "internalType": "address",
          "name": "collectionAddress",
          "type": "address"
        }
      ],
      "name": "getCollectionDetails",
      "outputs": [
        {
          "components": [
            {
              "internalType": "address",
              "name": "collectionAddress",
              "type": "address"
            },
            {
              "internalType": "string",
              "name": "name",
              "type": "string"
            },
            {
              "internalType": "string",
              "name": "symbol",
              "type": "string"
            },
            {
              "internalType": "string",
              "name": "category",
              "type": "string"
            },
            {
              "internalType": "address",
              "name": "owner",
              "type": "address"
            },
            {
              "internalType": "bool",
              "name": "isActive",
              "type": "bool"
            },
            {
              "internalType": "uint256",
              "name": "createdAt",
              "type": "uint256"
            },
            {
              "internalType": "string",
              "name": "baseURI",
              "type": "string"
            },
            {
              "internalType": "uint256",
              "name": "totalSupply",
              "type": "uint256"
            }
          ],
          "internalType": "struct NFTMarketplace.Collection",
          "name": "",
          "type": "tuple"
        }
      ],
      "stateMutability": "view",
      "type": "function"
    },
    {
      "inputs": [],
      "name": "listingFee",
      "outputs": [
        {
          "internalType": "uint256",
          "name": "",
          "type": "uint256"
        }
      ],
      "stateMutability": "view",
      "type": "function"
    },
    {
      "inputs": [
        {
          "internalType": "address",
          "name": "collectionAddress",
          "type": "address"
        },
        {
          "internalType": "uint256",
          "name": "tokenId",
          "type": "uint256"
        }
      ],
      "name": "makeOffer",
      "outputs": [],
      "stateMutability": "payable",
      "type": "function"
    },
    {
      "inputs": [],
      "name": "owner",
      "outputs": [
        {
          "internalType": "address",
          "name": "",
          "type": "address"
        }
      ],
      "stateMutability": "view",
      "type": "function"
    },
    {
      "inputs": [],
      "name": "paused",
      "outputs": [
        {
          "internalType": "bool",
          "name": "",
          "type": "bool"
        }
      ],
      "stateMutability": "view",
      "type": "function"
    },
    {
      "inputs": [
        {
          "internalType": "address",
          "name": "collectionAddress",
          "type": "address"
        },
        {
          "internalType": "uint256",
          "name": "tokenId",
          "type": "uint256"
        }
      ],
      "name": "placeBid",
      "outputs": [],
      "stateMutability": "payable",
      "type": "function"
    },
    {
      "inputs": [],
      "name": "renounceOwnership",
      "outputs": [],
      "stateMutability": "nonpayable",
      "type": "function"
    },
    {
      "inputs": [
        {
          "internalType": "string",
          "name": "searchTerm",
          "type": "string"
        }
      ],
      "name": "searchCollections",
      "outputs": [
        {
          "components": [
            {
              "internalType": "address",
              "name": "collectionAddress",
              "type": "address"
            },
            {
              "internalType": "string",
              "name": "name",
              "type": "string"
            },
            {
              "internalType": "string",
              "name": "symbol",
              "type": "string"
            },
            {
              "internalType": "string",
              "name": "category",
              "type": "string"
            },
            {
              "internalType": "uint256",
              "name": "totalSupply",
              "type": "uint256"
            },
            {
              "internalType": "uint256",
              "name": "floorPrice",
              "type": "uint256"
            },
            {
              "internalType": "bool",
              "name": "isActive",
              "type": "bool"
            }
          ],
          "internalType": "struct NFTMarketplace.SearchResult[]",
          "name": "",
          "type": "tuple[]"
        }
      ],
      "stateMutability": "view",
      "type": "function"
    },
    {
      "inputs": [
        {
          "internalType": "string",
          "name": "searchTerm",
          "type": "string"
        },
        {
          "internalType": "string",
          "name": "category",
          "type": "string"
        },
        {
          "internalType": "uint256",
          "name": "minFloorPrice",
          "type": "uint256"
        },
        {
          "internalType": "uint256",
          "name": "maxFloorPrice",
          "type": "uint256"
        }
      ],
      "name": "searchCollectionsWithFilters",
      "outputs": [
        {
          "components": [
            {
              "internalType": "address",
              "name": "collectionAddress",
              "type": "address"
            },
            {
              "internalType": "string",
              "name": "name",
              "type": "string"
            },
            {
              "internalType": "string",
              "name": "symbol",
              "type": "string"
            },
            {
              "internalType": "string",
              "name": "category",
              "type": "string"
            },
            {
              "internalType": "uint256",
              "name": "totalSupply",
              "type": "uint256"
            },
            {
              "internalType": "uint256",
              "name": "floorPrice",
              "type": "uint256"
            },
            {
              "internalType": "bool",
              "name": "isActive",
              "type": "bool"
            }
          ],
          "internalType": "struct NFTMarketplace.SearchResult[]",
          "name": "",
          "type": "tuple[]"
        }
      ],
      "stateMutability": "view",
      "type": "function"
    },
    {
      "inputs": [
        {
          "internalType": "address",
          "name": "newOwner",
          "type": "address"
        }
      ],
      "name": "transferOwnership",
      "outputs": [],
      "stateMutability": "nonpayable",
      "type": "function"
    },
    {
      "inputs": [
        {
          "internalType": "address",
          "name": "collectionAddress",
          "type": "address"
        }
      ],
      "name": "updateCollectionTotalSupply",
      "outputs": [],
      "stateMutability": "nonpayable",
      "type": "function"
    }
  ],
  "bytecode": "0x60806040526601c6bf52634000600e5534801561001b57600080fd5b5060016000819055805460ff19169055338061005257604051631e4fbdf760e01b8152600060048201526024015b60405180910390fd5b61005b81610149565b50604080518082019091526003815262105c9d60ea1b602082015261007f906101a3565b60408051808201909152600681526547616d696e6760d01b60208201526100a5906101a3565b60408051808201909152600b81526a4d656d626572736869707360a81b60208201526100d0906101a3565b6040805180820190915260058152644d7573696360d81b60208201526100f5906101a3565b6040805180820190915260048152635046507360e01b6020820152610119906101a3565b60408051808201909152600b81526a50686f746f67726170687960a81b6020820152610144906101a3565b6104c8565b600180546001600160a01b03838116610100818102610100600160a81b031985161790945560405193909204169182907f8be0079c531659141344cd1fd0a4f28419497f9722a3daafe3b4186f6b6457e090600090a35050565b6101ab6102c3565b6003816040516101bb919061031c565b9081526040519081900360200190205460ff161561021b5760405162461bcd60e51b815260206004820152601760248201527f43617465676f727920616c7265616479206578697374730000000000000000006044820152606401610049565b600280546001810182556000919091527f405787fa12a823e0f2b7631cc41b3ba8828b3321ca811111fa75cd3aa3bb5ace0161025782826103d7565b50600160038260405161026a919061031c565b908152604051908190036020018120805492151560ff19909316929092179091557fdb74f4d32b97da9b3b9b907aa3fd5df938c018e13fe235d9883d0a0836c6bddb906102b8908390610495565b60405180910390a150565b6001546001600160a01b036101009091041633146102f65760405163118cdaa760e01b8152336004820152602401610049565b565b60005b838110156103135781810151838201526020016102fb565b50506000910152565b6000825161032e8184602087016102f8565b9190910192915050565b634e487b7160e01b600052604160045260246000fd5b600181811c9082168061036257607f821691505b60208210810361038257634e487b7160e01b600052602260045260246000fd5b50919050565b601f8211156103d257806000526020600020601f840160051c810160208510156103af5750805b601f840160051c820191505b818110156103cf57600081556001016103bb565b50505b505050565b81516001600160401b038111156103f0576103f0610338565b610404816103fe845461034e565b84610388565b6020601f82116001811461043857600083156104205750848201515b600019600385901b1c1916600184901b1784556103cf565b600084815260208120601f198516915b828110156104685787850151825560209485019460019092019101610448565b50848210156104865786840151600019600387901b60f8161c191681555b50505050600190811b01905550565b60208152600082518060208401526104b48160408501602087016102f8565b601f01601f19169190910160400192915050565b615aad806104d76000396000f3fe6080604052600436106101405760003560e01c8063715018a6116100b6578063d98b9bb51161006f578063d98b9bb514610394578063ed120997146103a7578063f2d306cc146103d4578063f2fde38b146103f4578063f6e4088914610414578063fa1592781461043457600080fd5b8063715018a6146102d35780638da5cb5b146102e8578063b2a4706e1461031f578063bc0019ca14610332578063c23b139e1461035f578063d2ead4cb1461037257600080fd5b80634db0412c116101085780634db0412c146102175780634f5ba22d1461023957806358eb2df5146102595780635c975abb1461026c57806361beb1d71461028f5780636a1b7ecc146102af57600080fd5b806316c550de146101455780632e0dcbf71461016757806334deb86d1461018757806337c883b8146101bd5780633ca19a83146101ea575b600080fd5b34801561015157600080fd5b506101656101603660046135ed565b610454565b005b34801561017357600080fd5b506101656101823660046136d2565b610596565b34801561019357600080fd5b506101a76101a23660046135ed565b6106b6565b6040516101b4919061381f565b60405180910390f35b3480156101c957600080fd5b506101dd6101d83660046135ed565b6109c1565b6040516101b49190613832565b3480156101f657600080fd5b5061020a610205366004613968565b610c65565b6040516101b491906139df565b34801561022357600080fd5b5061022c610c7c565b6040516101b49190613aae565b34801561024557600080fd5b5061020a6102543660046136d2565b610d55565b610165610267366004613b07565b610d79565b34801561027857600080fd5b5060015460ff1660405190151581526020016101b4565b34801561029b57600080fd5b506101656102aa366004613b3a565b61118f565b3480156102bb57600080fd5b506102c5600e5481565b6040519081526020016101b4565b3480156102df57600080fd5b50610165611291565b3480156102f457600080fd5b5060015461010090046001600160a01b03165b6040516001600160a01b0390911681526020016101b4565b61016561032d366004613b73565b6112a5565b34801561033e57600080fd5b5061035261034d3660046135ed565b611471565b6040516101b49190613bdc565b61016561036d366004613b73565b6117ac565b34801561037e57600080fd5b50610387611a16565b6040516101b49190613bef565b6101656103a2366004613b73565b611adf565b3480156103b357600080fd5b506103c76103c23660046136d2565b611c5a565b6040516101b49190613c48565b3480156103e057600080fd5b506103876103ef3660046135ed565b6120ce565b34801561040057600080fd5b5061016561040f3660046135ed565b6121e8565b34801561042057600080fd5b506101dd61042f3660046135ed565b612226565b34801561044057600080fd5b5061030761044f366004613ca1565b612513565b6001600160a01b03811660009081526004602081905260409091200154600160a01b900460ff166104a05760405162461bcd60e51b815260040161049790613d5d565b60405180910390fd5b336001600160a01b0382161461050f5760405162461bcd60e51b815260206004820152602e60248201527f4f6e6c7920636f6c6c656374696f6e20636f6e74726163742063616e2075706460448201526d6174652069747320737570706c7960901b6064820152608401610497565b6000816001600160a01b03166318160ddd6040518163ffffffff1660e01b8152600401602060405180830381865afa15801561054f573d6000803e3d6000fd5b505050506040513d601f19601f820116820180604052508101906105739190613d94565b6001600160a01b0390921660009081526004602052604090206007019190915550565b61059e6127fa565b6003816040516105ae9190613dad565b9081526040519081900360200190205460ff161561060e5760405162461bcd60e51b815260206004820152601760248201527f43617465676f727920616c7265616479206578697374730000000000000000006044820152606401610497565b600280546001810182556000919091527f405787fa12a823e0f2b7631cc41b3ba8828b3321ca811111fa75cd3aa3bb5ace0161064a8282613e51565b50600160038260405161065d9190613dad565b908152604051908190036020018120805492151560ff19909316929092179091557fdb74f4d32b97da9b3b9b907aa3fd5df938c018e13fe235d9883d0a0836c6bddb906106ab908390613f0f565b60405180910390a150565b6106be6134b4565b6001600160a01b03821660009081526004602081905260409091200154600160a01b900460ff166107015760405162461bcd60e51b815260040161049790613d5d565b6001600160a01b0380831660009081526004602090815260409182902082516101208101909352805490931682526001830180549293929184019161074590613dc9565b80601f016020809104026020016040519081016040528092919081815260200182805461077190613dc9565b80156107be5780601f10610793576101008083540402835291602001916107be565b820191906000526020600020905b8154815290600101906020018083116107a157829003601f168201915b505050505081526020016002820180546107d790613dc9565b80601f016020809104026020016040519081016040528092919081815260200182805461080390613dc9565b80156108505780601f1061082557610100808354040283529160200191610850565b820191906000526020600020905b81548152906001019060200180831161083357829003601f168201915b5050505050815260200160038201805461086990613dc9565b80601f016020809104026020016040519081016040528092919081815260200182805461089590613dc9565b80156108e25780601f106108b7576101008083540402835291602001916108e2565b820191906000526020600020905b8154815290600101906020018083116108c557829003601f168201915b505050918352505060048201546001600160a01b0381166020830152600160a01b900460ff16151560408201526005820154606082015260068201805460809092019161092e90613dc9565b80601f016020809104026020016040519081016040528092919081815260200182805461095a90613dc9565b80156109a75780601f1061097c576101008083540402835291602001916109a7565b820191906000526020600020905b81548152906001019060200180831161098a57829003601f168201915b505050505081526020016007820154815250509050919050565b6001600160a01b03811660009081526004602081905260409091200154606090600160a01b900460ff16610a075760405162461bcd60e51b815260040161049790613d5d565b6001600160a01b038216600090815260086020908152604080832080548251818502810185019093528083529192909190830182828015610a6757602002820191906000526020600020905b815481526020019060010190808311610a53575b505050505090506000815190506000816001600160401b03811115610a8e57610a8e61360f565b604051908082528060200260200182016040528015610ac757816020015b610ab4613514565b815260200190600190039081610aac5790505b50905060005b82811015610c5c576000848281518110610ae957610ae9613f22565b6020908102919091018101516001600160a01b03808a16600090815260078085526040808320858452865291829020825161016081018452815481526001820154851696810196909652600281015484169286019290925260038201548316606086015260048201546080860152600582015460ff908116151560a0870152600683015460c08701529082015490921660e0850152600881015461010085015260098101549091161515610120840152600a81018054929450909161014084019190610bb490613dc9565b80601f0160208091040260200160405190810160405280929190818152602001828054610be090613dc9565b8015610c2d5780601f10610c0257610100808354040283529160200191610c2d565b820191906000526020600020905b815481529060010190602001808311610c1057829003601f168201915b505050505081525050838381518110610c4857610c48613f22565b602090810291909101015250600101610acd565b50949350505050565b6060610c738585858561282d565b95945050505050565b60606002805480602002602001604051908101604052809291908181526020016000905b82821015610d4c578382906000526020600020018054610cbf90613dc9565b80601f0160208091040260200160405190810160405280929190818152602001828054610ceb90613dc9565b8015610d385780601f10610d0d57610100808354040283529160200191610d38565b820191906000526020600020905b815481529060010190602001808311610d1b57829003601f168201915b505050505081526020019060010190610ca0565b50505050905090565b6060610d73826040518060200160405280600081525060008061282d565b92915050565b610d81612fff565b6001600160a01b03831660009081526004602081905260409091200154600160a01b900460ff16610dc45760405162461bcd60e51b815260040161049790613d5d565b60008111610e145760405162461bcd60e51b815260206004820152601f60248201527f5072696365206d7573742062652067726561746572207468616e207a65726f006044820152606401610497565b600e543414610e5c5760405162461bcd60e51b81526020600482015260146024820152734d75737420706179206c697374696e672066656560601b6044820152606401610497565b60405163c87b56dd60e01b8152600481018390526000906001600160a01b0385169063c87b56dd90602401600060405180830381865afa158015610ea4573d6000803e3d6000fd5b505050506040513d6000823e601f3d908101601f19168201604052610ecc9190810190613f38565b9050604051806101600160405280848152602001856001600160a01b03168152602001336001600160a01b0316815260200160006001600160a01b031681526020018381526020016001151581526020016000815260200160006001600160a01b03168152602001600081526020016000151581526020018281525060076000866001600160a01b03166001600160a01b0316815260200190815260200160002060008581526020019081526020016000206000820151816000015560208201518160010160006101000a8154816001600160a01b0302191690836001600160a01b0316021790555060408201518160020160006101000a8154816001600160a01b0302191690836001600160a01b0316021790555060608201518160030160006101000a8154816001600160a01b0302191690836001600160a01b031602179055506080820151816004015560a08201518160050160006101000a81548160ff02191690831515021790555060c0820151816006015560e08201518160070160006101000a8154816001600160a01b0302191690836001600160a01b0316021790555061010082015181600801556101208201518160090160006101000a81548160ff02191690831515021790555061014082015181600a0190816110b29190613e51565b5050506001600160a01b038416600081815260086020908152604080832080546001810182559084529190922001859055516323b872dd60e01b81526323b872dd9061110690339030908890600401613fa5565b600060405180830381600087803b15801561112057600080fd5b505af1158015611134573d6000803e3d6000fd5b5050505082846001600160a01b03167f4e87d65c4baed28b185aa1f2f583850f4140e7ee01ee27c4e06f622d085b1bfc3360008660405161117793929190613fa5565b60405180910390a35061118a6001600055565b505050565b611197612fff565b6001600160a01b0380851660009081526007602090815260408083208784529091529020600281015490911633146112115760405162461bcd60e51b815260206004820152601d60248201527f4f6e6c792073656c6c65722063616e2073746172742061756374696f6e0000006044820152606401610497565b600981015460ff161561125b5760405162461bcd60e51b815260206004820152601260248201527120b63932b0b23c9037b71030bab1ba34b7b760711b6044820152606401610497565b60098101805460ff191660011790556004810183905561127b8242613fdf565b60069091015561128b6001600055565b50505050565b6112996127fa565b6112a36000613029565b565b6112ad612fff565b6001600160a01b03821660009081526007602090815260408083208484529091529020600581015460ff166113175760405162461bcd60e51b815260206004820152601060248201526f4974656d206e6f74206f6e2073616c6560801b6044820152606401610497565b600981015460ff16156113615760405162461bcd60e51b815260206004820152601260248201527124ba32b69034b99037b71030bab1ba34b7b760711b6044820152606401610497565b600034116113b15760405162461bcd60e51b815260206004820152601f60248201527f4f66666572206d7573742062652067726561746572207468616e207a65726f006044820152606401610497565b6001600160a01b038381166000818152600a6020908152604080832087845282528083208151606081018352338082523482860181815242848701908152855460018082018855968a52988890209451600390990290940180546001600160a01b03191698909a1697909717895595519288019290925551600290960195909555519182527f1819ba14baa7481a7b236a7888df8e0a32271ee6d12514a8c92da9f9bba73a6791015b60405180910390a35061146d6001600055565b5050565b611479613596565b6001600160a01b03821660009081526004602081905260409091200154600160a01b900460ff166114bc5760405162461bcd60e51b815260040161049790613d5d565b6001600160a01b038083166000908152600460209081526040808320815161012081019092528054909416815260018401805493949193919284019161150190613dc9565b80601f016020809104026020016040519081016040528092919081815260200182805461152d90613dc9565b801561157a5780601f1061154f5761010080835404028352916020019161157a565b820191906000526020600020905b81548152906001019060200180831161155d57829003601f168201915b5050505050815260200160028201805461159390613dc9565b80601f01602080910402602001604051908101604052809291908181526020018280546115bf90613dc9565b801561160c5780601f106115e15761010080835404028352916020019161160c565b820191906000526020600020905b8154815290600101906020018083116115ef57829003601f168201915b5050505050815260200160038201805461162590613dc9565b80601f016020809104026020016040519081016040528092919081815260200182805461165190613dc9565b801561169e5780601f106116735761010080835404028352916020019161169e565b820191906000526020600020905b81548152906001019060200180831161168157829003601f168201915b505050918352505060048201546001600160a01b0381166020830152600160a01b900460ff1615156040820152600582015460608201526006820180546080909201916116ea90613dc9565b80601f016020809104026020016040519081016040528092919081815260200182805461171690613dc9565b80156117635780601f1061173857610100808354040283529160200191611763565b820191906000526020600020905b81548152906001019060200180831161174657829003601f168201915b505050505081526020016007820154815250509050600061178384613083565b604080516080810182529384526020840191909152600090830181905260608301525092915050565b6117b4612fff565b6001600160a01b03821660009081526007602090815260408083208484529091529020600581015460ff166118215760405162461bcd60e51b81526020600482015260136024820152724974656d206973206e6f74206f6e2073616c6560681b6044820152606401610497565b600981015460ff161561186b5760405162461bcd60e51b815260206004820152601260248201527124ba32b69034b99037b71030bab1ba34b7b760711b6044820152606401610497565b806004015434146118be5760405162461bcd60e51b815260206004820152601e60248201527f506c65617365207375626d6974207468652061736b696e6720707269636500006044820152606401610497565b60058101805460ff191690556003810180546001600160a01b0319163317905560028101546040516001600160a01b0391909116903480156108fc02916000818181858888f1935050505015801561191a573d6000803e3d6000fd5b506040516323b872dd60e01b81526001600160a01b038416906323b872dd9061194b90309033908790600401613fa5565b600060405180830381600087803b15801561196557600080fd5b505af1158015611979573d6000803e3d6000fd5b5050336000818152600c602090815260408083206001600160a01b038a16845282528083208884528252808320805460ff19166001179055928252600d90529081208054935091506119ca83613ff2565b9091555050600281015460405183916001600160a01b03808716927f51ae5913afbfcae9abfe6b7888d00fe117a1b0e81f6c88017bccd98b6b4877d59261145a92169033903490613fa5565b6005546060906000816001600160401b03811115611a3657611a3661360f565b604051908082528060200260200182016040528015611a6f57816020015b611a5c613596565b815260200190600190039081611a545790505b50905060005b82811015611ad857600060058281548110611a9257611a92613f22565b6000918252602090912001546001600160a01b03169050611ab281611471565b838381518110611ac457611ac4613f22565b602090810291909101015250600101611a75565b5092915050565b611ae7612fff565b6001600160a01b03821660009081526007602090815260408083208484529091529020600981015460ff16611b4f5760405162461bcd60e51b815260206004820152600e60248201526d2737ba1030b71030bab1ba34b7b760911b6044820152606401610497565b80600601544210611b925760405162461bcd60e51b815260206004820152600d60248201526c105d58dd1a5bdb88195b991959609a1b6044820152606401610497565b80600801543411611bd35760405162461bcd60e51b815260206004820152600b60248201526a42696420746f6f206c6f7760a81b6044820152606401610497565b60078101546001600160a01b031615611c355760088101546001600160a01b0380851660009081526009602090815260408083208784528252808320600787015490941683529290529081208054909190611c2f908490613fdf565b90915550505b6007810180546001600160a01b031916331790553460089091015561146d6001600055565b6060600382604051611c6c9190613dad565b9081526040519081900360200190205460ff16611ccb5760405162461bcd60e51b815260206004820152601760248201527f43617465676f727920646f6573206e6f742065786973740000000000000000006044820152606401610497565b6000600683604051611cdd9190613dad565b9081526040805191829003602090810183208054808302850183019093528284529190830182828015611d3957602002820191906000526020600020905b81546001600160a01b03168152600190910190602001808311611d1b575b50505050509050600081516001600160401b03811115611d5b57611d5b61360f565b604051908082528060200260200182016040528015611d9457816020015b611d816134b4565b815260200190600190039081611d795790505b50905060005b82518110156120c65760046000848381518110611db957611db9613f22565b60200260200101516001600160a01b03166001600160a01b03168152602001908152602001600020604051806101200160405290816000820160009054906101000a90046001600160a01b03166001600160a01b03166001600160a01b03168152602001600182018054611e2c90613dc9565b80601f0160208091040260200160405190810160405280929190818152602001828054611e5890613dc9565b8015611ea55780601f10611e7a57610100808354040283529160200191611ea5565b820191906000526020600020905b815481529060010190602001808311611e8857829003601f168201915b50505050508152602001600282018054611ebe90613dc9565b80601f0160208091040260200160405190810160405280929190818152602001828054611eea90613dc9565b8015611f375780601f10611f0c57610100808354040283529160200191611f37565b820191906000526020600020905b815481529060010190602001808311611f1a57829003601f168201915b50505050508152602001600382018054611f5090613dc9565b80601f0160208091040260200160405190810160405280929190818152602001828054611f7c90613dc9565b8015611fc95780601f10611f9e57610100808354040283529160200191611fc9565b820191906000526020600020905b815481529060010190602001808311611fac57829003601f168201915b505050918352505060048201546001600160a01b0381166020830152600160a01b900460ff16151560408201526005820154606082015260068201805460809092019161201590613dc9565b80601f016020809104026020016040519081016040528092919081815260200182805461204190613dc9565b801561208e5780601f106120635761010080835404028352916020019161208e565b820191906000526020600020905b81548152906001019060200180831161207157829003601f168201915b505050505081526020016007820154815250508282815181106120b3576120b3613f22565b6020908102919091010152600101611d9a565b509392505050565b6001600160a01b0381166000908152600b6020908152604080832080548251818502810185019093528083526060949383018282801561213757602002820191906000526020600020905b81546001600160a01b03168152600190910190602001808311612119575b50505050509050600081516001600160401b038111156121595761215961360f565b60405190808252806020026020018201604052801561219257816020015b61217f613596565b8152602001906001900390816121775790505b50905060005b82518110156120c6576121c38382815181106121b6576121b6613f22565b6020026020010151611471565b8282815181106121d5576121d5613f22565b6020908102919091010152600101612198565b6121f06127fa565b6001600160a01b03811661221a57604051631e4fbdf760e01b815260006004820152602401610497565b61222381613029565b50565b6001600160a01b0381166000908152600d6020526040812054606091816001600160401b0381111561225a5761225a61360f565b60405190808252806020026020018201604052801561229357816020015b612280613514565b8152602001906001900390816122785790505b50925060005b60055481101561250b576000600582815481106122b8576122b8613f22565b60009182526020808320909101546001600160a01b03168083526008825260408084208054825181860281018601909352808352929550909290919083018282801561232357602002820191906000526020600020905b81548152602001906001019080831161230f575b5050505050905060005b815181101561250057600082828151811061234a5761234a613f22565b6020908102919091018101516001600160a01b03808c166000908152600c8452604080822092891682529184528181208382529093529091205490915060ff16156124f7576001600160a01b038085166000908152600760208181526040808420868552825292839020835161016081018552815481526001820154861692810192909252600281015485169382019390935260038301548416606082015260048301546080820152600583015460ff908116151560a0830152600684015460c08301529183015490931660e084015260088201546101008401526009820154161515610120830152600a810180546101408401919061244990613dc9565b80601f016020809104026020016040519081016040528092919081815260200182805461247590613dc9565b80156124c25780601f10612497576101008083540402835291602001916124c2565b820191906000526020600020905b8154815290600101906020018083116124a557829003601f168201915b5050505050815250508887815181106124dd576124dd613f22565b602002602001018190525085806124f390613ff2565b9650505b5060010161232d565b505050600101612299565b505050919050565b60006003826040516125259190613dad565b9081526040519081900360200190205460ff166125775760405162461bcd60e51b815260206004820152601060248201526f496e76616c69642063617465676f727960801b6044820152606401610497565b60003390506000868686308786604051612590906135c4565b61259f9695949392919061400b565b604051809103906000f0801580156125bb573d6000803e3d6000fd5b5060408051610120810182526001600160a01b0383811680835260208084018d81528486018d9052606085018b90528884166080860152600160a086018190524260c087015260e086018d905260006101008701819052938452600490925294909120835181546001600160a01b031916931692909217825592519394508493919290919082019061264d9082613e51565b50604082015160028201906126629082613e51565b50606082015160038201906126779082613e51565b50608082015160048201805460a08501511515600160a01b026001600160a81b03199091166001600160a01b039093169290921791909117905560c0820151600582015560e082015160068201906126cf9082613e51565b506101009190910151600790910155600580546001810182556000919091527f036b6384b5eca791c62761152d0c79bb0604c104a5fb6f4eb0703f3154bb3db00180546001600160a01b0319166001600160a01b03831617905560405160069061273a908790613dad565b9081526040519081900360209081018220805460018101825560009182529190200180546001600160a01b038085166001600160a01b03199092168217909255908516917f71e52b82baaa01cac022ab5ea5841b43558ed92065bcd5b35d2904226c03f1a5906127af908c908c908b90614083565b60405180910390a3336000908152600b602090815260408220805460018101825590835291200180546001600160a01b0319166001600160a01b038316179055979650505050505050565b6001546001600160a01b036101009091041633146112a35760405163118cdaa760e01b8152336004820152602401610497565b60606000805b600554811015612b8d576000600460006005848154811061285657612856613f22565b60009182526020808320909101546001600160a01b0390811684528382019490945260409283019091208251610120810190935280549093168252600183018054929392918401916128a790613dc9565b80601f01602080910402602001604051908101604052809291908181526020018280546128d390613dc9565b80156129205780601f106128f557610100808354040283529160200191612920565b820191906000526020600020905b81548152906001019060200180831161290357829003601f168201915b5050505050815260200160028201805461293990613dc9565b80601f016020809104026020016040519081016040528092919081815260200182805461296590613dc9565b80156129b25780601f10612987576101008083540402835291602001916129b2565b820191906000526020600020905b81548152906001019060200180831161299557829003601f168201915b505050505081526020016003820180546129cb90613dc9565b80601f01602080910402602001604051908101604052809291908181526020018280546129f790613dc9565b8015612a445780601f10612a1957610100808354040283529160200191612a44565b820191906000526020600020905b815481529060010190602001808311612a2757829003601f168201915b505050918352505060048201546001600160a01b0381166020830152600160a01b900460ff161515604082015260058201546060820152600682018054608090920191612a9090613dc9565b80601f0160208091040260200160405190810160405280929190818152602001828054612abc90613dc9565b8015612b095780601f10612ade57610100808354040283529160200191612b09565b820191906000526020600020905b815481529060010190602001808311612aec57829003601f168201915b5050505050815260200160078201548152505090508060a00151612b2d5750612b85565b6000612b5f60058481548110612b4557612b45613f22565b6000918252602090912001546001600160a01b0316613083565b9050612b6f828a8a848b8b6132b2565b15612b825783612b7e81613ff2565b9450505b50505b600101612833565b506000816001600160401b03811115612ba857612ba861360f565b604051908082528060200260200182016040528015612c2457816020015b612c116040518060e0016040528060006001600160a01b0316815260200160608152602001606081526020016060815260200160008152602001600081526020016000151581525090565b815260200190600190039081612bc65790505b5090506000805b60055481108015612c3b57508382105b15612ff25760006004600060058481548110612c5957612c59613f22565b60009182526020808320909101546001600160a01b039081168452838201949094526040928301909120825161012081019093528054909316825260018301805492939291840191612caa90613dc9565b80601f0160208091040260200160405190810160405280929190818152602001828054612cd690613dc9565b8015612d235780601f10612cf857610100808354040283529160200191612d23565b820191906000526020600020905b815481529060010190602001808311612d0657829003601f168201915b50505050508152602001600282018054612d3c90613dc9565b80601f0160208091040260200160405190810160405280929190818152602001828054612d6890613dc9565b8015612db55780601f10612d8a57610100808354040283529160200191612db5565b820191906000526020600020905b815481529060010190602001808311612d9857829003601f168201915b50505050508152602001600382018054612dce90613dc9565b80601f0160208091040260200160405190810160405280929190818152602001828054612dfa90613dc9565b8015612e475780601f10612e1c57610100808354040283529160200191612e47565b820191906000526020600020905b815481529060010190602001808311612e2a57829003601f168201915b505050918352505060048201546001600160a01b0381166020830152600160a01b900460ff161515604082015260058201546060820152600682018054608090920191612e9390613dc9565b80601f0160208091040260200160405190810160405280929190818152602001828054612ebf90613dc9565b8015612f0c5780601f10612ee157610100808354040283529160200191612f0c565b820191906000526020600020905b815481529060010190602001808311612eef57829003601f168201915b5050505050815260200160078201548152505090508060a00151612f305750612fe0565b6000612f4860058481548110612b4557612b45613f22565b9050612f58828c8c848d8d6132b2565b15612fdd576040518060e0016040528083600001516001600160a01b03168152602001836020015181526020018360400151815260200183606001518152602001836101000151815260200182815260200160011515815250858581518110612fc357612fc3613f22565b60200260200101819052508380612fd990613ff2565b9450505b50505b80612fea81613ff2565b915050612c2b565b5090979650505050505050565b60026000540361302257604051633ee5aeb560e01b815260040160405180910390fd5b6002600055565b600180546001600160a01b03838116610100818102610100600160a81b031985161790945560405193909204169182907f8be0079c531659141344cd1fd0a4f28419497f9722a3daafe3b4186f6b6457e090600090a35050565b6001600160a01b0381166000908152600860209081526040808320805482518185028101850190935280835284938301828280156130e057602002820191906000526020600020905b8154815260200190600101908083116130cc575b505050505090506000600019905060005b8251811015613297576001600160a01b03851660009081526007602052604081208451829086908590811061312857613128613f22565b60209081029190910181015182528181019290925260409081016000208151610160810183528154815260018201546001600160a01b0390811694820194909452600282015484169281019290925260038101548316606083015260048101546080830152600581015460ff908116151560a0840152600682015460c0840152600782015490931660e0830152600881015461010083015260098101549092161515610120820152600a82018054919291610140840191906131e990613dc9565b80601f016020809104026020016040519081016040528092919081815260200182805461321590613dc9565b80156132625780601f1061323757610100808354040283529160200191613262565b820191906000526020600020905b81548152906001019060200180831161324557829003601f168201915b50505050508152505090508060a0015180156132815750828160800151105b1561328e57806080015192505b506001016130f1565b5060001981146132a757806132aa565b60005b949350505050565b6000808651600014806132ce57506132ce886020015188613347565b806132e257506132e2886040015188613347565b905060008651600014806132ff57506132ff896060015188613347565b905060008515806133105750858710155b801561332457508415806133245750848711155b90508280156133305750815b80156133395750805b9a9950505050505050505050565b805160009083908390830361336157600192505050610d73565b80518251101561337657600092505050610d73565b60005b8151835161338791906140c6565b81116134a857600160005b8351811015613481576000856133a88386613fdf565b815181106133b8576133b8613f22565b602001015160f81c60f81b905060008583815181106133d9576133d9613f22565b01602001516001600160f81b03199081169150604160f81b908316108015906134105750602d60f91b6001600160f81b0319831611155b1561342057600160fd1b91909117905b604160f81b6001600160f81b031982161080159061344c5750602d60f91b6001600160f81b0319821611155b1561345857600160fd1b175b6001600160f81b03198281169082161461347757600093505050613481565b5050600101613392565b508015613495576001945050505050610d73565b50806134a081613ff2565b915050613379565b50600095945050505050565b60405180610120016040528060006001600160a01b0316815260200160608152602001606081526020016060815260200160006001600160a01b031681526020016000151581526020016000815260200160608152602001600081525090565b6040518061016001604052806000815260200160006001600160a01b0316815260200160006001600160a01b0316815260200160006001600160a01b03168152602001600081526020016000151581526020016000815260200160006001600160a01b0316815260200160008152602001600015158152602001606081525090565b60405180608001604052806135a96134b4565b81526020016000815260200160008152602001600081525090565b61199e806140da83390190565b80356001600160a01b03811681146135e857600080fd5b919050565b6000602082840312156135ff57600080fd5b613608826135d1565b9392505050565b634e487b7160e01b600052604160045260246000fd5b604051601f8201601f191681016001600160401b038111828210171561364d5761364d61360f565b604052919050565b60006001600160401b0382111561366e5761366e61360f565b50601f01601f191660200190565b600082601f83011261368d57600080fd5b81356136a061369b82613655565b613625565b8181528460208386010111156136b557600080fd5b816020850160208301376000918101602001919091529392505050565b6000602082840312156136e457600080fd5b81356001600160401b038111156136fa57600080fd5b6132aa8482850161367c565b60005b83811015613721578181015183820152602001613709565b50506000910152565b60008151808452613742816020860160208601613706565b601f01601f19169290920160200192915050565b80516001600160a01b0316825260006020820151610120602085015261378061012085018261372a565b905060408301518482036040860152613799828261372a565b915050606083015184820360608601526137b3828261372a565b91505060808301516137d060808601826001600160a01b03169052565b5060a08301516137e460a086018215159052565b5060c083015160c085015260e083015184820360e0860152613806828261372a565b9150506101008301516101008501528091505092915050565b6020815260006136086020830184613756565b6000602082016020835280845180835260408501915060408160051b86010192506020860160005b8281101561395c57603f19878603018452815180518652602081015161388b60208801826001600160a01b03169052565b5060408101516138a660408801826001600160a01b03169052565b5060608101516138c160608801826001600160a01b03169052565b506080810151608087015260a08101516138df60a088018215159052565b5060c081015160c087015260e081015161390460e08801826001600160a01b03169052565b5061010081015161010087015261012081015161392661012088018215159052565b50610140810151905061016061014087015261394661016087018261372a565b955050602093840193919091019060010161385a565b50929695505050505050565b6000806000806080858703121561397e57600080fd5b84356001600160401b0381111561399457600080fd5b6139a08782880161367c565b94505060208501356001600160401b038111156139bc57600080fd5b6139c88782880161367c565b949794965050505060408301359260600135919050565b6000602082016020835280845180835260408501915060408160051b86010192506020860160005b8281101561395c57868503603f19018452815180516001600160a01b0316865260208082015160e091880182905290613a429088018261372a565b905060408201518782036040890152613a5b828261372a565b91505060608201518782036060890152613a75828261372a565b608084810151908a015260a080850151908a015260c0938401511515939098019290925250506020938401939190910190600101613a07565b6000602082016020835280845180835260408501915060408160051b86010192506020860160005b8281101561395c57603f19878603018452613af285835161372a565b94506020938401939190910190600101613ad6565b600080600060608486031215613b1c57600080fd5b613b25846135d1565b95602085013595506040909401359392505050565b60008060008060808587031215613b5057600080fd5b613b59856135d1565b966020860135965060408601359560600135945092505050565b60008060408385031215613b8657600080fd5b613b8f836135d1565b946020939093013593505050565b6000815160808452613bb26080850182613756565b90506020830151602085015260408301516040850152606083015160608501528091505092915050565b6020815260006136086020830184613b9d565b6000602082016020835280845180835260408501915060408160051b86010192506020860160005b8281101561395c57603f19878603018452613c33858351613b9d565b94506020938401939190910190600101613c17565b6000602082016020835280845180835260408501915060408160051b86010192506020860160005b8281101561395c57603f19878603018452613c8c858351613756565b94506020938401939190910190600101613c70565b60008060008060808587031215613cb757600080fd5b84356001600160401b03811115613ccd57600080fd5b613cd98782880161367c565b94505060208501356001600160401b03811115613cf557600080fd5b613d018782880161367c565b93505060408501356001600160401b03811115613d1d57600080fd5b613d298782880161367c565b92505060608501356001600160401b03811115613d4557600080fd5b613d518782880161367c565b91505092959194509250565b60208082526019908201527f436f6c6c656374696f6e20646f6573206e6f7420657869737400000000000000604082015260600190565b600060208284031215613da657600080fd5b5051919050565b60008251613dbf818460208701613706565b9190910192915050565b600181811c90821680613ddd57607f821691505b602082108103613dfd57634e487b7160e01b600052602260045260246000fd5b50919050565b601f82111561118a57806000526020600020601f840160051c81016020851015613e2a5750805b601f840160051c820191505b81811015613e4a5760008155600101613e36565b5050505050565b81516001600160401b03811115613e6a57613e6a61360f565b613e7e81613e788454613dc9565b84613e03565b6020601f821160018114613eb25760008315613e9a5750848201515b600019600385901b1c1916600184901b178455613e4a565b600084815260208120601f198516915b82811015613ee25787850151825560209485019460019092019101613ec2565b5084821015613f005786840151600019600387901b60f8161c191681555b50505050600190811b01905550565b602081526000613608602083018461372a565b634e487b7160e01b600052603260045260246000fd5b600060208284031215613f4a57600080fd5b81516001600160401b03811115613f6057600080fd5b8201601f81018413613f7157600080fd5b8051613f7f61369b82613655565b818152856020838501011115613f9457600080fd5b610c73826020830160208601613706565b6001600160a01b039384168152919092166020820152604081019190915260600190565b634e487b7160e01b600052601160045260246000fd5b80820180821115610d7357610d73613fc9565b60006001820161400457614004613fc9565b5060010190565b60c08152600061401e60c083018961372a565b8281036020840152614030818961372a565b90508281036040840152614044818861372a565b6001600160a01b038716606085015283810360808501529050614067818661372a565b91505060018060a01b03831660a0830152979650505050505050565b606081526000614096606083018661372a565b82810360208401526140a8818661372a565b905082810360408401526140bc818561372a565b9695505050505050565b81810381811115610d7357610d73613fc956fe608060405234801561001057600080fd5b5060405161199e38038061199e83398101604081905261002f916101ed565b808686600061003e8382610357565b50600161004b8282610357565b5050506001600160a01b03811661007c57604051631e4fbdf760e01b81526000600482015260240160405180910390fd5b610085816100c6565b5060096100928582610357565b50600a80546001600160a01b0319166001600160a01b038516179055600b6100ba8382610357565b50505050505050610415565b600780546001600160a01b038381166001600160a01b0319831681179093556040519116919082907f8be0079c531659141344cd1fd0a4f28419497f9722a3daafe3b4186f6b6457e090600090a35050565b634e487b7160e01b600052604160045260246000fd5b600082601f83011261013f57600080fd5b81516001600160401b0381111561015857610158610118565b604051601f8201601f19908116603f011681016001600160401b038111828210171561018657610186610118565b60405281815283820160200185101561019e57600080fd5b60005b828110156101bd576020818601810151838301820152016101a1565b506000918101602001919091529392505050565b80516001600160a01b03811681146101e857600080fd5b919050565b60008060008060008060c0878903121561020657600080fd5b86516001600160401b0381111561021c57600080fd5b61022889828a0161012e565b602089015190975090506001600160401b0381111561024657600080fd5b61025289828a0161012e565b604089015190965090506001600160401b0381111561027057600080fd5b61027c89828a0161012e565b94505061028b606088016101d1565b60808801519093506001600160401b038111156102a757600080fd5b6102b389828a0161012e565b9250506102c260a088016101d1565b90509295509295509295565b600181811c908216806102e257607f821691505b60208210810361030257634e487b7160e01b600052602260045260246000fd5b50919050565b601f82111561035257806000526020600020601f840160051c8101602085101561032f5750805b601f840160051c820191505b8181101561034f576000815560010161033b565b50505b505050565b81516001600160401b0381111561037057610370610118565b6103848161037e84546102ce565b84610308565b6020601f8211600181146103b857600083156103a05750848201515b600019600385901b1c1916600184901b17845561034f565b600084815260208120601f198516915b828110156103e857878501518255602094850194600190920191016103c8565b50848210156104065786840151600019600387901b60f8161c191681555b50505050600190811b01905550565b61157a806104246000396000f3fe608060405234801561001057600080fd5b50600436106101375760003560e01c8063715018a6116100b8578063c87b56dd1161007c578063c87b56dd14610266578063d0def52114610279578063daa17f491461028c578063e985e9c51461029f578063ef430aa6146102b2578063f2fde38b146102ba57600080fd5b8063715018a61461021f5780638da5cb5b1461022757806395d89b4114610238578063a22cb46514610240578063b88d4fde1461025357600080fd5b806323b872dd116100ff57806323b872dd146101cb57806342842e0e146101de5780636352211e146101f15780636c0360eb1461020457806370a082311461020c57600080fd5b806301ffc9a71461013c57806306fdde0314610164578063081812fc14610179578063095ea7b3146101a457806318160ddd146101b9575b600080fd5b61014f61014a366004611040565b6102cd565b60405190151581526020015b60405180910390f35b61016c6102f8565b60405161015b91906110ad565b61018c6101873660046110c0565b61038a565b6040516001600160a01b03909116815260200161015b565b6101b76101b23660046110f5565b6103b3565b005b6008545b60405190815260200161015b565b6101b76101d936600461111f565b6103c2565b6101b76101ec36600461111f565b610452565b61018c6101ff3660046110c0565b610472565b61016c61047d565b6101bd61021a36600461115c565b61050b565b6101b7610553565b6007546001600160a01b031661018c565b61016c610567565b6101b761024e366004611177565b610576565b6101b7610261366004611243565b610581565b61016c6102743660046110c0565b610599565b6101bd6102873660046112bf565b6106aa565b600a5461018c906001600160a01b031681565b61014f6102ad366004611321565b610745565b61016c610773565b6101b76102c836600461115c565b610780565b60006001600160e01b03198216632483248360e11b14806102f257506102f2826107be565b92915050565b60606000805461030790611354565b80601f016020809104026020016040519081016040528092919081815260200182805461033390611354565b80156103805780601f1061035557610100808354040283529160200191610380565b820191906000526020600020905b81548152906001019060200180831161036357829003601f168201915b5050505050905090565b60006103958261080e565b506000828152600460205260409020546001600160a01b03166102f2565b6103be828233610847565b5050565b6001600160a01b0382166103f157604051633250574960e11b8152600060048201526024015b60405180910390fd5b60006103fe838333610854565b9050836001600160a01b0316816001600160a01b03161461044c576040516364283d7b60e01b81526001600160a01b03808616600483015260248201849052821660448201526064016103e8565b50505050565b61046d83838360405180602001604052806000815250610581565b505050565b60006102f28261080e565b6009805461048a90611354565b80601f01602080910402602001604051908101604052809291908181526020018280546104b690611354565b80156105035780601f106104d857610100808354040283529160200191610503565b820191906000526020600020905b8154815290600101906020018083116104e657829003601f168201915b505050505081565b60006001600160a01b038216610537576040516322718ad960e21b8152600060048201526024016103e8565b506001600160a01b031660009081526003602052604090205490565b61055b61094d565b610565600061097a565b565b60606001805461030790611354565b6103be3383836109cc565b61058c8484846103c2565b61044c3385858585610a6b565b60606105a48261080e565b50600082815260066020526040812080546105be90611354565b80601f01602080910402602001604051908101604052809291908181526020018280546105ea90611354565b80156106375780601f1061060c57610100808354040283529160200191610637565b820191906000526020600020905b81548152906001019060200180831161061a57829003601f168201915b50505050509050600061065560408051602081019091526000815290565b90508051600003610667575092915050565b81511561069957808260405160200161068192919061138e565b60405160208183030381529060405292505050919050565b6106a284610b96565b949350505050565b60006106b461094d565b600880549060006106c4836113bd565b90915550506008546106d68482610c0b565b6106e08184610c25565b600a54604051630b62a86f60e11b81523060048201526001600160a01b03909116906316c550de90602401600060405180830381600087803b15801561072557600080fd5b505af1158015610739573d6000803e3d6000fd5b50929695505050505050565b6001600160a01b03918216600090815260056020908152604080832093909416825291909152205460ff1690565b600b805461048a90611354565b61078861094d565b6001600160a01b0381166107b257604051631e4fbdf760e01b8152600060048201526024016103e8565b6107bb8161097a565b50565b60006001600160e01b031982166380ac58cd60e01b14806107ef57506001600160e01b03198216635b5e139f60e01b145b806102f257506301ffc9a760e01b6001600160e01b03198316146102f2565b6000818152600260205260408120546001600160a01b0316806102f257604051637e27328960e01b8152600481018490526024016103e8565b61046d8383836001610c75565b6000828152600260205260408120546001600160a01b039081169083161561088157610881818486610d7b565b6001600160a01b038116156108bf5761089e600085600080610c75565b6001600160a01b038116600090815260036020526040902080546000190190555b6001600160a01b038516156108ee576001600160a01b0385166000908152600360205260409020805460010190555b60008481526002602052604080822080546001600160a01b0319166001600160a01b0389811691821790925591518793918516917fddf252ad1be2c89b69c2b068fc378daa952ba7f163c4a11628f55a4df523b3ef91a4949350505050565b6007546001600160a01b031633146105655760405163118cdaa760e01b81523360048201526024016103e8565b600780546001600160a01b038381166001600160a01b0319831681179093556040519116919082907f8be0079c531659141344cd1fd0a4f28419497f9722a3daafe3b4186f6b6457e090600090a35050565b6001600160a01b0382166109fe57604051630b61174360e31b81526001600160a01b03831660048201526024016103e8565b6001600160a01b03838116600081815260056020908152604080832094871680845294825291829020805460ff191686151590811790915591519182527f17307eab39ab6107e8899845ad3d59bd9653f200f220920489ca2b5937696c31910160405180910390a3505050565b6001600160a01b0383163b15610b8f57604051630a85bd0160e11b81526001600160a01b0384169063150b7a0290610aad9088908890879087906004016113e4565b6020604051808303816000875af1925050508015610ae8575060408051601f3d908101601f19168201909252610ae591810190611421565b60015b610b51573d808015610b16576040519150601f19603f3d011682016040523d82523d6000602084013e610b1b565b606091505b508051600003610b4957604051633250574960e11b81526001600160a01b03851660048201526024016103e8565b805181602001fd5b6001600160e01b03198116630a85bd0160e11b14610b8d57604051633250574960e11b81526001600160a01b03851660048201526024016103e8565b505b5050505050565b6060610ba18261080e565b506000610bb960408051602081019091526000815290565b90506000815111610bd95760405180602001604052806000815250610c04565b80610be384610ddf565b604051602001610bf492919061138e565b6040516020818303038152906040525b9392505050565b6103be828260405180602001604052806000815250610e72565b6000828152600660205260409020610c3d8282611485565b506040518281527ff8e1a15aba9398e019f0b49df1a4fde98ee17ae345cb5f6b5e2c27f5033e8ce79060200160405180910390a15050565b8080610c8957506001600160a01b03821615155b15610d4b576000610c998461080e565b90506001600160a01b03831615801590610cc55750826001600160a01b0316816001600160a01b031614155b8015610cd85750610cd68184610745565b155b15610d015760405163a9fbf51f60e01b81526001600160a01b03841660048201526024016103e8565b8115610d495783856001600160a01b0316826001600160a01b03167f8c5be1e5ebec7d5bd14f71427d1e84f3dd0314c0f7b2291e5b200ac8c7c3b92560405160405180910390a45b505b5050600090815260046020526040902080546001600160a01b0319166001600160a01b0392909216919091179055565b610d86838383610e8a565b61046d576001600160a01b038316610db457604051637e27328960e01b8152600481018290526024016103e8565b60405163177e802f60e01b81526001600160a01b0383166004820152602481018290526044016103e8565b60606000610dec83610eed565b600101905060008167ffffffffffffffff811115610e0c57610e0c6111b3565b6040519080825280601f01601f191660200182016040528015610e36576020820181803683370190505b5090508181016020015b600019016f181899199a1a9b1b9c1cb0b131b232b360811b600a86061a8153600a8504945084610e4057509392505050565b610e7c8383610fc5565b61046d336000858585610a6b565b60006001600160a01b038316158015906106a25750826001600160a01b0316846001600160a01b03161480610ec45750610ec48484610745565b806106a25750506000908152600460205260409020546001600160a01b03908116911614919050565b60008072184f03e93ff9f4daa797ed6e38ed64bf6a1f0160401b8310610f2c5772184f03e93ff9f4daa797ed6e38ed64bf6a1f0160401b830492506040015b6d04ee2d6d415b85acef81000000008310610f58576d04ee2d6d415b85acef8100000000830492506020015b662386f26fc100008310610f7657662386f26fc10000830492506010015b6305f5e1008310610f8e576305f5e100830492506008015b6127108310610fa257612710830492506004015b60648310610fb4576064830492506002015b600a83106102f25760010192915050565b6001600160a01b038216610fef57604051633250574960e11b8152600060048201526024016103e8565b6000610ffd83836000610854565b90506001600160a01b0381161561046d576040516339e3563760e11b8152600060048201526024016103e8565b6001600160e01b0319811681146107bb57600080fd5b60006020828403121561105257600080fd5b8135610c048161102a565b60005b83811015611078578181015183820152602001611060565b50506000910152565b6000815180845261109981602086016020860161105d565b601f01601f19169290920160200192915050565b602081526000610c046020830184611081565b6000602082840312156110d257600080fd5b5035919050565b80356001600160a01b03811681146110f057600080fd5b919050565b6000806040838503121561110857600080fd5b611111836110d9565b946020939093013593505050565b60008060006060848603121561113457600080fd5b61113d846110d9565b925061114b602085016110d9565b929592945050506040919091013590565b60006020828403121561116e57600080fd5b610c04826110d9565b6000806040838503121561118a57600080fd5b611193836110d9565b9150602083013580151581146111a857600080fd5b809150509250929050565b634e487b7160e01b600052604160045260246000fd5b60008067ffffffffffffffff8411156111e4576111e46111b3565b50604051601f19601f85018116603f0116810181811067ffffffffffffffff82111715611213576112136111b3565b60405283815290508082840185101561122b57600080fd5b83836020830137600060208583010152509392505050565b6000806000806080858703121561125957600080fd5b611262856110d9565b9350611270602086016110d9565b925060408501359150606085013567ffffffffffffffff81111561129357600080fd5b8501601f810187136112a457600080fd5b6112b3878235602084016111c9565b91505092959194509250565b600080604083850312156112d257600080fd5b6112db836110d9565b9150602083013567ffffffffffffffff8111156112f757600080fd5b8301601f8101851361130857600080fd5b611317858235602084016111c9565b9150509250929050565b6000806040838503121561133457600080fd5b61133d836110d9565b915061134b602084016110d9565b90509250929050565b600181811c9082168061136857607f821691505b60208210810361138857634e487b7160e01b600052602260045260246000fd5b50919050565b600083516113a081846020880161105d565b8351908301906113b481836020880161105d565b01949350505050565b6000600182016113dd57634e487b7160e01b600052601160045260246000fd5b5060010190565b6001600160a01b038581168252841660208201526040810183905260806060820181905260009061141790830184611081565b9695505050505050565b60006020828403121561143357600080fd5b8151610c048161102a565b601f82111561046d57806000526020600020601f840160051c810160208510156114655750805b601f840160051c820191505b81811015610b8f5760008155600101611471565b815167ffffffffffffffff81111561149f5761149f6111b3565b6114b3816114ad8454611354565b8461143e565b6020601f8211600181146114e757600083156114cf5750848201515b600019600385901b1c1916600184901b178455610b8f565b600084815260208120601f198516915b8281101561151757878501518255602094850194600190920191016114f7565b50848210156115355786840151600019600387901b60f8161c191681555b50505050600190811b0190555056fea26469706673582212204498a81d29b5666fef35c08ea88c56c9954d56450aa6d301eecd8f4425f7a62264736f6c634300081c0033a264697066735822122081b5fd38f2ee77d16fc10e7a0ab2813d6df19105885a8e64250f4940a55be36564736f6c634300081c0033",
  "linkReferences": {},
  "deployedLinkReferences": {}
}