{
  "_format": "hh-sol-artifact-1",
  "contractName": "NFTMarketplace",
  "sourceName": "contracts/NFTMarketplace.sol",
  "abi": [
    {
      "inputs": [],
      "stateMutability": "nonpayable",
      "type": "constructor"
    },
    {
      "inputs": [],
      "name": "EnforcedPause",
      "type": "error"
    },
    {
      "inputs": [],
      "name": "ExpectedPause",
      "type": "error"
    },
    {
      "inputs": [
        {
          "internalType": "address",
          "name": "owner",
          "type": "address"
        }
      ],
      "name": "OwnableInvalidOwner",
      "type": "error"
    },
    {
      "inputs": [
        {
          "internalType": "address",
          "name": "account",
          "type": "address"
        }
      ],
      "name": "OwnableUnauthorizedAccount",
      "type": "error"
    },
    {
      "inputs": [],
      "name": "ReentrancyGuardReentrantCall",
      "type": "error"
    },
    {
      "anonymous": false,
      "inputs": [
        {
          "indexed": false,
          "internalType": "string",
          "name": "category",
          "type": "string"
        }
      ],
      "name": "CategoryAdded",
      "type": "event"
    },
    {
      "anonymous": false,
      "inputs": [
        {
          "indexed": true,
          "internalType": "address",
          "name": "collectionAddress",
          "type": "address"
        },
        {
          "indexed": false,
          "internalType": "string",
          "name": "name",
          "type": "string"
        },
        {
          "indexed": false,
          "internalType": "string",
          "name": "symbol",
          "type": "string"
        },
        {
          "indexed": false,
          "internalType": "string",
          "name": "category",
          "type": "string"
        },
        {
          "indexed": true,
          "internalType": "address",
          "name": "owner",
          "type": "address"
        }
      ],
      "name": "CollectionCreated",
      "type": "event"
    },
    {
      "anonymous": false,
      "inputs": [
        {
          "indexed": true,
          "internalType": "address",
          "name": "collectionAddress",
          "type": "address"
        },
        {
          "indexed": true,
          "internalType": "uint256",
          "name": "tokenId",
          "type": "uint256"
        },
        {
          "indexed": false,
          "internalType": "address",
          "name": "seller",
          "type": "address"
        },
        {
          "indexed": false,
          "internalType": "address",
          "name": "owner",
          "type": "address"
        },
        {
          "indexed": false,
          "internalType": "uint256",
          "name": "price",
          "type": "uint256"
        }
      ],
      "name": "MarketItemCreated",
      "type": "event"
    },
    {
      "anonymous": false,
      "inputs": [
        {
          "indexed": true,
          "internalType": "address",
          "name": "collectionAddress",
          "type": "address"
        },
        {
          "indexed": true,
          "internalType": "uint256",
          "name": "tokenId",
          "type": "uint256"
        },
        {
          "indexed": false,
          "internalType": "address",
          "name": "seller",
          "type": "address"
        },
        {
          "indexed": false,
          "internalType": "address",
          "name": "owner",
          "type": "address"
        },
        {
          "indexed": false,
          "internalType": "uint256",
          "name": "price",
          "type": "uint256"
        }
      ],
      "name": "MarketItemSold",
      "type": "event"
    },
    {
      "anonymous": false,
      "inputs": [
        {
          "indexed": true,
          "internalType": "address",
          "name": "collectionAddress",
          "type": "address"
        },
        {
          "indexed": true,
          "internalType": "address",
          "name": "buyer",
          "type": "address"
        },
        {
          "indexed": false,
          "internalType": "uint256",
          "name": "price",
          "type": "uint256"
        }
      ],
      "name": "OfferCreated",
      "type": "event"
    },
    {
      "anonymous": false,
      "inputs": [
        {
          "indexed": true,
          "internalType": "address",
          "name": "previousOwner",
          "type": "address"
        },
        {
          "indexed": true,
          "internalType": "address",
          "name": "newOwner",
          "type": "address"
        }
      ],
      "name": "OwnershipTransferred",
      "type": "event"
    },
    {
      "anonymous": false,
      "inputs": [
        {
          "indexed": false,
          "internalType": "address",
          "name": "account",
          "type": "address"
        }
      ],
      "name": "Paused",
      "type": "event"
    },
    {
      "anonymous": false,
      "inputs": [
        {
          "indexed": false,
          "internalType": "address",
          "name": "account",
          "type": "address"
        }
      ],
      "name": "Unpaused",
      "type": "event"
    },
    {
      "inputs": [
        {
          "internalType": "string",
          "name": "category",
          "type": "string"
        }
      ],
      "name": "addCategory",
      "outputs": [],
      "stateMutability": "nonpayable",
      "type": "function"
    },
    {
      "inputs": [
        {
          "internalType": "address",
          "name": "collectionAddress",
          "type": "address"
        },
        {
          "internalType": "uint256",
          "name": "tokenId",
          "type": "uint256"
        },
        {
          "internalType": "uint256",
          "name": "startingPrice",
          "type": "uint256"
        },
        {
          "internalType": "uint256",
          "name": "duration",
          "type": "uint256"
        }
      ],
      "name": "createAuction",
      "outputs": [],
      "stateMutability": "nonpayable",
      "type": "function"
    },
    {
      "inputs": [
        {
          "internalType": "string",
          "name": "name",
          "type": "string"
        },
        {
          "internalType": "string",
          "name": "symbol",
          "type": "string"
        },
        {
          "internalType": "string",
          "name": "baseURI",
          "type": "string"
        },
        {
          "internalType": "string",
          "name": "category",
          "type": "string"
        }
      ],
      "name": "createCollection",
      "outputs": [
        {
          "internalType": "address",
          "name": "",
          "type": "address"
        }
      ],
      "stateMutability": "nonpayable",
      "type": "function"
    },
    {
      "inputs": [
        {
          "internalType": "address",
          "name": "collectionAddress",
          "type": "address"
        },
        {
          "internalType": "uint256",
          "name": "tokenId",
          "type": "uint256"
        },
        {
          "internalType": "uint256",
          "name": "price",
          "type": "uint256"
        }
      ],
      "name": "createMarketItem",
      "outputs": [],
      "stateMutability": "payable",
      "type": "function"
    },
    {
      "inputs": [
        {
          "internalType": "address",
          "name": "collectionAddress",
          "type": "address"
        },
        {
          "internalType": "uint256",
          "name": "tokenId",
          "type": "uint256"
        }
      ],
      "name": "createMarketSale",
      "outputs": [],
      "stateMutability": "payable",
      "type": "function"
    },
    {
      "inputs": [
        {
          "internalType": "address",
          "name": "collectionAddress",
          "type": "address"
        }
      ],
      "name": "fetchCollectionDetails",
      "outputs": [
        {
          "components": [
            {
              "components": [
                {
                  "internalType": "address",
                  "name": "collectionAddress",
                  "type": "address"
                },
                {
                  "internalType": "string",
                  "name": "name",
                  "type": "string"
                },
                {
                  "internalType": "string",
                  "name": "symbol",
                  "type": "string"
                },
                {
                  "internalType": "string",
                  "name": "category",
                  "type": "string"
                },
                {
                  "internalType": "address",
                  "name": "owner",
                  "type": "address"
                },
                {
                  "internalType": "bool",
                  "name": "isActive",
                  "type": "bool"
                },
                {
                  "internalType": "uint256",
                  "name": "createdAt",
                  "type": "uint256"
                },
                {
                  "internalType": "string",
                  "name": "baseURI",
                  "type": "string"
                },
                {
                  "internalType": "uint256",
                  "name": "totalSupply",
                  "type": "uint256"
                }
              ],
              "internalType": "struct NFTMarketplace.Collection",
              "name": "basic",
              "type": "tuple"
            },
            {
              "internalType": "uint256",
              "name": "floorPrice",
              "type": "uint256"
            },
            {
              "internalType": "uint256",
              "name": "totalVolume",
              "type": "uint256"
            },
            {
              "internalType": "uint256",
              "name": "ownerCount",
              "type": "uint256"
            }
          ],
          "internalType": "struct NFTMarketplace.CollectionDetails",
          "name": "",
          "type": "tuple"
        }
      ],
      "stateMutability": "view",
      "type": "function"
    },
    {
      "inputs": [
        {
          "internalType": "address",
          "name": "collectionAddress",
          "type": "address"
        }
      ],
      "name": "fetchCollectionItems",
      "outputs": [
        {
          "components": [
            {
              "internalType": "uint256",
              "name": "tokenId",
              "type": "uint256"
            },
            {
              "internalType": "address",
              "name": "nftContract",
              "type": "address"
            },
            {
              "internalType": "address",
              "name": "seller",
              "type": "address"
            },
            {
              "internalType": "address",
              "name": "owner",
              "type": "address"
            },
            {
              "internalType": "uint256",
              "name": "price",
              "type": "uint256"
            },
            {
              "internalType": "bool",
              "name": "isOnSale",
              "type": "bool"
            },
            {
              "internalType": "uint256",
              "name": "auctionEndTime",
              "type": "uint256"
            },
            {
              "internalType": "address",
              "name": "highestBidder",
              "type": "address"
            },
            {
              "internalType": "uint256",
              "name": "highestBid",
              "type": "uint256"
            },
            {
              "internalType": "bool",
              "name": "isAuction",
              "type": "bool"
            },
            {
              "internalType": "string",
              "name": "tokenURI",
              "type": "string"
            }
          ],
          "internalType": "struct NFTMarketplace.MarketItem[]",
          "name": "",
          "type": "tuple[]"
        }
      ],
      "stateMutability": "view",
      "type": "function"
    },
    {
      "inputs": [],
      "name": "fetchCollections",
      "outputs": [
        {
          "components": [
            {
              "components": [
                {
                  "internalType": "address",
                  "name": "collectionAddress",
                  "type": "address"
                },
                {
                  "internalType": "string",
                  "name": "name",
                  "type": "string"
                },
                {
                  "internalType": "string",
                  "name": "symbol",
                  "type": "string"
                },
                {
                  "internalType": "string",
                  "name": "category",
                  "type": "string"
                },
                {
                  "internalType": "address",
                  "name": "owner",
                  "type": "address"
                },
                {
                  "internalType": "bool",
                  "name": "isActive",
                  "type": "bool"
                },
                {
                  "internalType": "uint256",
                  "name": "createdAt",
                  "type": "uint256"
                },
                {
                  "internalType": "string",
                  "name": "baseURI",
                  "type": "string"
                },
                {
                  "internalType": "uint256",
                  "name": "totalSupply",
                  "type": "uint256"
                }
              ],
              "internalType": "struct NFTMarketplace.Collection",
              "name": "basic",
              "type": "tuple"
            },
            {
              "internalType": "uint256",
              "name": "floorPrice",
              "type": "uint256"
            },
            {
              "internalType": "uint256",
              "name": "totalVolume",
              "type": "uint256"
            },
            {
              "internalType": "uint256",
              "name": "ownerCount",
              "type": "uint256"
            }
          ],
          "internalType": "struct NFTMarketplace.CollectionDetails[]",
          "name": "",
          "type": "tuple[]"
        }
      ],
      "stateMutability": "view",
      "type": "function"
    },
    {
      "inputs": [
        {
          "internalType": "string",
          "name": "category",
          "type": "string"
        }
      ],
      "name": "fetchCollectionsByCategory",
      "outputs": [
        {
          "components": [
            {
              "internalType": "address",
              "name": "collectionAddress",
              "type": "address"
            },
            {
              "internalType": "string",
              "name": "name",
              "type": "string"
            },
            {
              "internalType": "string",
              "name": "symbol",
              "type": "string"
            },
            {
              "internalType": "string",
              "name": "category",
              "type": "string"
            },
            {
              "internalType": "address",
              "name": "owner",
              "type": "address"
            },
            {
              "internalType": "bool",
              "name": "isActive",
              "type": "bool"
            },
            {
              "internalType": "uint256",
              "name": "createdAt",
              "type": "uint256"
            },
            {
              "internalType": "string",
              "name": "baseURI",
              "type": "string"
            },
            {
              "internalType": "uint256",
              "name": "totalSupply",
              "type": "uint256"
            }
          ],
          "internalType": "struct NFTMarketplace.Collection[]",
          "name": "",
          "type": "tuple[]"
        }
      ],
      "stateMutability": "view",
      "type": "function"
    },
    {
      "inputs": [
        {
          "internalType": "address",
          "name": "user",
          "type": "address"
        }
      ],
      "name": "fetchUserCreatedCollections",
      "outputs": [
        {
          "components": [
            {
              "components": [
                {
                  "internalType": "address",
                  "name": "collectionAddress",
                  "type": "address"
                },
                {
                  "internalType": "string",
                  "name": "name",
                  "type": "string"
                },
                {
                  "internalType": "string",
                  "name": "symbol",
                  "type": "string"
                },
                {
                  "internalType": "string",
                  "name": "category",
                  "type": "string"
                },
                {
                  "internalType": "address",
                  "name": "owner",
                  "type": "address"
                },
                {
                  "internalType": "bool",
                  "name": "isActive",
                  "type": "bool"
                },
                {
                  "internalType": "uint256",
                  "name": "createdAt",
                  "type": "uint256"
                },
                {
                  "internalType": "string",
                  "name": "baseURI",
                  "type": "string"
                },
                {
                  "internalType": "uint256",
                  "name": "totalSupply",
                  "type": "uint256"
                }
              ],
              "internalType": "struct NFTMarketplace.Collection",
              "name": "basic",
              "type": "tuple"
            },
            {
              "internalType": "uint256",
              "name": "floorPrice",
              "type": "uint256"
            },
            {
              "internalType": "uint256",
              "name": "totalVolume",
              "type": "uint256"
            },
            {
              "internalType": "uint256",
              "name": "ownerCount",
              "type": "uint256"
            }
          ],
          "internalType": "struct NFTMarketplace.CollectionDetails[]",
          "name": "",
          "type": "tuple[]"
        }
      ],
      "stateMutability": "view",
      "type": "function"
    },
    {
      "inputs": [
        {
          "internalType": "address",
          "name": "user",
          "type": "address"
        }
      ],
      "name": "fetchUserPurchasedItems",
      "outputs": [
        {
          "components": [
            {
              "internalType": "uint256",
              "name": "tokenId",
              "type": "uint256"
            },
            {
              "internalType": "address",
              "name": "nftContract",
              "type": "address"
            },
            {
              "internalType": "address",
              "name": "seller",
              "type": "address"
            },
            {
              "internalType": "address",
              "name": "owner",
              "type": "address"
            },
            {
              "internalType": "uint256",
              "name": "price",
              "type": "uint256"
            },
            {
              "internalType": "bool",
              "name": "isOnSale",
              "type": "bool"
            },
            {
              "internalType": "uint256",
              "name": "auctionEndTime",
              "type": "uint256"
            },
            {
              "internalType": "address",
              "name": "highestBidder",
              "type": "address"
            },
            {
              "internalType": "uint256",
              "name": "highestBid",
              "type": "uint256"
            },
            {
              "internalType": "bool",
              "name": "isAuction",
              "type": "bool"
            },
            {
              "internalType": "string",
              "name": "tokenURI",
              "type": "string"
            }
          ],
          "internalType": "struct NFTMarketplace.MarketItem[]",
          "name": "purchasedItems",
          "type": "tuple[]"
        }
      ],
      "stateMutability": "view",
      "type": "function"
    },
    {
      "inputs": [],
      "name": "getCategories",
      "outputs": [
        {
          "internalType": "string[]",
          "name": "",
          "type": "string[]"
        }
      ],
      "stateMutability": "view",
      "type": "function"
    },
    {
      "inputs": [
        {
          "internalType": "address",
          "name": "collectionAddress",
          "type": "address"
        }
      ],
      "name": "getCollectionDetails",
      "outputs": [
        {
          "components": [
            {
              "internalType": "address",
              "name": "collectionAddress",
              "type": "address"
            },
            {
              "internalType": "string",
              "name": "name",
              "type": "string"
            },
            {
              "internalType": "string",
              "name": "symbol",
              "type": "string"
            },
            {
              "internalType": "string",
              "name": "category",
              "type": "string"
            },
            {
              "internalType": "address",
              "name": "owner",
              "type": "address"
            },
            {
              "internalType": "bool",
              "name": "isActive",
              "type": "bool"
            },
            {
              "internalType": "uint256",
              "name": "createdAt",
              "type": "uint256"
            },
            {
              "internalType": "string",
              "name": "baseURI",
              "type": "string"
            },
            {
              "internalType": "uint256",
              "name": "totalSupply",
              "type": "uint256"
            }
          ],
          "internalType": "struct NFTMarketplace.Collection",
          "name": "",
          "type": "tuple"
        }
      ],
      "stateMutability": "view",
      "type": "function"
    },
    {
      "inputs": [],
      "name": "listingFee",
      "outputs": [
        {
          "internalType": "uint256",
          "name": "",
          "type": "uint256"
        }
      ],
      "stateMutability": "view",
      "type": "function"
    },
    {
      "inputs": [
        {
          "internalType": "address",
          "name": "collectionAddress",
          "type": "address"
        },
        {
          "internalType": "uint256",
          "name": "tokenId",
          "type": "uint256"
        }
      ],
      "name": "makeOffer",
      "outputs": [],
      "stateMutability": "payable",
      "type": "function"
    },
    {
      "inputs": [],
      "name": "owner",
      "outputs": [
        {
          "internalType": "address",
          "name": "",
          "type": "address"
        }
      ],
      "stateMutability": "view",
      "type": "function"
    },
    {
      "inputs": [],
      "name": "paused",
      "outputs": [
        {
          "internalType": "bool",
          "name": "",
          "type": "bool"
        }
      ],
      "stateMutability": "view",
      "type": "function"
    },
    {
      "inputs": [
        {
          "internalType": "address",
          "name": "collectionAddress",
          "type": "address"
        },
        {
          "internalType": "uint256",
          "name": "tokenId",
          "type": "uint256"
        }
      ],
      "name": "placeBid",
      "outputs": [],
      "stateMutability": "payable",
      "type": "function"
    },
    {
      "inputs": [],
      "name": "renounceOwnership",
      "outputs": [],
      "stateMutability": "nonpayable",
      "type": "function"
    },
    {
      "inputs": [
        {
          "internalType": "address",
          "name": "newOwner",
          "type": "address"
        }
      ],
      "name": "transferOwnership",
      "outputs": [],
      "stateMutability": "nonpayable",
      "type": "function"
    }
  ],
  "bytecode": "0x60806040526601c6bf52634000600e5534801561001b57600080fd5b5060016000819055805460ff19169055338061005257604051631e4fbdf760e01b8152600060048201526024015b60405180910390fd5b61005b81610149565b50604080518082019091526003815262105c9d60ea1b602082015261007f906101a3565b60408051808201909152600681526547616d696e6760d01b60208201526100a5906101a3565b60408051808201909152600b81526a4d656d626572736869707360a81b60208201526100d0906101a3565b6040805180820190915260058152644d7573696360d81b60208201526100f5906101a3565b6040805180820190915260048152635046507360e01b6020820152610119906101a3565b60408051808201909152600b81526a50686f746f67726170687960a81b6020820152610144906101a3565b6104c8565b600180546001600160a01b03838116610100818102610100600160a81b031985161790945560405193909204169182907f8be0079c531659141344cd1fd0a4f28419497f9722a3daafe3b4186f6b6457e090600090a35050565b6101ab6102c3565b6003816040516101bb919061031c565b9081526040519081900360200190205460ff161561021b5760405162461bcd60e51b815260206004820152601760248201527f43617465676f727920616c7265616479206578697374730000000000000000006044820152606401610049565b600280546001810182556000919091527f405787fa12a823e0f2b7631cc41b3ba8828b3321ca811111fa75cd3aa3bb5ace0161025782826103d7565b50600160038260405161026a919061031c565b908152604051908190036020018120805492151560ff19909316929092179091557fdb74f4d32b97da9b3b9b907aa3fd5df938c018e13fe235d9883d0a0836c6bddb906102b8908390610495565b60405180910390a150565b6001546001600160a01b036101009091041633146102f65760405163118cdaa760e01b8152336004820152602401610049565b565b60005b838110156103135781810151838201526020016102fb565b50506000910152565b6000825161032e8184602087016102f8565b9190910192915050565b634e487b7160e01b600052604160045260246000fd5b600181811c9082168061036257607f821691505b60208210810361038257634e487b7160e01b600052602260045260246000fd5b50919050565b601f8211156103d257806000526020600020601f840160051c810160208510156103af5750805b601f840160051c820191505b818110156103cf57600081556001016103bb565b50505b505050565b81516001600160401b038111156103f0576103f0610338565b610404816103fe845461034e565b84610388565b6020601f82116001811461043857600083156104205750848201515b600019600385901b1c1916600184901b1784556103cf565b600084815260208120601f198516915b828110156104685787850151825560209485019460019092019101610448565b50848210156104865786840151600019600387901b60f8161c191681555b50505050600190811b01905550565b60208152600082518060208401526104b48160408501602087016102f8565b601f01601f19169190910160400192915050565b614d11806104d76000396000f3fe60806040526004361061011f5760003560e01c8063b2a4706e116100a0578063ed12099711610064578063ed12099714610319578063f2d306cc14610346578063f2fde38b14610366578063f6e4088914610386578063fa159278146103a657600080fd5b8063b2a4706e14610291578063bc0019ca146102a4578063c23b139e146102d1578063d2ead4cb146102e4578063d98b9bb51461030657600080fd5b80635c975abb116100e75780635c975abb146101de57806361beb1d7146102015780636a1b7ecc14610221578063715018a6146102455780638da5cb5b1461025a57600080fd5b80632e0dcbf71461012457806334deb86d1461014657806337c883b81461017c5780634db0412c146101a957806358eb2df5146101cb575b600080fd5b34801561013057600080fd5b5061014461013f366004612aba565b6103c6565b005b34801561015257600080fd5b50610166610161366004612b0a565b6104eb565b6040516101739190612c45565b60405180910390f35b34801561018857600080fd5b5061019c610197366004612b0a565b6107f6565b6040516101739190612c58565b3480156101b557600080fd5b506101be610a9a565b6040516101739190612d8e565b6101446101d9366004612de7565b610b73565b3480156101ea57600080fd5b5060015460ff166040519015158152602001610173565b34801561020d57600080fd5b5061014461021c366004612e1a565b610f89565b34801561022d57600080fd5b50610237600e5481565b604051908152602001610173565b34801561025157600080fd5b5061014461108b565b34801561026657600080fd5b5060015461010090046001600160a01b03165b6040516001600160a01b039091168152602001610173565b61014461029f366004612e53565b61109f565b3480156102b057600080fd5b506102c46102bf366004612b0a565b61126b565b6040516101739190612ebc565b6101446102df366004612e53565b6115a6565b3480156102f057600080fd5b506102f9611810565b6040516101739190612ecf565b610144610314366004612e53565b6118d9565b34801561032557600080fd5b50610339610334366004612aba565b611a54565b6040516101739190612f28565b34801561035257600080fd5b506102f9610361366004612b0a565b611ec8565b34801561037257600080fd5b50610144610381366004612b0a565b611fe2565b34801561039257600080fd5b5061019c6103a1366004612b0a565b612020565b3480156103b257600080fd5b506102796103c1366004612f81565b61230d565b6103ce6125f4565b6003816040516103de919061303d565b9081526040519081900360200190205460ff16156104435760405162461bcd60e51b815260206004820152601760248201527f43617465676f727920616c72656164792065786973747300000000000000000060448201526064015b60405180910390fd5b600280546001810182556000919091527f405787fa12a823e0f2b7631cc41b3ba8828b3321ca811111fa75cd3aa3bb5ace0161047f82826130e1565b506001600382604051610492919061303d565b908152604051908190036020018120805492151560ff19909316929092179091557fdb74f4d32b97da9b3b9b907aa3fd5df938c018e13fe235d9883d0a0836c6bddb906104e090839061319f565b60405180910390a150565b6104f36128da565b6001600160a01b03821660009081526004602081905260409091200154600160a01b900460ff166105365760405162461bcd60e51b815260040161043a906131b2565b6001600160a01b0380831660009081526004602090815260409182902082516101208101909352805490931682526001830180549293929184019161057a90613059565b80601f01602080910402602001604051908101604052809291908181526020018280546105a690613059565b80156105f35780601f106105c8576101008083540402835291602001916105f3565b820191906000526020600020905b8154815290600101906020018083116105d657829003601f168201915b5050505050815260200160028201805461060c90613059565b80601f016020809104026020016040519081016040528092919081815260200182805461063890613059565b80156106855780601f1061065a57610100808354040283529160200191610685565b820191906000526020600020905b81548152906001019060200180831161066857829003601f168201915b5050505050815260200160038201805461069e90613059565b80601f01602080910402602001604051908101604052809291908181526020018280546106ca90613059565b80156107175780601f106106ec57610100808354040283529160200191610717565b820191906000526020600020905b8154815290600101906020018083116106fa57829003601f168201915b505050918352505060048201546001600160a01b0381166020830152600160a01b900460ff16151560408201526005820154606082015260068201805460809092019161076390613059565b80601f016020809104026020016040519081016040528092919081815260200182805461078f90613059565b80156107dc5780601f106107b1576101008083540402835291602001916107dc565b820191906000526020600020905b8154815290600101906020018083116107bf57829003601f168201915b505050505081526020016007820154815250509050919050565b6001600160a01b03811660009081526004602081905260409091200154606090600160a01b900460ff1661083c5760405162461bcd60e51b815260040161043a906131b2565b6001600160a01b03821660009081526008602090815260408083208054825181850281018501909352808352919290919083018282801561089c57602002820191906000526020600020905b815481526020019060010190808311610888575b505050505090506000815190506000816001600160401b038111156108c3576108c36129f7565b6040519080825280602002602001820160405280156108fc57816020015b6108e961293a565b8152602001906001900390816108e15790505b50905060005b82811015610a9157600084828151811061091e5761091e6131e9565b6020908102919091018101516001600160a01b03808a16600090815260078085526040808320858452865291829020825161016081018452815481526001820154851696810196909652600281015484169286019290925260038201548316606086015260048201546080860152600582015460ff908116151560a0870152600683015460c08701529082015490921660e0850152600881015461010085015260098101549091161515610120840152600a810180549294509091610140840191906109e990613059565b80601f0160208091040260200160405190810160405280929190818152602001828054610a1590613059565b8015610a625780601f10610a3757610100808354040283529160200191610a62565b820191906000526020600020905b815481529060010190602001808311610a4557829003601f168201915b505050505081525050838381518110610a7d57610a7d6131e9565b602090810291909101015250600101610902565b50949350505050565b60606002805480602002602001604051908101604052809291908181526020016000905b82821015610b6a578382906000526020600020018054610add90613059565b80601f0160208091040260200160405190810160405280929190818152602001828054610b0990613059565b8015610b565780601f10610b2b57610100808354040283529160200191610b56565b820191906000526020600020905b815481529060010190602001808311610b3957829003601f168201915b505050505081526020019060010190610abe565b50505050905090565b610b7b612627565b6001600160a01b03831660009081526004602081905260409091200154600160a01b900460ff16610bbe5760405162461bcd60e51b815260040161043a906131b2565b60008111610c0e5760405162461bcd60e51b815260206004820152601f60248201527f5072696365206d7573742062652067726561746572207468616e207a65726f00604482015260640161043a565b600e543414610c565760405162461bcd60e51b81526020600482015260146024820152734d75737420706179206c697374696e672066656560601b604482015260640161043a565b60405163c87b56dd60e01b8152600481018390526000906001600160a01b0385169063c87b56dd90602401600060405180830381865afa158015610c9e573d6000803e3d6000fd5b505050506040513d6000823e601f3d908101601f19168201604052610cc691908101906131ff565b9050604051806101600160405280848152602001856001600160a01b03168152602001336001600160a01b0316815260200160006001600160a01b031681526020018381526020016001151581526020016000815260200160006001600160a01b03168152602001600081526020016000151581526020018281525060076000866001600160a01b03166001600160a01b0316815260200190815260200160002060008581526020019081526020016000206000820151816000015560208201518160010160006101000a8154816001600160a01b0302191690836001600160a01b0316021790555060408201518160020160006101000a8154816001600160a01b0302191690836001600160a01b0316021790555060608201518160030160006101000a8154816001600160a01b0302191690836001600160a01b031602179055506080820151816004015560a08201518160050160006101000a81548160ff02191690831515021790555060c0820151816006015560e08201518160070160006101000a8154816001600160a01b0302191690836001600160a01b0316021790555061010082015181600801556101208201518160090160006101000a81548160ff02191690831515021790555061014082015181600a019081610eac91906130e1565b5050506001600160a01b038416600081815260086020908152604080832080546001810182559084529190922001859055516323b872dd60e01b81526323b872dd90610f0090339030908890600401613275565b600060405180830381600087803b158015610f1a57600080fd5b505af1158015610f2e573d6000803e3d6000fd5b5050505082846001600160a01b03167f4e87d65c4baed28b185aa1f2f583850f4140e7ee01ee27c4e06f622d085b1bfc33600086604051610f7193929190613275565b60405180910390a350610f846001600055565b505050565b610f91612627565b6001600160a01b03808516600090815260076020908152604080832087845290915290206002810154909116331461100b5760405162461bcd60e51b815260206004820152601d60248201527f4f6e6c792073656c6c65722063616e2073746172742061756374696f6e000000604482015260640161043a565b600981015460ff16156110555760405162461bcd60e51b815260206004820152601260248201527120b63932b0b23c9037b71030bab1ba34b7b760711b604482015260640161043a565b60098101805460ff191660011790556004810183905561107582426132af565b6006909101556110856001600055565b50505050565b6110936125f4565b61109d6000612651565b565b6110a7612627565b6001600160a01b03821660009081526007602090815260408083208484529091529020600581015460ff166111115760405162461bcd60e51b815260206004820152601060248201526f4974656d206e6f74206f6e2073616c6560801b604482015260640161043a565b600981015460ff161561115b5760405162461bcd60e51b815260206004820152601260248201527124ba32b69034b99037b71030bab1ba34b7b760711b604482015260640161043a565b600034116111ab5760405162461bcd60e51b815260206004820152601f60248201527f4f66666572206d7573742062652067726561746572207468616e207a65726f00604482015260640161043a565b6001600160a01b038381166000818152600a6020908152604080832087845282528083208151606081018352338082523482860181815242848701908152855460018082018855968a52988890209451600390990290940180546001600160a01b03191698909a1697909717895595519288019290925551600290960195909555519182527f1819ba14baa7481a7b236a7888df8e0a32271ee6d12514a8c92da9f9bba73a6791015b60405180910390a3506112676001600055565b5050565b6112736129bc565b6001600160a01b03821660009081526004602081905260409091200154600160a01b900460ff166112b65760405162461bcd60e51b815260040161043a906131b2565b6001600160a01b03808316600090815260046020908152604080832081516101208101909252805490941681526001840180549394919391928401916112fb90613059565b80601f016020809104026020016040519081016040528092919081815260200182805461132790613059565b80156113745780601f1061134957610100808354040283529160200191611374565b820191906000526020600020905b81548152906001019060200180831161135757829003601f168201915b5050505050815260200160028201805461138d90613059565b80601f01602080910402602001604051908101604052809291908181526020018280546113b990613059565b80156114065780601f106113db57610100808354040283529160200191611406565b820191906000526020600020905b8154815290600101906020018083116113e957829003601f168201915b5050505050815260200160038201805461141f90613059565b80601f016020809104026020016040519081016040528092919081815260200182805461144b90613059565b80156114985780601f1061146d57610100808354040283529160200191611498565b820191906000526020600020905b81548152906001019060200180831161147b57829003601f168201915b505050918352505060048201546001600160a01b0381166020830152600160a01b900460ff1615156040820152600582015460608201526006820180546080909201916114e490613059565b80601f016020809104026020016040519081016040528092919081815260200182805461151090613059565b801561155d5780601f106115325761010080835404028352916020019161155d565b820191906000526020600020905b81548152906001019060200180831161154057829003601f168201915b505050505081526020016007820154815250509050600061157d846126ab565b604080516080810182529384526020840191909152600090830181905260608301525092915050565b6115ae612627565b6001600160a01b03821660009081526007602090815260408083208484529091529020600581015460ff1661161b5760405162461bcd60e51b81526020600482015260136024820152724974656d206973206e6f74206f6e2073616c6560681b604482015260640161043a565b600981015460ff16156116655760405162461bcd60e51b815260206004820152601260248201527124ba32b69034b99037b71030bab1ba34b7b760711b604482015260640161043a565b806004015434146116b85760405162461bcd60e51b815260206004820152601e60248201527f506c65617365207375626d6974207468652061736b696e672070726963650000604482015260640161043a565b60058101805460ff191690556003810180546001600160a01b0319163317905560028101546040516001600160a01b0391909116903480156108fc02916000818181858888f19350505050158015611714573d6000803e3d6000fd5b506040516323b872dd60e01b81526001600160a01b038416906323b872dd9061174590309033908790600401613275565b600060405180830381600087803b15801561175f57600080fd5b505af1158015611773573d6000803e3d6000fd5b5050336000818152600c602090815260408083206001600160a01b038a16845282528083208884528252808320805460ff19166001179055928252600d90529081208054935091506117c4836132c8565b9091555050600281015460405183916001600160a01b03808716927f51ae5913afbfcae9abfe6b7888d00fe117a1b0e81f6c88017bccd98b6b4877d59261125492169033903490613275565b6005546060906000816001600160401b03811115611830576118306129f7565b60405190808252806020026020018201604052801561186957816020015b6118566129bc565b81526020019060019003908161184e5790505b50905060005b828110156118d25760006005828154811061188c5761188c6131e9565b6000918252602090912001546001600160a01b031690506118ac8161126b565b8383815181106118be576118be6131e9565b60209081029190910101525060010161186f565b5092915050565b6118e1612627565b6001600160a01b03821660009081526007602090815260408083208484529091529020600981015460ff166119495760405162461bcd60e51b815260206004820152600e60248201526d2737ba1030b71030bab1ba34b7b760911b604482015260640161043a565b8060060154421061198c5760405162461bcd60e51b815260206004820152600d60248201526c105d58dd1a5bdb88195b991959609a1b604482015260640161043a565b806008015434116119cd5760405162461bcd60e51b815260206004820152600b60248201526a42696420746f6f206c6f7760a81b604482015260640161043a565b60078101546001600160a01b031615611a2f5760088101546001600160a01b0380851660009081526009602090815260408083208784528252808320600787015490941683529290529081208054909190611a299084906132af565b90915550505b6007810180546001600160a01b03191633179055346008909101556112676001600055565b6060600382604051611a66919061303d565b9081526040519081900360200190205460ff16611ac55760405162461bcd60e51b815260206004820152601760248201527f43617465676f727920646f6573206e6f74206578697374000000000000000000604482015260640161043a565b6000600683604051611ad7919061303d565b9081526040805191829003602090810183208054808302850183019093528284529190830182828015611b3357602002820191906000526020600020905b81546001600160a01b03168152600190910190602001808311611b15575b50505050509050600081516001600160401b03811115611b5557611b556129f7565b604051908082528060200260200182016040528015611b8e57816020015b611b7b6128da565b815260200190600190039081611b735790505b50905060005b8251811015611ec05760046000848381518110611bb357611bb36131e9565b60200260200101516001600160a01b03166001600160a01b03168152602001908152602001600020604051806101200160405290816000820160009054906101000a90046001600160a01b03166001600160a01b03166001600160a01b03168152602001600182018054611c2690613059565b80601f0160208091040260200160405190810160405280929190818152602001828054611c5290613059565b8015611c9f5780601f10611c7457610100808354040283529160200191611c9f565b820191906000526020600020905b815481529060010190602001808311611c8257829003601f168201915b50505050508152602001600282018054611cb890613059565b80601f0160208091040260200160405190810160405280929190818152602001828054611ce490613059565b8015611d315780601f10611d0657610100808354040283529160200191611d31565b820191906000526020600020905b815481529060010190602001808311611d1457829003601f168201915b50505050508152602001600382018054611d4a90613059565b80601f0160208091040260200160405190810160405280929190818152602001828054611d7690613059565b8015611dc35780601f10611d9857610100808354040283529160200191611dc3565b820191906000526020600020905b815481529060010190602001808311611da657829003601f168201915b505050918352505060048201546001600160a01b0381166020830152600160a01b900460ff161515604082015260058201546060820152600682018054608090920191611e0f90613059565b80601f0160208091040260200160405190810160405280929190818152602001828054611e3b90613059565b8015611e885780601f10611e5d57610100808354040283529160200191611e88565b820191906000526020600020905b815481529060010190602001808311611e6b57829003601f168201915b50505050508152602001600782015481525050828281518110611ead57611ead6131e9565b6020908102919091010152600101611b94565b509392505050565b6001600160a01b0381166000908152600b60209081526040808320805482518185028101850190935280835260609493830182828015611f3157602002820191906000526020600020905b81546001600160a01b03168152600190910190602001808311611f13575b50505050509050600081516001600160401b03811115611f5357611f536129f7565b604051908082528060200260200182016040528015611f8c57816020015b611f796129bc565b815260200190600190039081611f715790505b50905060005b8251811015611ec057611fbd838281518110611fb057611fb06131e9565b602002602001015161126b565b828281518110611fcf57611fcf6131e9565b6020908102919091010152600101611f92565b611fea6125f4565b6001600160a01b03811661201457604051631e4fbdf760e01b81526000600482015260240161043a565b61201d81612651565b50565b6001600160a01b0381166000908152600d6020526040812054606091816001600160401b03811115612054576120546129f7565b60405190808252806020026020018201604052801561208d57816020015b61207a61293a565b8152602001906001900390816120725790505b50925060005b600554811015612305576000600582815481106120b2576120b26131e9565b60009182526020808320909101546001600160a01b03168083526008825260408084208054825181860281018601909352808352929550909290919083018282801561211d57602002820191906000526020600020905b815481526020019060010190808311612109575b5050505050905060005b81518110156122fa576000828281518110612144576121446131e9565b6020908102919091018101516001600160a01b03808c166000908152600c8452604080822092891682529184528181208382529093529091205490915060ff16156122f1576001600160a01b038085166000908152600760208181526040808420868552825292839020835161016081018552815481526001820154861692810192909252600281015485169382019390935260038301548416606082015260048301546080820152600583015460ff908116151560a0830152600684015460c08301529183015490931660e084015260088201546101008401526009820154161515610120830152600a810180546101408401919061224390613059565b80601f016020809104026020016040519081016040528092919081815260200182805461226f90613059565b80156122bc5780601f10612291576101008083540402835291602001916122bc565b820191906000526020600020905b81548152906001019060200180831161229f57829003601f168201915b5050505050815250508887815181106122d7576122d76131e9565b602002602001018190525085806122ed906132c8565b9650505b50600101612127565b505050600101612093565b505050919050565b600060038260405161231f919061303d565b9081526040519081900360200190205460ff166123715760405162461bcd60e51b815260206004820152601060248201526f496e76616c69642063617465676f727960801b604482015260640161043a565b6000339050600086868630878660405161238a906129ea565b612399969594939291906132e1565b604051809103906000f0801580156123b5573d6000803e3d6000fd5b5060408051610120810182526001600160a01b0383811680835260208084018d81528486018d9052606085018b90528884166080860152600160a086018190524260c087015260e086018d905260006101008701819052938452600490925294909120835181546001600160a01b031916931692909217825592519394508493919290919082019061244790826130e1565b506040820151600282019061245c90826130e1565b506060820151600382019061247190826130e1565b50608082015160048201805460a08501511515600160a01b026001600160a81b03199091166001600160a01b039093169290921791909117905560c0820151600582015560e082015160068201906124c990826130e1565b506101009190910151600790910155600580546001810182556000919091527f036b6384b5eca791c62761152d0c79bb0604c104a5fb6f4eb0703f3154bb3db00180546001600160a01b0319166001600160a01b03831617905560405160069061253490879061303d565b9081526040519081900360209081018220805460018101825560009182529190200180546001600160a01b038085166001600160a01b03199092168217909255908516917f71e52b82baaa01cac022ab5ea5841b43558ed92065bcd5b35d2904226c03f1a5906125a9908c908c908b90613359565b60405180910390a3336000908152600b602090815260408220805460018101825590835291200180546001600160a01b0319166001600160a01b038316179055979650505050505050565b6001546001600160a01b0361010090910416331461109d5760405163118cdaa760e01b815233600482015260240161043a565b60026000540361264a57604051633ee5aeb560e01b815260040160405180910390fd5b6002600055565b600180546001600160a01b03838116610100818102610100600160a81b031985161790945560405193909204169182907f8be0079c531659141344cd1fd0a4f28419497f9722a3daafe3b4186f6b6457e090600090a35050565b6001600160a01b03811660009081526008602090815260408083208054825181850281018501909352808352849383018282801561270857602002820191906000526020600020905b8154815260200190600101908083116126f4575b505050505090506000600019905060005b82518110156128bf576001600160a01b038516600090815260076020526040812084518290869085908110612750576127506131e9565b60209081029190910181015182528181019290925260409081016000208151610160810183528154815260018201546001600160a01b0390811694820194909452600282015484169281019290925260038101548316606083015260048101546080830152600581015460ff908116151560a0840152600682015460c0840152600782015490931660e0830152600881015461010083015260098101549092161515610120820152600a820180549192916101408401919061281190613059565b80601f016020809104026020016040519081016040528092919081815260200182805461283d90613059565b801561288a5780601f1061285f5761010080835404028352916020019161288a565b820191906000526020600020905b81548152906001019060200180831161286d57829003601f168201915b50505050508152505090508060a0015180156128a95750828160800151105b156128b657806080015192505b50600101612719565b5060001981146128cf57806128d2565b60005b949350505050565b60405180610120016040528060006001600160a01b0316815260200160608152602001606081526020016060815260200160006001600160a01b031681526020016000151581526020016000815260200160608152602001600081525090565b6040518061016001604052806000815260200160006001600160a01b0316815260200160006001600160a01b0316815260200160006001600160a01b03168152602001600081526020016000151581526020016000815260200160006001600160a01b0316815260200160008152602001600015158152602001606081525090565b60405180608001604052806129cf6128da565b81526020016000815260200160008152602001600081525090565b61193f8061339d83390190565b634e487b7160e01b600052604160045260246000fd5b604051601f8201601f191681016001600160401b0381118282101715612a3557612a356129f7565b604052919050565b60006001600160401b03821115612a5657612a566129f7565b50601f01601f191660200190565b600082601f830112612a7557600080fd5b8135612a88612a8382612a3d565b612a0d565b818152846020838601011115612a9d57600080fd5b816020850160208301376000918101602001919091529392505050565b600060208284031215612acc57600080fd5b81356001600160401b03811115612ae257600080fd5b6128d284828501612a64565b80356001600160a01b0381168114612b0557600080fd5b919050565b600060208284031215612b1c57600080fd5b612b2582612aee565b9392505050565b60005b83811015612b47578181015183820152602001612b2f565b50506000910152565b60008151808452612b68816020860160208601612b2c565b601f01601f19169290920160200192915050565b80516001600160a01b03168252600060208201516101206020850152612ba6610120850182612b50565b905060408301518482036040860152612bbf8282612b50565b91505060608301518482036060860152612bd98282612b50565b9150506080830151612bf660808601826001600160a01b03169052565b5060a0830151612c0a60a086018215159052565b5060c083015160c085015260e083015184820360e0860152612c2c8282612b50565b9150506101008301516101008501528091505092915050565b602081526000612b256020830184612b7c565b6000602082016020835280845180835260408501915060408160051b86010192506020860160005b82811015612d8257603f198786030184528151805186526020810151612cb160208801826001600160a01b03169052565b506040810151612ccc60408801826001600160a01b03169052565b506060810151612ce760608801826001600160a01b03169052565b506080810151608087015260a0810151612d0560a088018215159052565b5060c081015160c087015260e0810151612d2a60e08801826001600160a01b03169052565b50610100810151610100870152610120810151612d4c61012088018215159052565b506101408101519050610160610140870152612d6c610160870182612b50565b9550506020938401939190910190600101612c80565b50929695505050505050565b6000602082016020835280845180835260408501915060408160051b86010192506020860160005b82811015612d8257603f19878603018452612dd2858351612b50565b94506020938401939190910190600101612db6565b600080600060608486031215612dfc57600080fd5b612e0584612aee565b95602085013595506040909401359392505050565b60008060008060808587031215612e3057600080fd5b612e3985612aee565b966020860135965060408601359560600135945092505050565b60008060408385031215612e6657600080fd5b612e6f83612aee565b946020939093013593505050565b6000815160808452612e926080850182612b7c565b90506020830151602085015260408301516040850152606083015160608501528091505092915050565b602081526000612b256020830184612e7d565b6000602082016020835280845180835260408501915060408160051b86010192506020860160005b82811015612d8257603f19878603018452612f13858351612e7d565b94506020938401939190910190600101612ef7565b6000602082016020835280845180835260408501915060408160051b86010192506020860160005b82811015612d8257603f19878603018452612f6c858351612b7c565b94506020938401939190910190600101612f50565b60008060008060808587031215612f9757600080fd5b84356001600160401b03811115612fad57600080fd5b612fb987828801612a64565b94505060208501356001600160401b03811115612fd557600080fd5b612fe187828801612a64565b93505060408501356001600160401b03811115612ffd57600080fd5b61300987828801612a64565b92505060608501356001600160401b0381111561302557600080fd5b61303187828801612a64565b91505092959194509250565b6000825161304f818460208701612b2c565b9190910192915050565b600181811c9082168061306d57607f821691505b60208210810361308d57634e487b7160e01b600052602260045260246000fd5b50919050565b601f821115610f8457806000526020600020601f840160051c810160208510156130ba5750805b601f840160051c820191505b818110156130da57600081556001016130c6565b5050505050565b81516001600160401b038111156130fa576130fa6129f7565b61310e816131088454613059565b84613093565b6020601f821160018114613142576000831561312a5750848201515b600019600385901b1c1916600184901b1784556130da565b600084815260208120601f198516915b828110156131725787850151825560209485019460019092019101613152565b50848210156131905786840151600019600387901b60f8161c191681555b50505050600190811b01905550565b602081526000612b256020830184612b50565b60208082526019908201527f436f6c6c656374696f6e20646f6573206e6f7420657869737400000000000000604082015260600190565b634e487b7160e01b600052603260045260246000fd5b60006020828403121561321157600080fd5b81516001600160401b0381111561322757600080fd5b8201601f8101841361323857600080fd5b8051613246612a8382612a3d565b81815285602083850101111561325b57600080fd5b61326c826020830160208601612b2c565b95945050505050565b6001600160a01b039384168152919092166020820152604081019190915260600190565b634e487b7160e01b600052601160045260246000fd5b808201808211156132c2576132c2613299565b92915050565b6000600182016132da576132da613299565b5060010190565b60c0815260006132f460c0830189612b50565b82810360208401526133068189612b50565b9050828103604084015261331a8188612b50565b6001600160a01b03871660608501528381036080850152905061333d8186612b50565b91505060018060a01b03831660a0830152979650505050505050565b60608152600061336c6060830186612b50565b828103602084015261337e8186612b50565b905082810360408401526133928185612b50565b969550505050505056fe608060405234801561001057600080fd5b5060405161193f38038061193f83398101604081905261002f916101ed565b808686600061003e8382610357565b50600161004b8282610357565b5050506001600160a01b03811661007c57604051631e4fbdf760e01b81526000600482015260240160405180910390fd5b610085816100c6565b5060096100928582610357565b50600a80546001600160a01b0319166001600160a01b038516179055600b6100ba8382610357565b50505050505050610415565b600780546001600160a01b038381166001600160a01b0319831681179093556040519116919082907f8be0079c531659141344cd1fd0a4f28419497f9722a3daafe3b4186f6b6457e090600090a35050565b634e487b7160e01b600052604160045260246000fd5b600082601f83011261013f57600080fd5b81516001600160401b0381111561015857610158610118565b604051601f8201601f19908116603f011681016001600160401b038111828210171561018657610186610118565b60405281815283820160200185101561019e57600080fd5b60005b828110156101bd576020818601810151838301820152016101a1565b506000918101602001919091529392505050565b80516001600160a01b03811681146101e857600080fd5b919050565b60008060008060008060c0878903121561020657600080fd5b86516001600160401b0381111561021c57600080fd5b61022889828a0161012e565b602089015190975090506001600160401b0381111561024657600080fd5b61025289828a0161012e565b604089015190965090506001600160401b0381111561027057600080fd5b61027c89828a0161012e565b94505061028b606088016101d1565b60808801519093506001600160401b038111156102a757600080fd5b6102b389828a0161012e565b9250506102c260a088016101d1565b90509295509295509295565b600181811c908216806102e257607f821691505b60208210810361030257634e487b7160e01b600052602260045260246000fd5b50919050565b601f82111561035257806000526020600020601f840160051c8101602085101561032f5750805b601f840160051c820191505b8181101561034f576000815560010161033b565b50505b505050565b81516001600160401b0381111561037057610370610118565b6103848161037e84546102ce565b84610308565b6020601f8211600181146103b857600083156103a05750848201515b600019600385901b1c1916600184901b17845561034f565b600084815260208120601f198516915b828110156103e857878501518255602094850194600190920191016103c8565b50848210156104065786840151600019600387901b60f8161c191681555b50505050600190811b01905550565b61151b806104246000396000f3fe608060405234801561001057600080fd5b50600436106101375760003560e01c8063715018a6116100b8578063c87b56dd1161007c578063c87b56dd14610266578063d0def52114610279578063daa17f491461028c578063e985e9c51461029f578063ef430aa6146102b2578063f2fde38b146102ba57600080fd5b8063715018a61461021f5780638da5cb5b1461022757806395d89b4114610238578063a22cb46514610240578063b88d4fde1461025357600080fd5b806323b872dd116100ff57806323b872dd146101cb57806342842e0e146101de5780636352211e146101f15780636c0360eb1461020457806370a082311461020c57600080fd5b806301ffc9a71461013c57806306fdde0314610164578063081812fc14610179578063095ea7b3146101a457806318160ddd146101b9575b600080fd5b61014f61014a366004610fe1565b6102cd565b60405190151581526020015b60405180910390f35b61016c6102f8565b60405161015b919061104e565b61018c610187366004611061565b61038a565b6040516001600160a01b03909116815260200161015b565b6101b76101b2366004611096565b6103b3565b005b6008545b60405190815260200161015b565b6101b76101d93660046110c0565b6103c2565b6101b76101ec3660046110c0565b610452565b61018c6101ff366004611061565b610472565b61016c61047d565b6101bd61021a3660046110fd565b61050b565b6101b7610553565b6007546001600160a01b031661018c565b61016c610567565b6101b761024e366004611118565b610576565b6101b76102613660046111e4565b610581565b61016c610274366004611061565b610599565b6101bd610287366004611260565b6106aa565b600a5461018c906001600160a01b031681565b61014f6102ad3660046112c2565b6106e7565b61016c610715565b6101b76102c83660046110fd565b610722565b60006001600160e01b03198216632483248360e11b14806102f257506102f282610760565b92915050565b606060008054610307906112f5565b80601f0160208091040260200160405190810160405280929190818152602001828054610333906112f5565b80156103805780601f1061035557610100808354040283529160200191610380565b820191906000526020600020905b81548152906001019060200180831161036357829003601f168201915b5050505050905090565b6000610395826107b0565b506000828152600460205260409020546001600160a01b03166102f2565b6103be8282336107e9565b5050565b6001600160a01b0382166103f157604051633250574960e11b8152600060048201526024015b60405180910390fd5b60006103fe8383336107f6565b9050836001600160a01b0316816001600160a01b03161461044c576040516364283d7b60e01b81526001600160a01b03808616600483015260248201849052821660448201526064016103e8565b50505050565b61046d83838360405180602001604052806000815250610581565b505050565b60006102f2826107b0565b6009805461048a906112f5565b80601f01602080910402602001604051908101604052809291908181526020018280546104b6906112f5565b80156105035780601f106104d857610100808354040283529160200191610503565b820191906000526020600020905b8154815290600101906020018083116104e657829003601f168201915b505050505081565b60006001600160a01b038216610537576040516322718ad960e21b8152600060048201526024016103e8565b506001600160a01b031660009081526003602052604090205490565b61055b6108ef565b610565600061091c565b565b606060018054610307906112f5565b6103be33838361096e565b61058c8484846103c2565b61044c3385858585610a0d565b60606105a4826107b0565b50600082815260066020526040812080546105be906112f5565b80601f01602080910402602001604051908101604052809291908181526020018280546105ea906112f5565b80156106375780601f1061060c57610100808354040283529160200191610637565b820191906000526020600020905b81548152906001019060200180831161061a57829003601f168201915b50505050509050600061065560408051602081019091526000815290565b90508051600003610667575092915050565b81511561069957808260405160200161068192919061132f565b60405160208183030381529060405292505050919050565b6106a284610b38565b949350505050565b60006106b46108ef565b600880549060006106c48361135e565b90915550506008546106d68482610bac565b6106e08184610bc6565b9392505050565b6001600160a01b03918216600090815260056020908152604080832093909416825291909152205460ff1690565b600b805461048a906112f5565b61072a6108ef565b6001600160a01b03811661075457604051631e4fbdf760e01b8152600060048201526024016103e8565b61075d8161091c565b50565b60006001600160e01b031982166380ac58cd60e01b148061079157506001600160e01b03198216635b5e139f60e01b145b806102f257506301ffc9a760e01b6001600160e01b03198316146102f2565b6000818152600260205260408120546001600160a01b0316806102f257604051637e27328960e01b8152600481018490526024016103e8565b61046d8383836001610c16565b6000828152600260205260408120546001600160a01b039081169083161561082357610823818486610d1c565b6001600160a01b0381161561086157610840600085600080610c16565b6001600160a01b038116600090815260036020526040902080546000190190555b6001600160a01b03851615610890576001600160a01b0385166000908152600360205260409020805460010190555b60008481526002602052604080822080546001600160a01b0319166001600160a01b0389811691821790925591518793918516917fddf252ad1be2c89b69c2b068fc378daa952ba7f163c4a11628f55a4df523b3ef91a4949350505050565b6007546001600160a01b031633146105655760405163118cdaa760e01b81523360048201526024016103e8565b600780546001600160a01b038381166001600160a01b0319831681179093556040519116919082907f8be0079c531659141344cd1fd0a4f28419497f9722a3daafe3b4186f6b6457e090600090a35050565b6001600160a01b0382166109a057604051630b61174360e31b81526001600160a01b03831660048201526024016103e8565b6001600160a01b03838116600081815260056020908152604080832094871680845294825291829020805460ff191686151590811790915591519182527f17307eab39ab6107e8899845ad3d59bd9653f200f220920489ca2b5937696c31910160405180910390a3505050565b6001600160a01b0383163b15610b3157604051630a85bd0160e11b81526001600160a01b0384169063150b7a0290610a4f908890889087908790600401611385565b6020604051808303816000875af1925050508015610a8a575060408051601f3d908101601f19168201909252610a87918101906113c2565b60015b610af3573d808015610ab8576040519150601f19603f3d011682016040523d82523d6000602084013e610abd565b606091505b508051600003610aeb57604051633250574960e11b81526001600160a01b03851660048201526024016103e8565b805181602001fd5b6001600160e01b03198116630a85bd0160e11b14610b2f57604051633250574960e11b81526001600160a01b03851660048201526024016103e8565b505b5050505050565b6060610b43826107b0565b506000610b5b60408051602081019091526000815290565b90506000815111610b7b57604051806020016040528060008152506106e0565b80610b8584610d80565b604051602001610b9692919061132f565b6040516020818303038152906040529392505050565b6103be828260405180602001604052806000815250610e13565b6000828152600660205260409020610bde8282611426565b506040518281527ff8e1a15aba9398e019f0b49df1a4fde98ee17ae345cb5f6b5e2c27f5033e8ce79060200160405180910390a15050565b8080610c2a57506001600160a01b03821615155b15610cec576000610c3a846107b0565b90506001600160a01b03831615801590610c665750826001600160a01b0316816001600160a01b031614155b8015610c795750610c7781846106e7565b155b15610ca25760405163a9fbf51f60e01b81526001600160a01b03841660048201526024016103e8565b8115610cea5783856001600160a01b0316826001600160a01b03167f8c5be1e5ebec7d5bd14f71427d1e84f3dd0314c0f7b2291e5b200ac8c7c3b92560405160405180910390a45b505b5050600090815260046020526040902080546001600160a01b0319166001600160a01b0392909216919091179055565b610d27838383610e2b565b61046d576001600160a01b038316610d5557604051637e27328960e01b8152600481018290526024016103e8565b60405163177e802f60e01b81526001600160a01b0383166004820152602481018290526044016103e8565b60606000610d8d83610e8e565b600101905060008167ffffffffffffffff811115610dad57610dad611154565b6040519080825280601f01601f191660200182016040528015610dd7576020820181803683370190505b5090508181016020015b600019016f181899199a1a9b1b9c1cb0b131b232b360811b600a86061a8153600a8504945084610de157509392505050565b610e1d8383610f66565b61046d336000858585610a0d565b60006001600160a01b038316158015906106a25750826001600160a01b0316846001600160a01b03161480610e655750610e6584846106e7565b806106a25750506000908152600460205260409020546001600160a01b03908116911614919050565b60008072184f03e93ff9f4daa797ed6e38ed64bf6a1f0160401b8310610ecd5772184f03e93ff9f4daa797ed6e38ed64bf6a1f0160401b830492506040015b6d04ee2d6d415b85acef81000000008310610ef9576d04ee2d6d415b85acef8100000000830492506020015b662386f26fc100008310610f1757662386f26fc10000830492506010015b6305f5e1008310610f2f576305f5e100830492506008015b6127108310610f4357612710830492506004015b60648310610f55576064830492506002015b600a83106102f25760010192915050565b6001600160a01b038216610f9057604051633250574960e11b8152600060048201526024016103e8565b6000610f9e838360006107f6565b90506001600160a01b0381161561046d576040516339e3563760e11b8152600060048201526024016103e8565b6001600160e01b03198116811461075d57600080fd5b600060208284031215610ff357600080fd5b81356106e081610fcb565b60005b83811015611019578181015183820152602001611001565b50506000910152565b6000815180845261103a816020860160208601610ffe565b601f01601f19169290920160200192915050565b6020815260006106e06020830184611022565b60006020828403121561107357600080fd5b5035919050565b80356001600160a01b038116811461109157600080fd5b919050565b600080604083850312156110a957600080fd5b6110b28361107a565b946020939093013593505050565b6000806000606084860312156110d557600080fd5b6110de8461107a565b92506110ec6020850161107a565b929592945050506040919091013590565b60006020828403121561110f57600080fd5b6106e08261107a565b6000806040838503121561112b57600080fd5b6111348361107a565b91506020830135801515811461114957600080fd5b809150509250929050565b634e487b7160e01b600052604160045260246000fd5b60008067ffffffffffffffff84111561118557611185611154565b50604051601f19601f85018116603f0116810181811067ffffffffffffffff821117156111b4576111b4611154565b6040528381529050808284018510156111cc57600080fd5b83836020830137600060208583010152509392505050565b600080600080608085870312156111fa57600080fd5b6112038561107a565b93506112116020860161107a565b925060408501359150606085013567ffffffffffffffff81111561123457600080fd5b8501601f8101871361124557600080fd5b6112548782356020840161116a565b91505092959194509250565b6000806040838503121561127357600080fd5b61127c8361107a565b9150602083013567ffffffffffffffff81111561129857600080fd5b8301601f810185136112a957600080fd5b6112b88582356020840161116a565b9150509250929050565b600080604083850312156112d557600080fd5b6112de8361107a565b91506112ec6020840161107a565b90509250929050565b600181811c9082168061130957607f821691505b60208210810361132957634e487b7160e01b600052602260045260246000fd5b50919050565b60008351611341818460208801610ffe565b835190830190611355818360208801610ffe565b01949350505050565b60006001820161137e57634e487b7160e01b600052601160045260246000fd5b5060010190565b6001600160a01b03858116825284166020820152604081018390526080606082018190526000906113b890830184611022565b9695505050505050565b6000602082840312156113d457600080fd5b81516106e081610fcb565b601f82111561046d57806000526020600020601f840160051c810160208510156114065750805b601f840160051c820191505b81811015610b315760008155600101611412565b815167ffffffffffffffff81111561144057611440611154565b6114548161144e84546112f5565b846113df565b6020601f82116001811461148857600083156114705750848201515b600019600385901b1c1916600184901b178455610b31565b600084815260208120601f198516915b828110156114b85787850151825560209485019460019092019101611498565b50848210156114d65786840151600019600387901b60f8161c191681555b50505050600190811b0190555056fea26469706673582212204c3c0993663fbb8f80e9fb50df4c5f666e0b3465d52cae00bb7877fb8dc0148864736f6c634300081c0033a2646970667358221220062665b3df57e6743b36c00df2f1b7e2b72a159c246f21f81a72d6ad8d43dd9564736f6c634300081c0033",
  "linkReferences": {},
  "deployedLinkReferences": {}
}